{"contracts/AgentEscrow.sol":{"AgentEscrow":{"abi":[{"inputs":[{"internalType":"address","name":"_usdc","type":"address"},{"internalType":"address","name":"_aiVerifier","type":"address"},{"internalType":"address","name":"_feeCollector","type":"address"}],"stateMutability":"nonpayable","type":"constructor"},{"inputs":[{"internalType":"address","name":"owner","type":"address"}],"name":"OwnableInvalidOwner","type":"error"},{"inputs":[{"internalType":"address","name":"account","type":"address"}],"name":"OwnableUnauthorizedAccount","type":"error"},{"inputs":[],"name":"ReentrancyGuardReentrantCall","type":"error"},{"anonymous":false,"inputs":[{"indexed":true,"internalType":"uint256","name":"escrowId","type":"uint256"},{"indexed":true,"internalType":"address","name":"raisedBy","type":"address"},{"indexed":false,"internalType":"string","name":"reason","type":"string"}],"name":"DisputeRaised","type":"event"},{"anonymous":false,"inputs":[{"indexed":true,"internalType":"uint256","name":"escrowId","type":"uint256"},{"indexed":false,"internalType":"address","name":"winner","type":"address"},{"indexed":false,"internalType":"uint256","name":"amount","type":"uint256"}],"name":"DisputeResolved","type":"event"},{"anonymous":false,"inputs":[{"indexed":true,"internalType":"uint256","name":"escrowId","type":"uint256"},{"indexed":true,"internalType":"address","name":"employer","type":"address"},{"indexed":true,"internalType":"address","name":"worker","type":"address"},{"indexed":false,"internalType":"uint256","name":"amount","type":"uint256"},{"indexed":false,"internalType":"uint256","name":"fee","type":"uint256"},{"indexed":false,"internalType":"uint256","name":"deadline","type":"uint256"}],"name":"EscrowCreated","type":"event"},{"anonymous":false,"inputs":[{"indexed":true,"internalType":"uint256","name":"escrowId","type":"uint256"},{"indexed":true,"internalType":"address","name":"employer","type":"address"},{"indexed":false,"internalType":"uint256","name":"amount","type":"uint256"}],"name":"EscrowRefunded","type":"event"},{"anonymous":false,"inputs":[{"indexed":true,"internalType":"address","name":"previousOwner","type":"address"},{"indexed":true,"internalType":"address","name":"newOwner","type":"address"}],"name":"OwnershipTransferred","type":"event"},{"anonymous":false,"inputs":[{"indexed":true,"internalType":"uint256","name":"escrowId","type":"uint256"},{"indexed":true,"internalType":"address","name":"worker","type":"address"},{"indexed":false,"internalType":"uint256","name":"amount","type":"uint256"},{"indexed":false,"internalType":"uint256","name":"fee","type":"uint256"}],"name":"PaymentReleased","type":"event"},{"anonymous":false,"inputs":[{"indexed":true,"internalType":"address","name":"agent","type":"address"},{"indexed":false,"internalType":"uint256","name":"newScore","type":"uint256"}],"name":"ReputationUpdated","type":"event"},{"anonymous":false,"inputs":[{"indexed":true,"internalType":"uint256","name":"escrowId","type":"uint256"},{"indexed":true,"internalType":"address","name":"worker","type":"address"},{"indexed":false,"internalType":"bytes32","name":"workHash","type":"bytes32"},{"indexed":false,"internalType":"string","name":"workUrl","type":"string"}],"name":"WorkSubmitted","type":"event"},{"anonymous":false,"inputs":[{"indexed":true,"internalType":"uint256","name":"escrowId","type":"uint256"},{"indexed":false,"internalType":"bool","name":"passed","type":"bool"},{"indexed":false,"internalType":"uint256","name":"score","type":"uint256"},{"indexed":false,"internalType":"string","name":"reason","type":"string"}],"name":"WorkVerified","type":"event"},{"inputs":[],"name":"DISPUTE_WINDOW","outputs":[{"internalType":"uint256","name":"","type":"uint256"}],"stateMutability":"view","type":"function"},{"inputs":[],"name":"MAX_DEADLINE","outputs":[{"internalType":"uint256","name":"","type":"uint256"}],"stateMutability":"view","type":"function"},{"inputs":[],"name":"MAX_ESCROW_AMOUNT","outputs":[{"internalType":"uint256","name":"","type":"uint256"}],"stateMutability":"view","type":"function"},{"inputs":[],"name":"MIN_DEADLINE","outputs":[{"internalType":"uint256","name":"","type":"uint256"}],"stateMutability":"view","type":"function"},{"inputs":[],"name":"MIN_ESCROW_AMOUNT","outputs":[{"internalType":"uint256","name":"","type":"uint256"}],"stateMutability":"view","type":"function"},{"inputs":[],"name":"USDC","outputs":[{"internalType":"contract IERC20","name":"","type":"address"}],"stateMutability":"view","type":"function"},{"inputs":[],"name":"aiVerifier","outputs":[{"internalType":"address","name":"","type":"address"}],"stateMutability":"view","type":"function"},{"inputs":[{"internalType":"uint256","name":"_escrowId","type":"uint256"}],"name":"cancelEscrow","outputs":[],"stateMutability":"nonpayable","type":"function"},{"inputs":[{"internalType":"address","name":"_worker","type":"address"},{"internalType":"uint256","name":"_amount","type":"uint256"},{"internalType":"uint256","name":"_fee","type":"uint256"},{"internalType":"string","name":"_taskDescription","type":"string"},{"internalType":"string","name":"_criteria","type":"string"},{"internalType":"uint256","name":"_deadline","type":"uint256"}],"name":"createEscrow","outputs":[{"internalType":"uint256","name":"","type":"uint256"}],"stateMutability":"nonpayable","type":"function"},{"inputs":[{"internalType":"uint256","name":"","type":"uint256"}],"name":"disputes","outputs":[{"internalType":"bool","name":"active","type":"bool"},{"internalType":"uint256","name":"raisedAt","type":"uint256"},{"internalType":"address","name":"raisedBy","type":"address"},{"internalType":"string","name":"reason","type":"string"},{"internalType":"uint256","name":"votesForEmployer","type":"uint256"},{"internalType":"uint256","name":"votesForWorker","type":"uint256"}],"stateMutability":"view","type":"function"},{"inputs":[],"name":"emergencyWithdraw","outputs":[],"stateMutability":"nonpayable","type":"function"},{"inputs":[{"internalType":"address","name":"","type":"address"},{"internalType":"uint256","name":"","type":"uint256"}],"name":"employerEscrows","outputs":[{"internalType":"uint256","name":"","type":"uint256"}],"stateMutability":"view","type":"function"},{"inputs":[],"name":"escrowCounter","outputs":[{"internalType":"uint256","name":"","type":"uint256"}],"stateMutability":"view","type":"function"},{"inputs":[{"internalType":"uint256","name":"","type":"uint256"}],"name":"escrows","outputs":[{"internalType":"uint256","name":"id","type":"uint256"},{"internalType":"address","name":"employer","type":"address"},{"internalType":"address","name":"worker","type":"address"},{"internalType":"uint256","name":"amount","type":"uint256"},{"internalType":"uint256","name":"fee","type":"uint256"},{"internalType":"string","name":"taskDescription","type":"string"},{"internalType":"string","name":"verificationCriteria","type":"string"},{"internalType":"bytes32","name":"workHash","type":"bytes32"},{"internalType":"string","name":"workUrl","type":"string"},{"internalType":"enum AgentEscrow.EscrowState","name":"state","type":"uint8"},{"internalType":"uint256","name":"createdAt","type":"uint256"},{"internalType":"uint256","name":"deadline","type":"uint256"},{"internalType":"uint256","name":"submittedAt","type":"uint256"},{"internalType":"bool","name":"aiVerified","type":"bool"},{"internalType":"string","name":"verificationReason","type":"string"},{"internalType":"uint256","name":"verificationScore","type":"uint256"}],"stateMutability":"view","type":"function"},{"inputs":[],"name":"feeCollector","outputs":[{"internalType":"address","name":"","type":"address"}],"stateMutability":"view","type":"function"},{"inputs":[{"internalType":"uint256","name":"_escrowId","type":"uint256"}],"name":"getDisputeInfo","outputs":[{"internalType":"bool","name":"active","type":"bool"},{"internalType":"uint256","name":"raisedAt","type":"uint256"},{"internalType":"address","name":"raisedBy","type":"address"},{"internalType":"string","name":"reason","type":"string"},{"internalType":"uint256","name":"votesForEmployer","type":"uint256"},{"internalType":"uint256","name":"votesForWorker","type":"uint256"}],"stateMutability":"view","type":"function"},{"inputs":[{"internalType":"address","name":"_employer","type":"address"}],"name":"getEmployerEscrows","outputs":[{"internalType":"uint256[]","name":"","type":"uint256[]"}],"stateMutability":"view","type":"function"},{"inputs":[{"internalType":"uint256","name":"_escrowId","type":"uint256"}],"name":"getEscrow","outputs":[{"components":[{"internalType":"uint256","name":"id","type":"uint256"},{"internalType":"address","name":"employer","type":"address"},{"internalType":"address","name":"worker","type":"address"},{"internalType":"uint256","name":"amount","type":"uint256"},{"internalType":"uint256","name":"fee","type":"uint256"},{"internalType":"string","name":"taskDescription","type":"string"},{"internalType":"string","name":"verificationCriteria","type":"string"},{"internalType":"bytes32","name":"workHash","type":"bytes32"},{"internalType":"string","name":"workUrl","type":"string"},{"internalType":"enum AgentEscrow.EscrowState","name":"state","type":"uint8"},{"internalType":"uint256","name":"createdAt","type":"uint256"},{"internalType":"uint256","name":"deadline","type":"uint256"},{"internalType":"uint256","name":"submittedAt","type":"uint256"},{"internalType":"bool","name":"aiVerified","type":"bool"},{"internalType":"string","name":"verificationReason","type":"string"},{"internalType":"uint256","name":"verificationScore","type":"uint256"}],"internalType":"struct AgentEscrow.Escrow","name":"","type":"tuple"}],"stateMutability":"view","type":"function"},{"inputs":[{"internalType":"address","name":"_agent","type":"address"}],"name":"getReputation","outputs":[{"internalType":"uint256","name":"","type":"uint256"}],"stateMutability":"view","type":"function"},{"inputs":[{"internalType":"address","name":"_worker","type":"address"}],"name":"getWorkerEscrows","outputs":[{"internalType":"uint256[]","name":"","type":"uint256[]"}],"stateMutability":"view","type":"function"},{"inputs":[{"internalType":"uint256","name":"_escrowId","type":"uint256"}],"name":"manualRelease","outputs":[],"stateMutability":"nonpayable","type":"function"},{"inputs":[],"name":"owner","outputs":[{"internalType":"address","name":"","type":"address"}],"stateMutability":"view","type":"function"},{"inputs":[{"internalType":"uint256","name":"_escrowId","type":"uint256"},{"internalType":"string","name":"_reason","type":"string"}],"name":"raiseDispute","outputs":[],"stateMutability":"nonpayable","type":"function"},{"inputs":[{"internalType":"uint256","name":"_escrowId","type":"uint256"}],"name":"refund","outputs":[],"stateMutability":"nonpayable","type":"function"},{"inputs":[],"name":"renounceOwnership","outputs":[],"stateMutability":"nonpayable","type":"function"},{"inputs":[{"internalType":"address","name":"","type":"address"}],"name":"reputationScore","outputs":[{"internalType":"uint256","name":"","type":"uint256"}],"stateMutability":"view","type":"function"},{"inputs":[{"internalType":"uint256","name":"_escrowId","type":"uint256"}],"name":"resolveDispute","outputs":[],"stateMutability":"nonpayable","type":"function"},{"inputs":[{"internalType":"address","name":"_newVerifier","type":"address"}],"name":"setAIVerifier","outputs":[],"stateMutability":"nonpayable","type":"function"},{"inputs":[{"internalType":"address","name":"_newCollector","type":"address"}],"name":"setFeeCollector","outputs":[],"stateMutability":"nonpayable","type":"function"},{"inputs":[{"internalType":"uint256","name":"_escrowId","type":"uint256"},{"internalType":"bytes32","name":"_workHash","type":"bytes32"},{"internalType":"string","name":"_workUrl","type":"string"}],"name":"submitWork","outputs":[],"stateMutability":"nonpayable","type":"function"},{"inputs":[{"internalType":"address","name":"","type":"address"}],"name":"totalEscrowsCompleted","outputs":[{"internalType":"uint256","name":"","type":"uint256"}],"stateMutability":"view","type":"function"},{"inputs":[{"internalType":"address","name":"newOwner","type":"address"}],"name":"transferOwnership","outputs":[],"stateMutability":"nonpayable","type":"function"},{"inputs":[{"internalType":"uint256","name":"_escrowId","type":"uint256"},{"internalType":"bool","name":"_passed","type":"bool"},{"internalType":"uint256","name":"_score","type":"uint256"},{"internalType":"string","name":"_reason","type":"string"}],"name":"verifyWork","outputs":[],"stateMutability":"nonpayable","type":"function"},{"inputs":[{"internalType":"uint256","name":"_escrowId","type":"uint256"},{"internalType":"bool","name":"_forEmployer","type":"bool"}],"name":"voteOnDispute","outputs":[],"stateMutability":"nonpayable","type":"function"},{"inputs":[{"internalType":"address","name":"","type":"address"},{"internalType":"uint256","name":"","type":"uint256"}],"name":"workerEscrows","outputs":[{"internalType":"uint256","name":"","type":"uint256"}],"stateMutability":"view","type":"function"}],"evm":{"bytecode":{"linkReferences":{},"object":"60a0346200021757601f620030fa38819003918201601f191683019291906001600160401b038411838510176200021c5781606092849260409687528339810103126200021757620000518162000232565b906200006d83620000656020840162000232565b920162000232565b60016000553315620001ff5760018054336001600160a01b0319808316821790935586519592946001600160a01b0393909284929083167f8be0079c531659141344cd1fd0a4f28419497f9722a3daafe3b4186f6b6457e0600080a316948515620001bd575081169182156200018657169283156200014257608052816002541617600255600354161760035551612eb290816200024882396080518181816102fc01528181610abf01528181610bd701528181610efe01528181610fdc0152818161140a0152818161206d0152612a900152f35b845162461bcd60e51b815260206004820152601560248201527f496e76616c69642066656520636f6c6c6563746f7200000000000000000000006044820152606490fd5b855162461bcd60e51b815260206004820152601060248201526f24b73b30b634b2103b32b934b334b2b960811b6044820152606490fd5b62461bcd60e51b815260206004820152601460248201527f496e76616c6964205553444320616464726573730000000000000000000000006044820152606490fd5b8351631e4fbdf760e01b815260006004820152602490fd5b600080fd5b634e487b7160e01b600052604160045260246000fd5b51906001600160a01b0382168203620002175756fe60a0604052600436101561001257600080fd5b60003560e01c8063012f52ee146124e357806323ecb306146121f2578063278ecde114611f8e5780634110501e14611f1657806350d061cb14611329578063564a565d14611eb65780635652ba2d14611e965780635aef573c14611bdc5780636169c30814611b7c578063620fae50146118315780636e4e15b9146118085780636f0e530f146117ea578063715018a61461178d5780637d19e596146114fd5780638070c4011461145657806385ae341d1461143957806389a30271146113f45780638da5cb5b146113cb5780638e9856f9146113ad578063919b4478146113635780639c89a0e214611329578063a42dce80146112dc578063a4f5df1214611189578063c2b7b86814610e10578063c415b95c14610de7578063c7ceafea14610dc9578063c809295514610d71578063d19c034014610ce9578063db2e21bc14610b9e578063e0182436146109cb578063f204a85214610991578063f2fde38b14610908578063f585dc57146108ea578063f7190358146101ef5763f8bf95891461019d57600080fd5b346101ea5760203660031901126101ea576101b6612827565b6101be6128e3565b6001600160a01b03166101d2811515612e3e565b6001600160601b0360a01b6002541617600255600080f35b600080fd5b346101ea5760c03660031901126101ea57610208612827565b60643567ffffffffffffffff81116101ea576102289036906004016127d0565b60843567ffffffffffffffff81116101ea576102489036906004016127d0565b9161025161297d565b6001600160a01b038116156108ac576001600160a01b038116331461087057620f42406024351061083a5764e8d4a510006024351161080357610e1042018042116107b45760a43511156107ca576276a70042018042116107b45760a435101561077c5781511561073e57825115610708576102d160443560243561290f565b6040516323b872dd60e01b8152336004820152306024820152604481019190915260208160648160007f00000000000000000000000000000000000000000000000000000000000000006001600160a01b03165af19081156106fc576000916106cd575b5015610696576004549161034883612934565b600455826000526005602052604060002090838255600182016001600160601b0360a01b903382825416179055600283019060018060a01b038516908254161790556024356003830155604435600483015580519067ffffffffffffffff82116105b05781906103bb6005850154612655565b601f8111610643575b50602090601f83116001146105d1576000926105c6575b50508160011b916000199060031b1c19161760058201555b835167ffffffffffffffff81116105b0576104116006830154612655565b601f8111610565575b50806020958690601f83116001146104fa576000926104ef575b50508160011b916000199060031b1c19161760068201555b6009810160ff19815416905542600a820155600b60a435910155336000526007835261047c826040600020612943565b60018060a01b0381166000526008835261049a826040600020612943565b6040519060243582526044358483015260a435604083015260018060a01b031690827f9f1e7af3298bd0a48f25259625f34b5497194b5b4e9546a3f388bf0939d8b73660603393a46001600055604051908152f35b015190508680610434565b6006850160009081528881209350601f198516905b81811061054e5750908460019594939210610535575b505050811b01600682015561044c565b015160001960f88460031b161c19169055868080610525565b92938960018192878601518155019501930161050f565b600683016000526020600020601f830160051c810191602084106105a6575b601f0160051c01905b81811061059a575061041a565b6000815560010161058d565b9091508190610584565b634e487b7160e01b600052604160045260246000fd5b0151905086806103db565b9250600584016000526020600020906000935b601f1984168510610628576001945083601f1981161061060f575b505050811b0160058201556103f3565b015160001960f88460031b161c191690558680806105ff565b818101518355602094850194600190930192909101906105e4565b909150600584016000526020600020601f840160051c81016020851061068f575b90849392915b601f830160051c820181106106805750506103c4565b6000815585945060010161066a565b5080610664565b60405162461bcd60e51b815260206004820152600f60248201526e151c985b9cd9995c8819985a5b1959608a1b6044820152606490fd5b6106ef915060203d6020116106f5575b6106e781836126ac565b81019061291c565b84610335565b503d6106dd565b6040513d6000823e3d90fd5b60405162461bcd60e51b815260206004820152600e60248201526d456d70747920637269746572696160901b6044820152606490fd5b60405162461bcd60e51b815260206004820152601660248201527522b6b83a3c903a30b9b5903232b9b1b934b83a34b7b760511b6044820152606490fd5b60405162461bcd60e51b815260206004820152601060248201526f2232b0b23634b732903a37b7903330b960811b6044820152606490fd5b634e487b7160e01b600052601160045260246000fd5b60405162461bcd60e51b81526020600482015260116024820152702232b0b23634b732903a37b79039b7b7b760791b6044820152606490fd5b60405162461bcd60e51b815260206004820152600f60248201526e082dadeeadce840e8dede40d0d2ced608b1b6044820152606490fd5b60405162461bcd60e51b815260206004820152600e60248201526d416d6f756e7420746f6f206c6f7760901b6044820152606490fd5b60405162461bcd60e51b815260206004820152601460248201527321b0b73737ba103434b932903cb7bab939b2b63360611b6044820152606490fd5b60405162461bcd60e51b8152602060048201526016602482015275496e76616c696420776f726b6572206164647265737360501b6044820152606490fd5b346101ea5760003660031901126101ea57602060405162093a808152f35b346101ea5760203660031901126101ea57610921612827565b6109296128e3565b6001600160a01b0390811690811561097857600154826001600160601b0360a01b821617600155167f8be0079c531659141344cd1fd0a4f28419497f9722a3daafe3b4186f6b6457e0600080a3005b604051631e4fbdf760e01b815260006004820152602490fd5b346101ea5760203660031901126101ea576001600160a01b036109b2612827565b16600052600a6020526020604060002054604051908152f35b346101ea576020806003193601126101ea576004356109ed60045482106129a0565b806000526005825260018060a01b0391610a1283600160406000200154163314612cbd565b816000526005815260ff600960406000200154166007811015610b8857610a3990156129e4565b610a4161297d565b8160005260058152604060002092600c840154610b4a5790610ab89160098501600660ff198254161790556001610a81600387015460048801549061290f565b9501805460405163a9059cbb60e01b81529083166001600160a01b0316600482015260248101879052938390859081906044820190565b03816000867f0000000000000000000000000000000000000000000000000000000000000000165af19384156106fc577feac97bc1917fcedc984e3d0671d4e83b359890323d5d1c2de32b28d17c356ced94610b1c91600091610b2d575b50612d35565b541693604051908152a36001600055005b610b449150853d87116106f5576106e781836126ac565b88610b16565b60405162461bcd60e51b815260048101839052601660248201527515dbdc9ac8185b1c9958591e481cdd589b5a5d1d195960521b6044820152606490fd5b634e487b7160e01b600052602160045260246000fd5b346101ea5760003660031901126101ea57610bb76128e3565b6040516370a0823160e01b81523060048201526020906001600160a01b037f0000000000000000000000000000000000000000000000000000000000000000811691908382602481865afa9081156106fc578492600092610cb6575b5060015460405163a9059cbb60e01b815291166001600160a01b03166004820152602481019190915291829081600081604481015b03925af19081156106fc57600091610c99575b5015610c6357005b6064906040519062461bcd60e51b82526004820152600f60248201526e15da5d1a191c985dc819985a5b1959608a1b6044820152fd5b610cb09150823d84116106f5576106e781836126ac565b82610c5b565b8381949293503d8311610ce2575b610cce81836126ac565b810103126101ea5790518391610c48610c13565b503d610cc4565b346101ea576020806003193601126101ea576001600160a01b03610d0b612827565b1660005260088152604060002090604051908181845491828152019360005281600020916000905b828210610d5a57610d5685610d4a818903826126ac565b6040519182918261283d565b0390f35b835486529485019460019384019390910190610d33565b346101ea5760403660031901126101ea57610d8a612827565b6001600160a01b03166000908152600860205260409020805460243591908210156101ea57602091610dbb916128b5565b90546040519160031b1c8152f35b346101ea5760003660031901126101ea576020600454604051908152f35b346101ea5760003660031901126101ea576003546040516001600160a01b039091168152602090f35b346101ea576020806003193601126101ea5760043590610e3360045483106129a0565b610e3b61297d565b81600052600681526040600020805491610e5760ff8416612d71565b600182015462093a8081018091116107b45742111561114557836000526005815260406000209060ff19809416835560038201546004830190610e9b82548261290f565b946005600482015491015410600014610f9a5750506001820154600990920180549490941660051790935560405163a9059cbb60e01b81526001600160a01b039182166004820181905260248201849052909390918190859060449082906000907f0000000000000000000000000000000000000000000000000000000000000000165af180156106fc577fdf0baf5489595ea17a097d16827d60793e2f57f3b85a982e5d7e02838b841ee694610f5b92600092610f7d575b5050612d35565b604080516001600160a01b039290921682526020820192909252a26001600055005b610f939250803d106106f5576106e781836126ac565b8680610f54565b600284015460099094018054600497168717905560405163a9059cbb60e01b8082526001600160a01b03958616978201889052602482019290925292969593927f0000000000000000000000000000000000000000000000000000000000000000841692908881806044810103816000885af19081156106fc57600091611128575b50156110f257549283611057575b505050507fdf0baf5489595ea17a097d16827d60793e2f57f3b85a982e5d7e02838b841ee6929350610f5b565b600354604051928352166001600160a01b0316600482015260248101929092528590829060449082906000905af19081156106fc576000916110d5575b50156110a3578380808061102a565b60405162461bcd60e51b815260048101859052600a6024820152691199594819985a5b195960b21b6044820152606490fd5b6110ec9150853d87116106f5576106e781836126ac565b85611094565b60405162461bcd60e51b815260048101899052600e60248201526d14185e5b595b9d0819985a5b195960921b6044820152606490fd5b61113f9150893d8b116106f5576106e781836126ac565b8961101c565b6064906040519062461bcd60e51b82526004820152601760248201527f566f74696e6720706572696f64206e6f7420656e6465640000000000000000006044820152fd5b346101ea5760403660031901126101ea576004356111a56127c1565b6111b260045483106129a0565b81600052602091600683526040600020926111d060ff855416612d71565b60068401913360005282825260ff604060002054166112a757600090815260058252604090206001810154336001600160a01b0391821614159182611295575b5050156112515733600052526040600020600160ff19825416179055600014611244576004016112408154612934565b9055005b6005016112408154612934565b6064906040519062461bcd60e51b82526004820152601a60248201527f43616e6e6f7420766f7465206f6e206f776e20646973707574650000000000006044820152fd5b60029192500154163314158580611210565b60405162461bcd60e51b815260048101839052600d60248201526c105b1c9958591e481d9bdd1959609a1b6044820152606490fd5b346101ea5760203660031901126101ea576112f5612827565b6112fd6128e3565b6001600160a01b0316611311811515612e3e565b6001600160601b0360a01b6003541617600355600080f35b346101ea5760203660031901126101ea576001600160a01b0361134a612827565b1660005260096020526020604060002054604051908152f35b346101ea5760403660031901126101ea5761137c612827565b6001600160a01b03166000908152600760205260409020805460243591908210156101ea57602091610dbb916128b5565b346101ea5760003660031901126101ea576020604051620f42408152f35b346101ea5760003660031901126101ea576001546040516001600160a01b039091168152602090f35b346101ea5760003660031901126101ea576040517f00000000000000000000000000000000000000000000000000000000000000006001600160a01b03168152602090f35b346101ea5760003660031901126101ea576020604051610e108152f35b346101ea5760203660031901126101ea5760043561147760045482106129a0565b80600052600560205261149b60018060a01b03600160406000200154163314612cbd565b6114a361297d565b80600052600560205260096040600020019081549160ff83166007811015610b88576114eb936114df82600293159081156114f2575b506129e4565b60ff1916179055612a20565b6001600055005b6001915014876114d9565b346101ea5760203660031901126101ea5760006101e060405161151f8161268f565b828152826020820152826040820152826060820152826080820152606060a0820152606060c08201528260e0820152606061010082015282610120820152826101408201528261016082015282610180820152826101a082015260606101c0820152015260043560005260056020526040600020604051906115a08261268f565b8054825260018101546001600160a01b039081166020840152600282015416604083015260038101546060830152600481015460808301526115e4600582016126ce565b60a08301526115f5600682016126ce565b60c0830152600781015460e0830152611610600882016126ce565b61010083015260ff600982015416906007821015610b8857600f91610120840152600a810154610140840152600b810154610160840152600c81015461018084015260ff600d8201541615156101a084015261166e600e82016126ce565b6101c084015201546101e08201526040518091602082528051602083015260018060a01b03602082015116604083015260018060a01b03604082015116606083015260608101516080830152608081015160a08301526101e06117806117246117016116eb60a086015161020060c0890152610220880190612774565b60c0860151878203601f190160e0890152612774565b60e0850151610100870152610100850151601f1987830301610120880152612774565b6117386101208501516101408701906127b4565b6101408401516101608601526101608401516101808601526101808401516101a08601526101a084015115156101c08601526101c0840151601f198683030184870152612774565b9101516102008301520390f35b346101ea5760003660031901126101ea576117a66128e3565b600180546001600160a01b031981169091556000906001600160a01b03167f8be0079c531659141344cd1fd0a4f28419497f9722a3daafe3b4186f6b6457e08280a3005b346101ea5760003660031901126101ea5760206040516276a7008152f35b346101ea5760003660031901126101ea576002546040516001600160a01b039091168152602090f35b346101ea5760603660031901126101ea5767ffffffffffffffff60043560248035906044358481116101ea5761186b9036906004016127d0565b9361187960045485106129a0565b836000526020916005835260018060a01b03600260406000200154163303611b4c57846000526005835260ff600960406000200154166007811015611b37576118c290156129e4565b6118ca61297d565b8460005260058352604060002091600b8301544211611b01578415611ac957865115611a945784600784015560088301918751918211611a80575061190f8254612655565b601f8111611a3a575b5083601f82116001146119ac57927f4eddd05decdc6d6aab51b897ab47ac4c0a8fdd8d59c39dc16a487b40adf4e1d2959492826009936040966000916119a1575b508160011b916000199060031b1c19161790555b42600c82015501600160ff1982541617905581519283528201528061199733956040830190612774565b0390a36001600055005b90508a01518b611959565b601f1982169083600052856000209160005b8a828210611a2357505083604096937f4eddd05decdc6d6aab51b897ab47ac4c0a8fdd8d59c39dc16a487b40adf4e1d29998969360099660019410611a0a575b5050811b01905561196d565b8c015160001960f88460031b161c191690558b806119fe565b600184958a939584930151815501940192016119be565b8260005284600020601f830160051c810191868410611a76575b601f0160051c01905b818110611a6a5750611918565b60008155600101611a5d565b9091508190611a54565b634e487b7160e01b60009081526041600452fd5b60405162461bcd60e51b815260048101859052600e818401526d115b5c1d1e481ddbdc9ac815549360921b6044820152606490fd5b60405162461bcd60e51b81526004810185905260118184015270092dcecc2d8d2c840eedee4d640d0c2e6d607b1b6044820152606490fd5b60405162461bcd60e51b815260048101859052600f818401526e111958591b1a5b99481c185cdcd959608a1b6044820152606490fd5b50634e487b7160e01b60009081526021600452fd5b82600a6064926040519262461bcd60e51b84526004840152820152692737ba103bb7b935b2b960b11b6044820152fd5b346101ea5760203660031901126101ea576004356000526006602052604060002060ff815416610d5660018301549260018060a01b03600282015416600482015490611bcf6003600585015494016126ce565b9060405196879687612878565b346101ea5760403660031901126101ea5767ffffffffffffffff6004356024358281116101ea57611c119036906004016127d0565b90611c1f60045482106129a0565b611c2761297d565b8060005260209160058352604060002093600960018060a01b0395611c5e6001978089840154163314908115611e86575b50612cf8565b0180549060ff82166007811015610b88578088611c839214908115611e7d57506129e4565b846000526006865260ff60406000205416611e3f5760ff1991821660039081179091556000858152600687526040902080549092168717825542828801556002820180546001600160a01b03191633179055835191019181116105b057611cea8254612655565b601f8111611df6575b5084601f8211600114611d6a5791817f1b84372106d77c6daea0dda35bbc0229d10a83f58ec8990928849251936823419492611d5794600091611d5f575b50600019600383901b1c191690881b1790555b6040519182918683523396830190612774565b0390a3600055005b905083015189611d31565b908691601f1982169084600052876000209160005b89828210611de0575050918391611d5796947f1b84372106d77c6daea0dda35bbc0229d10a83f58ec89909288492519368234198969410611dc7575b5050811b019055611d44565b85015160001960f88460031b161c191690558980611dbb565b8389015185558b96909401939283019201611d7f565b8260005285600020601f830160051c810191878410611e35575b601f0160051c019087905b828110611e29575050611cf3565b60008155018790611e1b565b9091508190611e10565b60405162461bcd60e51b81526004810187905260166024820152754469737075746520616c72656164792061637469766560501b6044820152606490fd5b905015896114d9565b9050600283015416331489611c58565b346101ea5760003660031901126101ea57602060405164e8d4a510008152f35b346101ea5760203660031901126101ea576004356000526006602052604060002060ff815416610d5660018301549260018060a01b0360028201541690611eff600382016126ce565b600560048301549201549260405196879687612878565b346101ea576020806003193601126101ea576001600160a01b03611f38612827565b1660005260078152604060002090604051908181845491828152019360005281600020916000905b828210611f7757610d5685610d4a818903826126ac565b835486529485019460019384019390910190611f60565b346101ea576020806003193601126101ea57600435611fb060045482106129a0565b611fb861297d565b80600052600582526040600020600981019283549360ff85166007811015610b8857611fe490156129e4565b600b8301544211156121b757612066600184019360018060a01b03926005848754169889331480156121aa575b61201a90612cf8565b60ff191617905583612035600383015460048401549061290f565b60405163a9059cbb60e01b81526001600160a01b0390991660048a0152602489018190529792839081906044820190565b03816000877f0000000000000000000000000000000000000000000000000000000000000000165af19081156106fc576120ab600292859460009161218d5750612d35565b01541692836000526009835260406000205493601485116000146121415760131985019485116107b4577ffc577563f1b9a0461e24abef1e1fcc0d33d3d881f20b5df6dda59de4aae2c821847feac97bc1917fcedc984e3d0671d4e83b359890323d5d1c2de32b28d17c356ced965b836000526009825280604060002055604051908152a2541693604051908152a36001600055005b7feac97bc1917fcedc984e3d0671d4e83b359890323d5d1c2de32b28d17c356ced94507ffc577563f1b9a0461e24abef1e1fcc0d33d3d881f20b5df6dda59de4aae2c82184600061211a565b6121a49150873d89116106f5576106e781836126ac565b8a610b16565b5060015486163314612011565b60405162461bcd60e51b8152600481018390526013602482015272111958591b1a5b99481b9bdd081c185cdcd959606a1b6044820152606490fd5b346101ea5760803660031901126101ea5760043561220e6127c1565b9067ffffffffffffffff906044356064358381116101ea576122349036906004016127d0565b9261224260045484106129a0565b6002546001600160a01b031633036124ac57826000526020906005825260ff60096040600020015416956007871015610b885761228260018098146129e4565b61228a61297d565b60648411612477578460005260058352604060002090600d82019260ff1993898582541617905585600f840155600e83019088519081116105b0576122cf8254612655565b601f811161242e575b508086601f82116001146123cb576000916123c0575b50600019600383901b1c1916908a1b1790555b15612369579161235c61236496869593600260097f0a5781189e7be31f3ecf3f373a66169166e47cd27528e3852227561de624faec9701918254161790556040519384938a8552840152606060408401526060830190612774565b0390a2612a20565b600055005b946123b89160097f0a5781189e7be31f3ecf3f373a66169166e47cd27528e3852227561de624faec96970190815416905560405193849360008552840152606060408401526060830190612774565b0390a2600055005b90508901518b6122ee565b60008481528881208d94509190601f198416908a8e5b8383106124175750505083116123fe575b5050811b019055612301565b8b015160001960f88460031b161c191690558b806123f2565b84015185558f969094019392830192018a8e6123e1565b8260005286600020601f830160051c81019188841061246d575b601f0160051c01908b905b8281106124615750506122d8565b60008155018b90612453565b9091508190612448565b60405162461bcd60e51b815260048101849052600d60248201526c496e76616c69642073636f726560981b6044820152606490fd5b60405162461bcd60e51b815260206004820152600f60248201526e2737ba1020a4903b32b934b334b2b960891b6044820152606490fd5b346101ea5760203660031901126101ea5760043560005260056020526040600020805490600160a01b600190038181600182015416916002820154169160038201549260048301549360058401612539906126ce565b612545600686016126ce565b600786015490612557600888016126ce565b92600988015460ff1698600a89015495600b8a015497600c8b015499600d8c015460ff169b600e01612588906126ce565b9d600f01549e6040518060805252608051602001526080516040015260805160600152608051608001526102008060805160a00152608051016125ca91612774565b6080518082039060c001526125de91612774565b9060805160e001526080518082039061010001526125fb91612774565b946080516101200161260c916127b4565b60805161014001526080516101600152608051610180015215156080516101a00152608051808203906101c0015261264391612774565b906080516101e0015260805180910390f35b90600182811c92168015612685575b602083101461266f57565b634e487b7160e01b600052602260045260246000fd5b91607f1691612664565b610200810190811067ffffffffffffffff8211176105b057604052565b90601f8019910116810190811067ffffffffffffffff8211176105b057604052565b90604051918260008254926126e284612655565b908184526001948581169081600014612751575060011461270e575b505061270c925003836126ac565b565b9093915060005260209081600020936000915b81831061273957505061270c935082010138806126fe565b85548884018501529485019487945091830191612721565b91505061270c94506020925060ff191682840152151560051b82010138806126fe565b919082519283825260005b8481106127a0575050826000602080949584010152601f8019910116010190565b60208183018101518483018201520161277f565b906007821015610b885752565b6024359081151582036101ea57565b81601f820112156101ea5780359067ffffffffffffffff82116105b05760405192612805601f8401601f1916602001856126ac565b828452602083830101116101ea57816000926020809301838601378301015290565b600435906001600160a01b03821682036101ea57565b6020908160408183019282815285518094520193019160005b828110612864575050505090565b835185529381019392810192600101612856565b926128ab9260a0959298979698151585526020850152600180861b0316604084015260c0606084015260c0830190612774565b9460808201520152565b80548210156128cd5760005260206000200190600090565b634e487b7160e01b600052603260045260246000fd5b6001546001600160a01b031633036128f757565b60405163118cdaa760e01b8152336004820152602490fd5b919082018092116107b457565b908160209103126101ea575180151581036101ea5790565b60001981146107b45760010190565b8054680100000000000000008110156105b057612965916001820181556128b5565b819291549060031b91821b91600019901b1916179055565b60026000541461298e576002600055565b604051633ee5aeb560e01b8152600490fd5b156129a757565b60405162461bcd60e51b8152602060048201526015602482015274115cd8dc9bddc8191bd95cc81b9bdd08195e1a5cdd605a1b6044820152606490fd5b156129eb57565b60405162461bcd60e51b815260206004820152600d60248201526c496e76616c696420737461746560981b6044820152606490fd5b90600091808352602090600582526040808520600981019384549460ff86166007811015612ca957600203612c7657600460ff199690961686179055600282018054600384018054865163a9059cbb60e01b8082526001600160a01b03948516828c0152602482019290925291987f00000000000000000000000000000000000000000000000000000000000000008416969394939290919086818e81806044810103918c5af1908115612c6c578d91612c4f575b5015612c0c578183019687549182612b56575b505050507f8cdc8dc08e54a4e57f52077ecf1b4c508758513439cae2aa325dcc85b922fca896979899612b2d8460018994612b2583885416612db1565b015416612db1565b838354168152600a855220612b428154612934565b9055541695549154908351928352820152a3565b918791612b8c938f8960035416918d519687958694859384528a840160209093929193604081019460018060a01b031681520152565b03925af1908115612c02578c91612be5575b5015612bac57808080612ae8565b865162461bcd60e51b81529081018590526013602482015272119959481d1c985b9cd9995c8819985a5b1959606a1b6044820152606490fd5b612bfc9150863d88116106f5576106e781836126ac565b38612b9e565b88513d8e823e3d90fd5b875162461bcd60e51b8152808301879052601760248201527f5061796d656e74207472616e73666572206661696c65640000000000000000006044820152606490fd5b612c669150873d89116106f5576106e781836126ac565b38612ad5565b89513d8f823e3d90fd5b835162461bcd60e51b815260048101839052600c60248201526b139bdd081d995c9a599a595960a21b6044820152606490fd5b634e487b7160e01b89526021600452602489fd5b15612cc457565b60405162461bcd60e51b815260206004820152600c60248201526b2737ba1032b6b83637bcb2b960a11b6044820152606490fd5b15612cff57565b60405162461bcd60e51b815260206004820152600e60248201526d139bdd08185d5d1a1bdc9a5e995960921b6044820152606490fd5b15612d3c57565b60405162461bcd60e51b815260206004820152600d60248201526c1499599d5b990819985a5b1959609a1b6044820152606490fd5b15612d7857565b60405162461bcd60e51b81526020600482015260116024820152704e6f20616374697665206469737075746560781b6044820152606490fd5b6001600160a01b0316600081815260096020526040812054600a8101908110612e2a577ffc577563f1b9a0461e24abef1e1fcc0d33d3d881f20b5df6dda59de4aae2c82191602091604091906103e89081811115612e2057509182915b868152600985522055604051908152a2565b9050918291612e0e565b634e487b7160e01b82526011600452602482fd5b15612e4557565b60405162461bcd60e51b815260206004820152600f60248201526e496e76616c6964206164647265737360881b6044820152606490fdfea264697066735822122051ae0a103b733a433bd30a4bd420c3e0edaa8f00059b5af0e9f655502be2c12e64736f6c63430008140033","opcodes":"PUSH1 0xA0 CALLVALUE PUSH3 0x217 JUMPI PUSH1 0x1F PUSH3 0x30FA CODESIZE DUP2 SWAP1 SUB SWAP2 DUP3 ADD PUSH1 0x1F NOT AND DUP4 ADD SWAP3 SWAP2 SWAP1 PUSH1 0x1 PUSH1 0x1 PUSH1 0x40 SHL SUB DUP5 GT DUP4 DUP6 LT OR PUSH3 0x21C JUMPI DUP2 PUSH1 0x60 SWAP3 DUP5 SWAP3 PUSH1 0x40 SWAP7 DUP8 MSTORE DUP4 CODECOPY DUP2 ADD SUB SLT PUSH3 0x217 JUMPI PUSH3 0x51 DUP2 PUSH3 0x232 JUMP JUMPDEST SWAP1 PUSH3 0x6D DUP4 PUSH3 0x65 PUSH1 0x20 DUP5 ADD PUSH3 0x232 JUMP JUMPDEST SWAP3 ADD PUSH3 0x232 JUMP JUMPDEST PUSH1 0x1 PUSH1 0x0 SSTORE CALLER ISZERO PUSH3 0x1FF JUMPI PUSH1 0x1 DUP1 SLOAD CALLER PUSH1 0x1 PUSH1 0x1 PUSH1 0xA0 SHL SUB NOT DUP1 DUP4 AND DUP3 OR SWAP1 SWAP4 SSTORE DUP7 MLOAD SWAP6 SWAP3 SWAP5 PUSH1 0x1 PUSH1 0x1 PUSH1 0xA0 SHL SUB SWAP4 SWAP1 SWAP3 DUP5 SWAP3 SWAP1 DUP4 AND PUSH32 0x8BE0079C531659141344CD1FD0A4F28419497F9722A3DAAFE3B4186F6B6457E0 PUSH1 0x0 DUP1 LOG3 AND SWAP5 DUP6 ISZERO PUSH3 0x1BD JUMPI POP DUP2 AND SWAP2 DUP3 ISZERO PUSH3 0x186 JUMPI AND SWAP3 DUP4 ISZERO PUSH3 0x142 JUMPI PUSH1 0x80 MSTORE DUP2 PUSH1 0x2 SLOAD AND OR PUSH1 0x2 SSTORE PUSH1 0x3 SLOAD AND OR PUSH1 0x3 SSTORE MLOAD PUSH2 0x2EB2 SWAP1 DUP2 PUSH3 0x248 DUP3 CODECOPY PUSH1 0x80 MLOAD DUP2 DUP2 DUP2 PUSH2 0x2FC ADD MSTORE DUP2 DUP2 PUSH2 0xABF ADD MSTORE DUP2 DUP2 PUSH2 0xBD7 ADD MSTORE DUP2 DUP2 PUSH2 0xEFE ADD MSTORE DUP2 DUP2 PUSH2 0xFDC ADD MSTORE DUP2 DUP2 PUSH2 0x140A ADD MSTORE DUP2 DUP2 PUSH2 0x206D ADD MSTORE PUSH2 0x2A90 ADD MSTORE RETURN JUMPDEST DUP5 MLOAD PUSH3 0x461BCD PUSH1 0xE5 SHL DUP2 MSTORE PUSH1 0x20 PUSH1 0x4 DUP3 ADD MSTORE PUSH1 0x15 PUSH1 0x24 DUP3 ADD MSTORE PUSH32 0x496E76616C69642066656520636F6C6C6563746F720000000000000000000000 PUSH1 0x44 DUP3 ADD MSTORE PUSH1 0x64 SWAP1 REVERT JUMPDEST DUP6 MLOAD PUSH3 0x461BCD PUSH1 0xE5 SHL DUP2 MSTORE PUSH1 0x20 PUSH1 0x4 DUP3 ADD MSTORE PUSH1 0x10 PUSH1 0x24 DUP3 ADD MSTORE PUSH16 0x24B73B30B634B2103B32B934B334B2B9 PUSH1 0x81 SHL PUSH1 0x44 DUP3 ADD MSTORE PUSH1 0x64 SWAP1 REVERT JUMPDEST PUSH3 0x461BCD PUSH1 0xE5 SHL DUP2 MSTORE PUSH1 0x20 PUSH1 0x4 DUP3 ADD MSTORE PUSH1 0x14 PUSH1 0x24 DUP3 ADD MSTORE PUSH32 0x496E76616C696420555344432061646472657373000000000000000000000000 PUSH1 0x44 DUP3 ADD MSTORE PUSH1 0x64 SWAP1 REVERT JUMPDEST DUP4 MLOAD PUSH4 0x1E4FBDF7 PUSH1 0xE0 SHL DUP2 MSTORE PUSH1 0x0 PUSH1 0x4 DUP3 ADD MSTORE PUSH1 0x24 SWAP1 REVERT JUMPDEST PUSH1 0x0 DUP1 REVERT JUMPDEST PUSH4 0x4E487B71 PUSH1 0xE0 SHL PUSH1 0x0 MSTORE PUSH1 0x41 PUSH1 0x4 MSTORE PUSH1 0x24 PUSH1 0x0 REVERT JUMPDEST MLOAD SWAP1 PUSH1 0x1 PUSH1 0x1 PUSH1 0xA0 SHL SUB DUP3 AND DUP3 SUB PUSH3 0x217 JUMPI JUMP INVALID PUSH1 0xA0 PUSH1 0x40 MSTORE PUSH1 0x4 CALLDATASIZE LT ISZERO PUSH2 0x12 JUMPI PUSH1 0x0 DUP1 REVERT JUMPDEST PUSH1 0x0 CALLDATALOAD PUSH1 0xE0 SHR DUP1 PUSH4 0x12F52EE EQ PUSH2 0x24E3 JUMPI DUP1 PUSH4 0x23ECB306 EQ PUSH2 0x21F2 JUMPI DUP1 PUSH4 0x278ECDE1 EQ PUSH2 0x1F8E JUMPI DUP1 PUSH4 0x4110501E EQ PUSH2 0x1F16 JUMPI DUP1 PUSH4 0x50D061CB EQ PUSH2 0x1329 JUMPI DUP1 PUSH4 0x564A565D EQ PUSH2 0x1EB6 JUMPI DUP1 PUSH4 0x5652BA2D EQ PUSH2 0x1E96 JUMPI DUP1 PUSH4 0x5AEF573C EQ PUSH2 0x1BDC JUMPI DUP1 PUSH4 0x6169C308 EQ PUSH2 0x1B7C JUMPI DUP1 PUSH4 0x620FAE50 EQ PUSH2 0x1831 JUMPI DUP1 PUSH4 0x6E4E15B9 EQ PUSH2 0x1808 JUMPI DUP1 PUSH4 0x6F0E530F EQ PUSH2 0x17EA JUMPI DUP1 PUSH4 0x715018A6 EQ PUSH2 0x178D JUMPI DUP1 PUSH4 0x7D19E596 EQ PUSH2 0x14FD JUMPI DUP1 PUSH4 0x8070C401 EQ PUSH2 0x1456 JUMPI DUP1 PUSH4 0x85AE341D EQ PUSH2 0x1439 JUMPI DUP1 PUSH4 0x89A30271 EQ PUSH2 0x13F4 JUMPI DUP1 PUSH4 0x8DA5CB5B EQ PUSH2 0x13CB JUMPI DUP1 PUSH4 0x8E9856F9 EQ PUSH2 0x13AD JUMPI DUP1 PUSH4 0x919B4478 EQ PUSH2 0x1363 JUMPI DUP1 PUSH4 0x9C89A0E2 EQ PUSH2 0x1329 JUMPI DUP1 PUSH4 0xA42DCE80 EQ PUSH2 0x12DC JUMPI DUP1 PUSH4 0xA4F5DF12 EQ PUSH2 0x1189 JUMPI DUP1 PUSH4 0xC2B7B868 EQ PUSH2 0xE10 JUMPI DUP1 PUSH4 0xC415B95C EQ PUSH2 0xDE7 JUMPI DUP1 PUSH4 0xC7CEAFEA EQ PUSH2 0xDC9 JUMPI DUP1 PUSH4 0xC8092955 EQ PUSH2 0xD71 JUMPI DUP1 PUSH4 0xD19C0340 EQ PUSH2 0xCE9 JUMPI DUP1 PUSH4 0xDB2E21BC EQ PUSH2 0xB9E JUMPI DUP1 PUSH4 0xE0182436 EQ PUSH2 0x9CB JUMPI DUP1 PUSH4 0xF204A852 EQ PUSH2 0x991 JUMPI DUP1 PUSH4 0xF2FDE38B EQ PUSH2 0x908 JUMPI DUP1 PUSH4 0xF585DC57 EQ PUSH2 0x8EA JUMPI DUP1 PUSH4 0xF7190358 EQ PUSH2 0x1EF JUMPI PUSH4 0xF8BF9589 EQ PUSH2 0x19D JUMPI PUSH1 0x0 DUP1 REVERT JUMPDEST CALLVALUE PUSH2 0x1EA JUMPI PUSH1 0x20 CALLDATASIZE PUSH1 0x3 NOT ADD SLT PUSH2 0x1EA JUMPI PUSH2 0x1B6 PUSH2 0x2827 JUMP JUMPDEST PUSH2 0x1BE PUSH2 0x28E3 JUMP JUMPDEST PUSH1 0x1 PUSH1 0x1 PUSH1 0xA0 SHL SUB AND PUSH2 0x1D2 DUP2 ISZERO ISZERO PUSH2 0x2E3E JUMP JUMPDEST PUSH1 0x1 PUSH1 0x1 PUSH1 0x60 SHL SUB PUSH1 0xA0 SHL PUSH1 0x2 SLOAD AND OR PUSH1 0x2 SSTORE PUSH1 0x0 DUP1 RETURN JUMPDEST PUSH1 0x0 DUP1 REVERT JUMPDEST CALLVALUE PUSH2 0x1EA JUMPI PUSH1 0xC0 CALLDATASIZE PUSH1 0x3 NOT ADD SLT PUSH2 0x1EA JUMPI PUSH2 0x208 PUSH2 0x2827 JUMP JUMPDEST PUSH1 0x64 CALLDATALOAD PUSH8 0xFFFFFFFFFFFFFFFF DUP2 GT PUSH2 0x1EA JUMPI PUSH2 0x228 SWAP1 CALLDATASIZE SWAP1 PUSH1 0x4 ADD PUSH2 0x27D0 JUMP JUMPDEST PUSH1 0x84 CALLDATALOAD PUSH8 0xFFFFFFFFFFFFFFFF DUP2 GT PUSH2 0x1EA JUMPI PUSH2 0x248 SWAP1 CALLDATASIZE SWAP1 PUSH1 0x4 ADD PUSH2 0x27D0 JUMP JUMPDEST SWAP2 PUSH2 0x251 PUSH2 0x297D JUMP JUMPDEST PUSH1 0x1 PUSH1 0x1 PUSH1 0xA0 SHL SUB DUP2 AND ISZERO PUSH2 0x8AC JUMPI PUSH1 0x1 PUSH1 0x1 PUSH1 0xA0 SHL SUB DUP2 AND CALLER EQ PUSH2 0x870 JUMPI PUSH3 0xF4240 PUSH1 0x24 CALLDATALOAD LT PUSH2 0x83A JUMPI PUSH5 0xE8D4A51000 PUSH1 0x24 CALLDATALOAD GT PUSH2 0x803 JUMPI PUSH2 0xE10 TIMESTAMP ADD DUP1 TIMESTAMP GT PUSH2 0x7B4 JUMPI PUSH1 0xA4 CALLDATALOAD GT ISZERO PUSH2 0x7CA JUMPI PUSH3 0x76A700 TIMESTAMP ADD DUP1 TIMESTAMP GT PUSH2 0x7B4 JUMPI PUSH1 0xA4 CALLDATALOAD LT ISZERO PUSH2 0x77C JUMPI DUP2 MLOAD ISZERO PUSH2 0x73E JUMPI DUP3 MLOAD ISZERO PUSH2 0x708 JUMPI PUSH2 0x2D1 PUSH1 0x44 CALLDATALOAD PUSH1 0x24 CALLDATALOAD PUSH2 0x290F JUMP JUMPDEST PUSH1 0x40 MLOAD PUSH4 0x23B872DD PUSH1 0xE0 SHL DUP2 MSTORE CALLER PUSH1 0x4 DUP3 ADD MSTORE ADDRESS PUSH1 0x24 DUP3 ADD MSTORE PUSH1 0x44 DUP2 ADD SWAP2 SWAP1 SWAP2 MSTORE PUSH1 0x20 DUP2 PUSH1 0x64 DUP2 PUSH1 0x0 PUSH32 0x0 PUSH1 0x1 PUSH1 0x1 PUSH1 0xA0 SHL SUB AND GAS CALL SWAP1 DUP2 ISZERO PUSH2 0x6FC JUMPI PUSH1 0x0 SWAP2 PUSH2 0x6CD JUMPI JUMPDEST POP ISZERO PUSH2 0x696 JUMPI PUSH1 0x4 SLOAD SWAP2 PUSH2 0x348 DUP4 PUSH2 0x2934 JUMP JUMPDEST PUSH1 0x4 SSTORE DUP3 PUSH1 0x0 MSTORE PUSH1 0x5 PUSH1 0x20 MSTORE PUSH1 0x40 PUSH1 0x0 KECCAK256 SWAP1 DUP4 DUP3 SSTORE PUSH1 0x1 DUP3 ADD PUSH1 0x1 PUSH1 0x1 PUSH1 0x60 SHL SUB PUSH1 0xA0 SHL SWAP1 CALLER DUP3 DUP3 SLOAD AND OR SWAP1 SSTORE PUSH1 0x2 DUP4 ADD SWAP1 PUSH1 0x1 DUP1 PUSH1 0xA0 SHL SUB DUP6 AND SWAP1 DUP3 SLOAD AND OR SWAP1 SSTORE PUSH1 0x24 CALLDATALOAD PUSH1 0x3 DUP4 ADD SSTORE PUSH1 0x44 CALLDATALOAD PUSH1 0x4 DUP4 ADD SSTORE DUP1 MLOAD SWAP1 PUSH8 0xFFFFFFFFFFFFFFFF DUP3 GT PUSH2 0x5B0 JUMPI DUP2 SWAP1 PUSH2 0x3BB PUSH1 0x5 DUP6 ADD SLOAD PUSH2 0x2655 JUMP JUMPDEST PUSH1 0x1F DUP2 GT PUSH2 0x643 JUMPI JUMPDEST POP PUSH1 0x20 SWAP1 PUSH1 0x1F DUP4 GT PUSH1 0x1 EQ PUSH2 0x5D1 JUMPI PUSH1 0x0 SWAP3 PUSH2 0x5C6 JUMPI JUMPDEST POP POP DUP2 PUSH1 0x1 SHL SWAP2 PUSH1 0x0 NOT SWAP1 PUSH1 0x3 SHL SHR NOT AND OR PUSH1 0x5 DUP3 ADD SSTORE JUMPDEST DUP4 MLOAD PUSH8 0xFFFFFFFFFFFFFFFF DUP2 GT PUSH2 0x5B0 JUMPI PUSH2 0x411 PUSH1 0x6 DUP4 ADD SLOAD PUSH2 0x2655 JUMP JUMPDEST PUSH1 0x1F DUP2 GT PUSH2 0x565 JUMPI JUMPDEST POP DUP1 PUSH1 0x20 SWAP6 DUP7 SWAP1 PUSH1 0x1F DUP4 GT PUSH1 0x1 EQ PUSH2 0x4FA JUMPI PUSH1 0x0 SWAP3 PUSH2 0x4EF JUMPI JUMPDEST POP POP DUP2 PUSH1 0x1 SHL SWAP2 PUSH1 0x0 NOT SWAP1 PUSH1 0x3 SHL SHR NOT AND OR PUSH1 0x6 DUP3 ADD SSTORE JUMPDEST PUSH1 0x9 DUP2 ADD PUSH1 0xFF NOT DUP2 SLOAD AND SWAP1 SSTORE TIMESTAMP PUSH1 0xA DUP3 ADD SSTORE PUSH1 0xB PUSH1 0xA4 CALLDATALOAD SWAP2 ADD SSTORE CALLER PUSH1 0x0 MSTORE PUSH1 0x7 DUP4 MSTORE PUSH2 0x47C DUP3 PUSH1 0x40 PUSH1 0x0 KECCAK256 PUSH2 0x2943 JUMP JUMPDEST PUSH1 0x1 DUP1 PUSH1 0xA0 SHL SUB DUP2 AND PUSH1 0x0 MSTORE PUSH1 0x8 DUP4 MSTORE PUSH2 0x49A DUP3 PUSH1 0x40 PUSH1 0x0 KECCAK256 PUSH2 0x2943 JUMP JUMPDEST PUSH1 0x40 MLOAD SWAP1 PUSH1 0x24 CALLDATALOAD DUP3 MSTORE PUSH1 0x44 CALLDATALOAD DUP5 DUP4 ADD MSTORE PUSH1 0xA4 CALLDATALOAD PUSH1 0x40 DUP4 ADD MSTORE PUSH1 0x1 DUP1 PUSH1 0xA0 SHL SUB AND SWAP1 DUP3 PUSH32 0x9F1E7AF3298BD0A48F25259625F34B5497194B5B4E9546A3F388BF0939D8B736 PUSH1 0x60 CALLER SWAP4 LOG4 PUSH1 0x1 PUSH1 0x0 SSTORE PUSH1 0x40 MLOAD SWAP1 DUP2 MSTORE RETURN JUMPDEST ADD MLOAD SWAP1 POP DUP7 DUP1 PUSH2 0x434 JUMP JUMPDEST PUSH1 0x6 DUP6 ADD PUSH1 0x0 SWAP1 DUP2 MSTORE DUP9 DUP2 KECCAK256 SWAP4 POP PUSH1 0x1F NOT DUP6 AND SWAP1 JUMPDEST DUP2 DUP2 LT PUSH2 0x54E JUMPI POP SWAP1 DUP5 PUSH1 0x1 SWAP6 SWAP5 SWAP4 SWAP3 LT PUSH2 0x535 JUMPI JUMPDEST POP POP POP DUP2 SHL ADD PUSH1 0x6 DUP3 ADD SSTORE PUSH2 0x44C JUMP JUMPDEST ADD MLOAD PUSH1 0x0 NOT PUSH1 0xF8 DUP5 PUSH1 0x3 SHL AND SHR NOT AND SWAP1 SSTORE DUP7 DUP1 DUP1 PUSH2 0x525 JUMP JUMPDEST SWAP3 SWAP4 DUP10 PUSH1 0x1 DUP2 SWAP3 DUP8 DUP7 ADD MLOAD DUP2 SSTORE ADD SWAP6 ADD SWAP4 ADD PUSH2 0x50F JUMP JUMPDEST PUSH1 0x6 DUP4 ADD PUSH1 0x0 MSTORE PUSH1 0x20 PUSH1 0x0 KECCAK256 PUSH1 0x1F DUP4 ADD PUSH1 0x5 SHR DUP2 ADD SWAP2 PUSH1 0x20 DUP5 LT PUSH2 0x5A6 JUMPI JUMPDEST PUSH1 0x1F ADD PUSH1 0x5 SHR ADD SWAP1 JUMPDEST DUP2 DUP2 LT PUSH2 0x59A JUMPI POP PUSH2 0x41A JUMP JUMPDEST PUSH1 0x0 DUP2 SSTORE PUSH1 0x1 ADD PUSH2 0x58D JUMP JUMPDEST SWAP1 SWAP2 POP DUP2 SWAP1 PUSH2 0x584 JUMP JUMPDEST PUSH4 0x4E487B71 PUSH1 0xE0 SHL PUSH1 0x0 MSTORE PUSH1 0x41 PUSH1 0x4 MSTORE PUSH1 0x24 PUSH1 0x0 REVERT JUMPDEST ADD MLOAD SWAP1 POP DUP7 DUP1 PUSH2 0x3DB JUMP JUMPDEST SWAP3 POP PUSH1 0x5 DUP5 ADD PUSH1 0x0 MSTORE PUSH1 0x20 PUSH1 0x0 KECCAK256 SWAP1 PUSH1 0x0 SWAP4 JUMPDEST PUSH1 0x1F NOT DUP5 AND DUP6 LT PUSH2 0x628 JUMPI PUSH1 0x1 SWAP5 POP DUP4 PUSH1 0x1F NOT DUP2 AND LT PUSH2 0x60F JUMPI JUMPDEST POP POP POP DUP2 SHL ADD PUSH1 0x5 DUP3 ADD SSTORE PUSH2 0x3F3 JUMP JUMPDEST ADD MLOAD PUSH1 0x0 NOT PUSH1 0xF8 DUP5 PUSH1 0x3 SHL AND SHR NOT AND SWAP1 SSTORE DUP7 DUP1 DUP1 PUSH2 0x5FF JUMP JUMPDEST DUP2 DUP2 ADD MLOAD DUP4 SSTORE PUSH1 0x20 SWAP5 DUP6 ADD SWAP5 PUSH1 0x1 SWAP1 SWAP4 ADD SWAP3 SWAP1 SWAP2 ADD SWAP1 PUSH2 0x5E4 JUMP JUMPDEST SWAP1 SWAP2 POP PUSH1 0x5 DUP5 ADD PUSH1 0x0 MSTORE PUSH1 0x20 PUSH1 0x0 KECCAK256 PUSH1 0x1F DUP5 ADD PUSH1 0x5 SHR DUP2 ADD PUSH1 0x20 DUP6 LT PUSH2 0x68F JUMPI JUMPDEST SWAP1 DUP5 SWAP4 SWAP3 SWAP2 JUMPDEST PUSH1 0x1F DUP4 ADD PUSH1 0x5 SHR DUP3 ADD DUP2 LT PUSH2 0x680 JUMPI POP POP PUSH2 0x3C4 JUMP JUMPDEST PUSH1 0x0 DUP2 SSTORE DUP6 SWAP5 POP PUSH1 0x1 ADD PUSH2 0x66A JUMP JUMPDEST POP DUP1 PUSH2 0x664 JUMP JUMPDEST PUSH1 0x40 MLOAD PUSH3 0x461BCD PUSH1 0xE5 SHL DUP2 MSTORE PUSH1 0x20 PUSH1 0x4 DUP3 ADD MSTORE PUSH1 0xF PUSH1 0x24 DUP3 ADD MSTORE PUSH15 0x151C985B9CD9995C8819985A5B1959 PUSH1 0x8A SHL PUSH1 0x44 DUP3 ADD MSTORE PUSH1 0x64 SWAP1 REVERT JUMPDEST PUSH2 0x6EF SWAP2 POP PUSH1 0x20 RETURNDATASIZE PUSH1 0x20 GT PUSH2 0x6F5 JUMPI JUMPDEST PUSH2 0x6E7 DUP2 DUP4 PUSH2 0x26AC JUMP JUMPDEST DUP2 ADD SWAP1 PUSH2 0x291C JUMP JUMPDEST DUP5 PUSH2 0x335 JUMP JUMPDEST POP RETURNDATASIZE PUSH2 0x6DD JUMP JUMPDEST PUSH1 0x40 MLOAD RETURNDATASIZE PUSH1 0x0 DUP3 RETURNDATACOPY RETURNDATASIZE SWAP1 REVERT JUMPDEST PUSH1 0x40 MLOAD PUSH3 0x461BCD PUSH1 0xE5 SHL DUP2 MSTORE PUSH1 0x20 PUSH1 0x4 DUP3 ADD MSTORE PUSH1 0xE PUSH1 0x24 DUP3 ADD MSTORE PUSH14 0x456D707479206372697465726961 PUSH1 0x90 SHL PUSH1 0x44 DUP3 ADD MSTORE PUSH1 0x64 SWAP1 REVERT JUMPDEST PUSH1 0x40 MLOAD PUSH3 0x461BCD PUSH1 0xE5 SHL DUP2 MSTORE PUSH1 0x20 PUSH1 0x4 DUP3 ADD MSTORE PUSH1 0x16 PUSH1 0x24 DUP3 ADD MSTORE PUSH22 0x22B6B83A3C903A30B9B5903232B9B1B934B83A34B7B7 PUSH1 0x51 SHL PUSH1 0x44 DUP3 ADD MSTORE PUSH1 0x64 SWAP1 REVERT JUMPDEST PUSH1 0x40 MLOAD PUSH3 0x461BCD PUSH1 0xE5 SHL DUP2 MSTORE PUSH1 0x20 PUSH1 0x4 DUP3 ADD MSTORE PUSH1 0x10 PUSH1 0x24 DUP3 ADD MSTORE PUSH16 0x2232B0B23634B732903A37B7903330B9 PUSH1 0x81 SHL PUSH1 0x44 DUP3 ADD MSTORE PUSH1 0x64 SWAP1 REVERT JUMPDEST PUSH4 0x4E487B71 PUSH1 0xE0 SHL PUSH1 0x0 MSTORE PUSH1 0x11 PUSH1 0x4 MSTORE PUSH1 0x24 PUSH1 0x0 REVERT JUMPDEST PUSH1 0x40 MLOAD PUSH3 0x461BCD PUSH1 0xE5 SHL DUP2 MSTORE PUSH1 0x20 PUSH1 0x4 DUP3 ADD MSTORE PUSH1 0x11 PUSH1 0x24 DUP3 ADD MSTORE PUSH17 0x2232B0B23634B732903A37B79039B7B7B7 PUSH1 0x79 SHL PUSH1 0x44 DUP3 ADD MSTORE PUSH1 0x64 SWAP1 REVERT JUMPDEST PUSH1 0x40 MLOAD PUSH3 0x461BCD PUSH1 0xE5 SHL DUP2 MSTORE PUSH1 0x20 PUSH1 0x4 DUP3 ADD MSTORE PUSH1 0xF PUSH1 0x24 DUP3 ADD MSTORE PUSH15 0x82DADEEADCE840E8DEDE40D0D2CED PUSH1 0x8B SHL PUSH1 0x44 DUP3 ADD MSTORE PUSH1 0x64 SWAP1 REVERT JUMPDEST PUSH1 0x40 MLOAD PUSH3 0x461BCD PUSH1 0xE5 SHL DUP2 MSTORE PUSH1 0x20 PUSH1 0x4 DUP3 ADD MSTORE PUSH1 0xE PUSH1 0x24 DUP3 ADD MSTORE PUSH14 0x416D6F756E7420746F6F206C6F77 PUSH1 0x90 SHL PUSH1 0x44 DUP3 ADD MSTORE PUSH1 0x64 SWAP1 REVERT JUMPDEST PUSH1 0x40 MLOAD PUSH3 0x461BCD PUSH1 0xE5 SHL DUP2 MSTORE PUSH1 0x20 PUSH1 0x4 DUP3 ADD MSTORE PUSH1 0x14 PUSH1 0x24 DUP3 ADD MSTORE PUSH20 0x21B0B73737BA103434B932903CB7BAB939B2B633 PUSH1 0x61 SHL PUSH1 0x44 DUP3 ADD MSTORE PUSH1 0x64 SWAP1 REVERT JUMPDEST PUSH1 0x40 MLOAD PUSH3 0x461BCD PUSH1 0xE5 SHL DUP2 MSTORE PUSH1 0x20 PUSH1 0x4 DUP3 ADD MSTORE PUSH1 0x16 PUSH1 0x24 DUP3 ADD MSTORE PUSH22 0x496E76616C696420776F726B65722061646472657373 PUSH1 0x50 SHL PUSH1 0x44 DUP3 ADD MSTORE PUSH1 0x64 SWAP1 REVERT JUMPDEST CALLVALUE PUSH2 0x1EA JUMPI PUSH1 0x0 CALLDATASIZE PUSH1 0x3 NOT ADD SLT PUSH2 0x1EA JUMPI PUSH1 0x20 PUSH1 0x40 MLOAD PUSH3 0x93A80 DUP2 MSTORE RETURN JUMPDEST CALLVALUE PUSH2 0x1EA JUMPI PUSH1 0x20 CALLDATASIZE PUSH1 0x3 NOT ADD SLT PUSH2 0x1EA JUMPI PUSH2 0x921 PUSH2 0x2827 JUMP JUMPDEST PUSH2 0x929 PUSH2 0x28E3 JUMP JUMPDEST PUSH1 0x1 PUSH1 0x1 PUSH1 0xA0 SHL SUB SWAP1 DUP2 AND SWAP1 DUP2 ISZERO PUSH2 0x978 JUMPI PUSH1 0x1 SLOAD DUP3 PUSH1 0x1 PUSH1 0x1 PUSH1 0x60 SHL SUB PUSH1 0xA0 SHL DUP3 AND OR PUSH1 0x1 SSTORE AND PUSH32 0x8BE0079C531659141344CD1FD0A4F28419497F9722A3DAAFE3B4186F6B6457E0 PUSH1 0x0 DUP1 LOG3 STOP JUMPDEST PUSH1 0x40 MLOAD PUSH4 0x1E4FBDF7 PUSH1 0xE0 SHL DUP2 MSTORE PUSH1 0x0 PUSH1 0x4 DUP3 ADD MSTORE PUSH1 0x24 SWAP1 REVERT JUMPDEST CALLVALUE PUSH2 0x1EA JUMPI PUSH1 0x20 CALLDATASIZE PUSH1 0x3 NOT ADD SLT PUSH2 0x1EA JUMPI PUSH1 0x1 PUSH1 0x1 PUSH1 0xA0 SHL SUB PUSH2 0x9B2 PUSH2 0x2827 JUMP JUMPDEST AND PUSH1 0x0 MSTORE PUSH1 0xA PUSH1 0x20 MSTORE PUSH1 0x20 PUSH1 0x40 PUSH1 0x0 KECCAK256 SLOAD PUSH1 0x40 MLOAD SWAP1 DUP2 MSTORE RETURN JUMPDEST CALLVALUE PUSH2 0x1EA JUMPI PUSH1 0x20 DUP1 PUSH1 0x3 NOT CALLDATASIZE ADD SLT PUSH2 0x1EA JUMPI PUSH1 0x4 CALLDATALOAD PUSH2 0x9ED PUSH1 0x4 SLOAD DUP3 LT PUSH2 0x29A0 JUMP JUMPDEST DUP1 PUSH1 0x0 MSTORE PUSH1 0x5 DUP3 MSTORE PUSH1 0x1 DUP1 PUSH1 0xA0 SHL SUB SWAP2 PUSH2 0xA12 DUP4 PUSH1 0x1 PUSH1 0x40 PUSH1 0x0 KECCAK256 ADD SLOAD AND CALLER EQ PUSH2 0x2CBD JUMP JUMPDEST DUP2 PUSH1 0x0 MSTORE PUSH1 0x5 DUP2 MSTORE PUSH1 0xFF PUSH1 0x9 PUSH1 0x40 PUSH1 0x0 KECCAK256 ADD SLOAD AND PUSH1 0x7 DUP2 LT ISZERO PUSH2 0xB88 JUMPI PUSH2 0xA39 SWAP1 ISZERO PUSH2 0x29E4 JUMP JUMPDEST PUSH2 0xA41 PUSH2 0x297D JUMP JUMPDEST DUP2 PUSH1 0x0 MSTORE PUSH1 0x5 DUP2 MSTORE PUSH1 0x40 PUSH1 0x0 KECCAK256 SWAP3 PUSH1 0xC DUP5 ADD SLOAD PUSH2 0xB4A JUMPI SWAP1 PUSH2 0xAB8 SWAP2 PUSH1 0x9 DUP6 ADD PUSH1 0x6 PUSH1 0xFF NOT DUP3 SLOAD AND OR SWAP1 SSTORE PUSH1 0x1 PUSH2 0xA81 PUSH1 0x3 DUP8 ADD SLOAD PUSH1 0x4 DUP9 ADD SLOAD SWAP1 PUSH2 0x290F JUMP JUMPDEST SWAP6 ADD DUP1 SLOAD PUSH1 0x40 MLOAD PUSH4 0xA9059CBB PUSH1 0xE0 SHL DUP2 MSTORE SWAP1 DUP4 AND PUSH1 0x1 PUSH1 0x1 PUSH1 0xA0 SHL SUB AND PUSH1 0x4 DUP3 ADD MSTORE PUSH1 0x24 DUP2 ADD DUP8 SWAP1 MSTORE SWAP4 DUP4 SWAP1 DUP6 SWAP1 DUP2 SWAP1 PUSH1 0x44 DUP3 ADD SWAP1 JUMP JUMPDEST SUB DUP2 PUSH1 0x0 DUP7 PUSH32 0x0 AND GAS CALL SWAP4 DUP5 ISZERO PUSH2 0x6FC JUMPI PUSH32 0xEAC97BC1917FCEDC984E3D0671D4E83B359890323D5D1C2DE32B28D17C356CED SWAP5 PUSH2 0xB1C SWAP2 PUSH1 0x0 SWAP2 PUSH2 0xB2D JUMPI JUMPDEST POP PUSH2 0x2D35 JUMP JUMPDEST SLOAD AND SWAP4 PUSH1 0x40 MLOAD SWAP1 DUP2 MSTORE LOG3 PUSH1 0x1 PUSH1 0x0 SSTORE STOP JUMPDEST PUSH2 0xB44 SWAP2 POP DUP6 RETURNDATASIZE DUP8 GT PUSH2 0x6F5 JUMPI PUSH2 0x6E7 DUP2 DUP4 PUSH2 0x26AC JUMP JUMPDEST DUP9 PUSH2 0xB16 JUMP JUMPDEST PUSH1 0x40 MLOAD PUSH3 0x461BCD PUSH1 0xE5 SHL DUP2 MSTORE PUSH1 0x4 DUP2 ADD DUP4 SWAP1 MSTORE PUSH1 0x16 PUSH1 0x24 DUP3 ADD MSTORE PUSH22 0x15DBDC9AC8185B1C9958591E481CDD589B5A5D1D1959 PUSH1 0x52 SHL PUSH1 0x44 DUP3 ADD MSTORE PUSH1 0x64 SWAP1 REVERT JUMPDEST PUSH4 0x4E487B71 PUSH1 0xE0 SHL PUSH1 0x0 MSTORE PUSH1 0x21 PUSH1 0x4 MSTORE PUSH1 0x24 PUSH1 0x0 REVERT JUMPDEST CALLVALUE PUSH2 0x1EA JUMPI PUSH1 0x0 CALLDATASIZE PUSH1 0x3 NOT ADD SLT PUSH2 0x1EA JUMPI PUSH2 0xBB7 PUSH2 0x28E3 JUMP JUMPDEST PUSH1 0x40 MLOAD PUSH4 0x70A08231 PUSH1 0xE0 SHL DUP2 MSTORE ADDRESS PUSH1 0x4 DUP3 ADD MSTORE PUSH1 0x20 SWAP1 PUSH1 0x1 PUSH1 0x1 PUSH1 0xA0 SHL SUB PUSH32 0x0 DUP2 AND SWAP2 SWAP1 DUP4 DUP3 PUSH1 0x24 DUP2 DUP7 GAS STATICCALL SWAP1 DUP2 ISZERO PUSH2 0x6FC JUMPI DUP5 SWAP3 PUSH1 0x0 SWAP3 PUSH2 0xCB6 JUMPI JUMPDEST POP PUSH1 0x1 SLOAD PUSH1 0x40 MLOAD PUSH4 0xA9059CBB PUSH1 0xE0 SHL DUP2 MSTORE SWAP2 AND PUSH1 0x1 PUSH1 0x1 PUSH1 0xA0 SHL SUB AND PUSH1 0x4 DUP3 ADD MSTORE PUSH1 0x24 DUP2 ADD SWAP2 SWAP1 SWAP2 MSTORE SWAP2 DUP3 SWAP1 DUP2 PUSH1 0x0 DUP2 PUSH1 0x44 DUP2 ADD JUMPDEST SUB SWAP3 GAS CALL SWAP1 DUP2 ISZERO PUSH2 0x6FC JUMPI PUSH1 0x0 SWAP2 PUSH2 0xC99 JUMPI JUMPDEST POP ISZERO PUSH2 0xC63 JUMPI STOP JUMPDEST PUSH1 0x64 SWAP1 PUSH1 0x40 MLOAD SWAP1 PUSH3 0x461BCD PUSH1 0xE5 SHL DUP3 MSTORE PUSH1 0x4 DUP3 ADD MSTORE PUSH1 0xF PUSH1 0x24 DUP3 ADD MSTORE PUSH15 0x15DA5D1A191C985DC819985A5B1959 PUSH1 0x8A SHL PUSH1 0x44 DUP3 ADD MSTORE REVERT JUMPDEST PUSH2 0xCB0 SWAP2 POP DUP3 RETURNDATASIZE DUP5 GT PUSH2 0x6F5 JUMPI PUSH2 0x6E7 DUP2 DUP4 PUSH2 0x26AC JUMP JUMPDEST DUP3 PUSH2 0xC5B JUMP JUMPDEST DUP4 DUP2 SWAP5 SWAP3 SWAP4 POP RETURNDATASIZE DUP4 GT PUSH2 0xCE2 JUMPI JUMPDEST PUSH2 0xCCE DUP2 DUP4 PUSH2 0x26AC JUMP JUMPDEST DUP2 ADD SUB SLT PUSH2 0x1EA JUMPI SWAP1 MLOAD DUP4 SWAP2 PUSH2 0xC48 PUSH2 0xC13 JUMP JUMPDEST POP RETURNDATASIZE PUSH2 0xCC4 JUMP JUMPDEST CALLVALUE PUSH2 0x1EA JUMPI PUSH1 0x20 DUP1 PUSH1 0x3 NOT CALLDATASIZE ADD SLT PUSH2 0x1EA JUMPI PUSH1 0x1 PUSH1 0x1 PUSH1 0xA0 SHL SUB PUSH2 0xD0B PUSH2 0x2827 JUMP JUMPDEST AND PUSH1 0x0 MSTORE PUSH1 0x8 DUP2 MSTORE PUSH1 0x40 PUSH1 0x0 KECCAK256 SWAP1 PUSH1 0x40 MLOAD SWAP1 DUP2 DUP2 DUP5 SLOAD SWAP2 DUP3 DUP2 MSTORE ADD SWAP4 PUSH1 0x0 MSTORE DUP2 PUSH1 0x0 KECCAK256 SWAP2 PUSH1 0x0 SWAP1 JUMPDEST DUP3 DUP3 LT PUSH2 0xD5A JUMPI PUSH2 0xD56 DUP6 PUSH2 0xD4A DUP2 DUP10 SUB DUP3 PUSH2 0x26AC JUMP JUMPDEST PUSH1 0x40 MLOAD SWAP2 DUP3 SWAP2 DUP3 PUSH2 0x283D JUMP JUMPDEST SUB SWAP1 RETURN JUMPDEST DUP4 SLOAD DUP7 MSTORE SWAP5 DUP6 ADD SWAP5 PUSH1 0x1 SWAP4 DUP5 ADD SWAP4 SWAP1 SWAP2 ADD SWAP1 PUSH2 0xD33 JUMP JUMPDEST CALLVALUE PUSH2 0x1EA JUMPI PUSH1 0x40 CALLDATASIZE PUSH1 0x3 NOT ADD SLT PUSH2 0x1EA JUMPI PUSH2 0xD8A PUSH2 0x2827 JUMP JUMPDEST PUSH1 0x1 PUSH1 0x1 PUSH1 0xA0 SHL SUB AND PUSH1 0x0 SWAP1 DUP2 MSTORE PUSH1 0x8 PUSH1 0x20 MSTORE PUSH1 0x40 SWAP1 KECCAK256 DUP1 SLOAD PUSH1 0x24 CALLDATALOAD SWAP2 SWAP1 DUP3 LT ISZERO PUSH2 0x1EA JUMPI PUSH1 0x20 SWAP2 PUSH2 0xDBB SWAP2 PUSH2 0x28B5 JUMP JUMPDEST SWAP1 SLOAD PUSH1 0x40 MLOAD SWAP2 PUSH1 0x3 SHL SHR DUP2 MSTORE RETURN JUMPDEST CALLVALUE PUSH2 0x1EA JUMPI PUSH1 0x0 CALLDATASIZE PUSH1 0x3 NOT ADD SLT PUSH2 0x1EA JUMPI PUSH1 0x20 PUSH1 0x4 SLOAD PUSH1 0x40 MLOAD SWAP1 DUP2 MSTORE RETURN JUMPDEST CALLVALUE PUSH2 0x1EA JUMPI PUSH1 0x0 CALLDATASIZE PUSH1 0x3 NOT ADD SLT PUSH2 0x1EA JUMPI PUSH1 0x3 SLOAD PUSH1 0x40 MLOAD PUSH1 0x1 PUSH1 0x1 PUSH1 0xA0 SHL SUB SWAP1 SWAP2 AND DUP2 MSTORE PUSH1 0x20 SWAP1 RETURN JUMPDEST CALLVALUE PUSH2 0x1EA JUMPI PUSH1 0x20 DUP1 PUSH1 0x3 NOT CALLDATASIZE ADD SLT PUSH2 0x1EA JUMPI PUSH1 0x4 CALLDATALOAD SWAP1 PUSH2 0xE33 PUSH1 0x4 SLOAD DUP4 LT PUSH2 0x29A0 JUMP JUMPDEST PUSH2 0xE3B PUSH2 0x297D JUMP JUMPDEST DUP2 PUSH1 0x0 MSTORE PUSH1 0x6 DUP2 MSTORE PUSH1 0x40 PUSH1 0x0 KECCAK256 DUP1 SLOAD SWAP2 PUSH2 0xE57 PUSH1 0xFF DUP5 AND PUSH2 0x2D71 JUMP JUMPDEST PUSH1 0x1 DUP3 ADD SLOAD PUSH3 0x93A80 DUP2 ADD DUP1 SWAP2 GT PUSH2 0x7B4 JUMPI TIMESTAMP GT ISZERO PUSH2 0x1145 JUMPI DUP4 PUSH1 0x0 MSTORE PUSH1 0x5 DUP2 MSTORE PUSH1 0x40 PUSH1 0x0 KECCAK256 SWAP1 PUSH1 0xFF NOT DUP1 SWAP5 AND DUP4 SSTORE PUSH1 0x3 DUP3 ADD SLOAD PUSH1 0x4 DUP4 ADD SWAP1 PUSH2 0xE9B DUP3 SLOAD DUP3 PUSH2 0x290F JUMP JUMPDEST SWAP5 PUSH1 0x5 PUSH1 0x4 DUP3 ADD SLOAD SWAP2 ADD SLOAD LT PUSH1 0x0 EQ PUSH2 0xF9A JUMPI POP POP PUSH1 0x1 DUP3 ADD SLOAD PUSH1 0x9 SWAP1 SWAP3 ADD DUP1 SLOAD SWAP5 SWAP1 SWAP5 AND PUSH1 0x5 OR SWAP1 SWAP4 SSTORE PUSH1 0x40 MLOAD PUSH4 0xA9059CBB PUSH1 0xE0 SHL DUP2 MSTORE PUSH1 0x1 PUSH1 0x1 PUSH1 0xA0 SHL SUB SWAP2 DUP3 AND PUSH1 0x4 DUP3 ADD DUP2 SWAP1 MSTORE PUSH1 0x24 DUP3 ADD DUP5 SWAP1 MSTORE SWAP1 SWAP4 SWAP1 SWAP2 DUP2 SWAP1 DUP6 SWAP1 PUSH1 0x44 SWAP1 DUP3 SWAP1 PUSH1 0x0 SWAP1 PUSH32 0x0 AND GAS CALL DUP1 ISZERO PUSH2 0x6FC JUMPI PUSH32 0xDF0BAF5489595EA17A097D16827D60793E2F57F3B85A982E5D7E02838B841EE6 SWAP5 PUSH2 0xF5B SWAP3 PUSH1 0x0 SWAP3 PUSH2 0xF7D JUMPI JUMPDEST POP POP PUSH2 0x2D35 JUMP JUMPDEST PUSH1 0x40 DUP1 MLOAD PUSH1 0x1 PUSH1 0x1 PUSH1 0xA0 SHL SUB SWAP3 SWAP1 SWAP3 AND DUP3 MSTORE PUSH1 0x20 DUP3 ADD SWAP3 SWAP1 SWAP3 MSTORE LOG2 PUSH1 0x1 PUSH1 0x0 SSTORE STOP JUMPDEST PUSH2 0xF93 SWAP3 POP DUP1 RETURNDATASIZE LT PUSH2 0x6F5 JUMPI PUSH2 0x6E7 DUP2 DUP4 PUSH2 0x26AC JUMP JUMPDEST DUP7 DUP1 PUSH2 0xF54 JUMP JUMPDEST PUSH1 0x2 DUP5 ADD SLOAD PUSH1 0x9 SWAP1 SWAP5 ADD DUP1 SLOAD PUSH1 0x4 SWAP8 AND DUP8 OR SWAP1 SSTORE PUSH1 0x40 MLOAD PUSH4 0xA9059CBB PUSH1 0xE0 SHL DUP1 DUP3 MSTORE PUSH1 0x1 PUSH1 0x1 PUSH1 0xA0 SHL SUB SWAP6 DUP7 AND SWAP8 DUP3 ADD DUP9 SWAP1 MSTORE PUSH1 0x24 DUP3 ADD SWAP3 SWAP1 SWAP3 MSTORE SWAP3 SWAP7 SWAP6 SWAP4 SWAP3 PUSH32 0x0 DUP5 AND SWAP3 SWAP1 DUP9 DUP2 DUP1 PUSH1 0x44 DUP2 ADD SUB DUP2 PUSH1 0x0 DUP9 GAS CALL SWAP1 DUP2 ISZERO PUSH2 0x6FC JUMPI PUSH1 0x0 SWAP2 PUSH2 0x1128 JUMPI JUMPDEST POP ISZERO PUSH2 0x10F2 JUMPI SLOAD SWAP3 DUP4 PUSH2 0x1057 JUMPI JUMPDEST POP POP POP POP PUSH32 0xDF0BAF5489595EA17A097D16827D60793E2F57F3B85A982E5D7E02838B841EE6 SWAP3 SWAP4 POP PUSH2 0xF5B JUMP JUMPDEST PUSH1 0x3 SLOAD PUSH1 0x40 MLOAD SWAP3 DUP4 MSTORE AND PUSH1 0x1 PUSH1 0x1 PUSH1 0xA0 SHL SUB AND PUSH1 0x4 DUP3 ADD MSTORE PUSH1 0x24 DUP2 ADD SWAP3 SWAP1 SWAP3 MSTORE DUP6 SWAP1 DUP3 SWAP1 PUSH1 0x44 SWAP1 DUP3 SWAP1 PUSH1 0x0 SWAP1 GAS CALL SWAP1 DUP2 ISZERO PUSH2 0x6FC JUMPI PUSH1 0x0 SWAP2 PUSH2 0x10D5 JUMPI JUMPDEST POP ISZERO PUSH2 0x10A3 JUMPI DUP4 DUP1 DUP1 DUP1 PUSH2 0x102A JUMP JUMPDEST PUSH1 0x40 MLOAD PUSH3 0x461BCD PUSH1 0xE5 SHL DUP2 MSTORE PUSH1 0x4 DUP2 ADD DUP6 SWAP1 MSTORE PUSH1 0xA PUSH1 0x24 DUP3 ADD MSTORE PUSH10 0x1199594819985A5B1959 PUSH1 0xB2 SHL PUSH1 0x44 DUP3 ADD MSTORE PUSH1 0x64 SWAP1 REVERT JUMPDEST PUSH2 0x10EC SWAP2 POP DUP6 RETURNDATASIZE DUP8 GT PUSH2 0x6F5 JUMPI PUSH2 0x6E7 DUP2 DUP4 PUSH2 0x26AC JUMP JUMPDEST DUP6 PUSH2 0x1094 JUMP JUMPDEST PUSH1 0x40 MLOAD PUSH3 0x461BCD PUSH1 0xE5 SHL DUP2 MSTORE PUSH1 0x4 DUP2 ADD DUP10 SWAP1 MSTORE PUSH1 0xE PUSH1 0x24 DUP3 ADD MSTORE PUSH14 0x14185E5B595B9D0819985A5B1959 PUSH1 0x92 SHL PUSH1 0x44 DUP3 ADD MSTORE PUSH1 0x64 SWAP1 REVERT JUMPDEST PUSH2 0x113F SWAP2 POP DUP10 RETURNDATASIZE DUP12 GT PUSH2 0x6F5 JUMPI PUSH2 0x6E7 DUP2 DUP4 PUSH2 0x26AC JUMP JUMPDEST DUP10 PUSH2 0x101C JUMP JUMPDEST PUSH1 0x64 SWAP1 PUSH1 0x40 MLOAD SWAP1 PUSH3 0x461BCD PUSH1 0xE5 SHL DUP3 MSTORE PUSH1 0x4 DUP3 ADD MSTORE PUSH1 0x17 PUSH1 0x24 DUP3 ADD MSTORE PUSH32 0x566F74696E6720706572696F64206E6F7420656E646564000000000000000000 PUSH1 0x44 DUP3 ADD MSTORE REVERT JUMPDEST CALLVALUE PUSH2 0x1EA JUMPI PUSH1 0x40 CALLDATASIZE PUSH1 0x3 NOT ADD SLT PUSH2 0x1EA JUMPI PUSH1 0x4 CALLDATALOAD PUSH2 0x11A5 PUSH2 0x27C1 JUMP JUMPDEST PUSH2 0x11B2 PUSH1 0x4 SLOAD DUP4 LT PUSH2 0x29A0 JUMP JUMPDEST DUP2 PUSH1 0x0 MSTORE PUSH1 0x20 SWAP2 PUSH1 0x6 DUP4 MSTORE PUSH1 0x40 PUSH1 0x0 KECCAK256 SWAP3 PUSH2 0x11D0 PUSH1 0xFF DUP6 SLOAD AND PUSH2 0x2D71 JUMP JUMPDEST PUSH1 0x6 DUP5 ADD SWAP2 CALLER PUSH1 0x0 MSTORE DUP3 DUP3 MSTORE PUSH1 0xFF PUSH1 0x40 PUSH1 0x0 KECCAK256 SLOAD AND PUSH2 0x12A7 JUMPI PUSH1 0x0 SWAP1 DUP2 MSTORE PUSH1 0x5 DUP3 MSTORE PUSH1 0x40 SWAP1 KECCAK256 PUSH1 0x1 DUP2 ADD SLOAD CALLER PUSH1 0x1 PUSH1 0x1 PUSH1 0xA0 SHL SUB SWAP2 DUP3 AND EQ ISZERO SWAP2 DUP3 PUSH2 0x1295 JUMPI JUMPDEST POP POP ISZERO PUSH2 0x1251 JUMPI CALLER PUSH1 0x0 MSTORE MSTORE PUSH1 0x40 PUSH1 0x0 KECCAK256 PUSH1 0x1 PUSH1 0xFF NOT DUP3 SLOAD AND OR SWAP1 SSTORE PUSH1 0x0 EQ PUSH2 0x1244 JUMPI PUSH1 0x4 ADD PUSH2 0x1240 DUP2 SLOAD PUSH2 0x2934 JUMP JUMPDEST SWAP1 SSTORE STOP JUMPDEST PUSH1 0x5 ADD PUSH2 0x1240 DUP2 SLOAD PUSH2 0x2934 JUMP JUMPDEST PUSH1 0x64 SWAP1 PUSH1 0x40 MLOAD SWAP1 PUSH3 0x461BCD PUSH1 0xE5 SHL DUP3 MSTORE PUSH1 0x4 DUP3 ADD MSTORE PUSH1 0x1A PUSH1 0x24 DUP3 ADD MSTORE PUSH32 0x43616E6E6F7420766F7465206F6E206F776E2064697370757465000000000000 PUSH1 0x44 DUP3 ADD MSTORE REVERT JUMPDEST PUSH1 0x2 SWAP2 SWAP3 POP ADD SLOAD AND CALLER EQ ISZERO DUP6 DUP1 PUSH2 0x1210 JUMP JUMPDEST PUSH1 0x40 MLOAD PUSH3 0x461BCD PUSH1 0xE5 SHL DUP2 MSTORE PUSH1 0x4 DUP2 ADD DUP4 SWAP1 MSTORE PUSH1 0xD PUSH1 0x24 DUP3 ADD MSTORE PUSH13 0x105B1C9958591E481D9BDD1959 PUSH1 0x9A SHL PUSH1 0x44 DUP3 ADD MSTORE PUSH1 0x64 SWAP1 REVERT JUMPDEST CALLVALUE PUSH2 0x1EA JUMPI PUSH1 0x20 CALLDATASIZE PUSH1 0x3 NOT ADD SLT PUSH2 0x1EA JUMPI PUSH2 0x12F5 PUSH2 0x2827 JUMP JUMPDEST PUSH2 0x12FD PUSH2 0x28E3 JUMP JUMPDEST PUSH1 0x1 PUSH1 0x1 PUSH1 0xA0 SHL SUB AND PUSH2 0x1311 DUP2 ISZERO ISZERO PUSH2 0x2E3E JUMP JUMPDEST PUSH1 0x1 PUSH1 0x1 PUSH1 0x60 SHL SUB PUSH1 0xA0 SHL PUSH1 0x3 SLOAD AND OR PUSH1 0x3 SSTORE PUSH1 0x0 DUP1 RETURN JUMPDEST CALLVALUE PUSH2 0x1EA JUMPI PUSH1 0x20 CALLDATASIZE PUSH1 0x3 NOT ADD SLT PUSH2 0x1EA JUMPI PUSH1 0x1 PUSH1 0x1 PUSH1 0xA0 SHL SUB PUSH2 0x134A PUSH2 0x2827 JUMP JUMPDEST AND PUSH1 0x0 MSTORE PUSH1 0x9 PUSH1 0x20 MSTORE PUSH1 0x20 PUSH1 0x40 PUSH1 0x0 KECCAK256 SLOAD PUSH1 0x40 MLOAD SWAP1 DUP2 MSTORE RETURN JUMPDEST CALLVALUE PUSH2 0x1EA JUMPI PUSH1 0x40 CALLDATASIZE PUSH1 0x3 NOT ADD SLT PUSH2 0x1EA JUMPI PUSH2 0x137C PUSH2 0x2827 JUMP JUMPDEST PUSH1 0x1 PUSH1 0x1 PUSH1 0xA0 SHL SUB AND PUSH1 0x0 SWAP1 DUP2 MSTORE PUSH1 0x7 PUSH1 0x20 MSTORE PUSH1 0x40 SWAP1 KECCAK256 DUP1 SLOAD PUSH1 0x24 CALLDATALOAD SWAP2 SWAP1 DUP3 LT ISZERO PUSH2 0x1EA JUMPI PUSH1 0x20 SWAP2 PUSH2 0xDBB SWAP2 PUSH2 0x28B5 JUMP JUMPDEST CALLVALUE PUSH2 0x1EA JUMPI PUSH1 0x0 CALLDATASIZE PUSH1 0x3 NOT ADD SLT PUSH2 0x1EA JUMPI PUSH1 0x20 PUSH1 0x40 MLOAD PUSH3 0xF4240 DUP2 MSTORE RETURN JUMPDEST CALLVALUE PUSH2 0x1EA JUMPI PUSH1 0x0 CALLDATASIZE PUSH1 0x3 NOT ADD SLT PUSH2 0x1EA JUMPI PUSH1 0x1 SLOAD PUSH1 0x40 MLOAD PUSH1 0x1 PUSH1 0x1 PUSH1 0xA0 SHL SUB SWAP1 SWAP2 AND DUP2 MSTORE PUSH1 0x20 SWAP1 RETURN JUMPDEST CALLVALUE PUSH2 0x1EA JUMPI PUSH1 0x0 CALLDATASIZE PUSH1 0x3 NOT ADD SLT PUSH2 0x1EA JUMPI PUSH1 0x40 MLOAD PUSH32 0x0 PUSH1 0x1 PUSH1 0x1 PUSH1 0xA0 SHL SUB AND DUP2 MSTORE PUSH1 0x20 SWAP1 RETURN JUMPDEST CALLVALUE PUSH2 0x1EA JUMPI PUSH1 0x0 CALLDATASIZE PUSH1 0x3 NOT ADD SLT PUSH2 0x1EA JUMPI PUSH1 0x20 PUSH1 0x40 MLOAD PUSH2 0xE10 DUP2 MSTORE RETURN JUMPDEST CALLVALUE PUSH2 0x1EA JUMPI PUSH1 0x20 CALLDATASIZE PUSH1 0x3 NOT ADD SLT PUSH2 0x1EA JUMPI PUSH1 0x4 CALLDATALOAD PUSH2 0x1477 PUSH1 0x4 SLOAD DUP3 LT PUSH2 0x29A0 JUMP JUMPDEST DUP1 PUSH1 0x0 MSTORE PUSH1 0x5 PUSH1 0x20 MSTORE PUSH2 0x149B PUSH1 0x1 DUP1 PUSH1 0xA0 SHL SUB PUSH1 0x1 PUSH1 0x40 PUSH1 0x0 KECCAK256 ADD SLOAD AND CALLER EQ PUSH2 0x2CBD JUMP JUMPDEST PUSH2 0x14A3 PUSH2 0x297D JUMP JUMPDEST DUP1 PUSH1 0x0 MSTORE PUSH1 0x5 PUSH1 0x20 MSTORE PUSH1 0x9 PUSH1 0x40 PUSH1 0x0 KECCAK256 ADD SWAP1 DUP2 SLOAD SWAP2 PUSH1 0xFF DUP4 AND PUSH1 0x7 DUP2 LT ISZERO PUSH2 0xB88 JUMPI PUSH2 0x14EB SWAP4 PUSH2 0x14DF DUP3 PUSH1 0x2 SWAP4 ISZERO SWAP1 DUP2 ISZERO PUSH2 0x14F2 JUMPI JUMPDEST POP PUSH2 0x29E4 JUMP JUMPDEST PUSH1 0xFF NOT AND OR SWAP1 SSTORE PUSH2 0x2A20 JUMP JUMPDEST PUSH1 0x1 PUSH1 0x0 SSTORE STOP JUMPDEST PUSH1 0x1 SWAP2 POP EQ DUP8 PUSH2 0x14D9 JUMP JUMPDEST CALLVALUE PUSH2 0x1EA JUMPI PUSH1 0x20 CALLDATASIZE PUSH1 0x3 NOT ADD SLT PUSH2 0x1EA JUMPI PUSH1 0x0 PUSH2 0x1E0 PUSH1 0x40 MLOAD PUSH2 0x151F DUP2 PUSH2 0x268F JUMP JUMPDEST DUP3 DUP2 MSTORE DUP3 PUSH1 0x20 DUP3 ADD MSTORE DUP3 PUSH1 0x40 DUP3 ADD MSTORE DUP3 PUSH1 0x60 DUP3 ADD MSTORE DUP3 PUSH1 0x80 DUP3 ADD MSTORE PUSH1 0x60 PUSH1 0xA0 DUP3 ADD MSTORE PUSH1 0x60 PUSH1 0xC0 DUP3 ADD MSTORE DUP3 PUSH1 0xE0 DUP3 ADD MSTORE PUSH1 0x60 PUSH2 0x100 DUP3 ADD MSTORE DUP3 PUSH2 0x120 DUP3 ADD MSTORE DUP3 PUSH2 0x140 DUP3 ADD MSTORE DUP3 PUSH2 0x160 DUP3 ADD MSTORE DUP3 PUSH2 0x180 DUP3 ADD MSTORE DUP3 PUSH2 0x1A0 DUP3 ADD MSTORE PUSH1 0x60 PUSH2 0x1C0 DUP3 ADD MSTORE ADD MSTORE PUSH1 0x4 CALLDATALOAD PUSH1 0x0 MSTORE PUSH1 0x5 PUSH1 0x20 MSTORE PUSH1 0x40 PUSH1 0x0 KECCAK256 PUSH1 0x40 MLOAD SWAP1 PUSH2 0x15A0 DUP3 PUSH2 0x268F JUMP JUMPDEST DUP1 SLOAD DUP3 MSTORE PUSH1 0x1 DUP2 ADD SLOAD PUSH1 0x1 PUSH1 0x1 PUSH1 0xA0 SHL SUB SWAP1 DUP2 AND PUSH1 0x20 DUP5 ADD MSTORE PUSH1 0x2 DUP3 ADD SLOAD AND PUSH1 0x40 DUP4 ADD MSTORE PUSH1 0x3 DUP2 ADD SLOAD PUSH1 0x60 DUP4 ADD MSTORE PUSH1 0x4 DUP2 ADD SLOAD PUSH1 0x80 DUP4 ADD MSTORE PUSH2 0x15E4 PUSH1 0x5 DUP3 ADD PUSH2 0x26CE JUMP JUMPDEST PUSH1 0xA0 DUP4 ADD MSTORE PUSH2 0x15F5 PUSH1 0x6 DUP3 ADD PUSH2 0x26CE JUMP JUMPDEST PUSH1 0xC0 DUP4 ADD MSTORE PUSH1 0x7 DUP2 ADD SLOAD PUSH1 0xE0 DUP4 ADD MSTORE PUSH2 0x1610 PUSH1 0x8 DUP3 ADD PUSH2 0x26CE JUMP JUMPDEST PUSH2 0x100 DUP4 ADD MSTORE PUSH1 0xFF PUSH1 0x9 DUP3 ADD SLOAD AND SWAP1 PUSH1 0x7 DUP3 LT ISZERO PUSH2 0xB88 JUMPI PUSH1 0xF SWAP2 PUSH2 0x120 DUP5 ADD MSTORE PUSH1 0xA DUP2 ADD SLOAD PUSH2 0x140 DUP5 ADD MSTORE PUSH1 0xB DUP2 ADD SLOAD PUSH2 0x160 DUP5 ADD MSTORE PUSH1 0xC DUP2 ADD SLOAD PUSH2 0x180 DUP5 ADD MSTORE PUSH1 0xFF PUSH1 0xD DUP3 ADD SLOAD AND ISZERO ISZERO PUSH2 0x1A0 DUP5 ADD MSTORE PUSH2 0x166E PUSH1 0xE DUP3 ADD PUSH2 0x26CE JUMP JUMPDEST PUSH2 0x1C0 DUP5 ADD MSTORE ADD SLOAD PUSH2 0x1E0 DUP3 ADD MSTORE PUSH1 0x40 MLOAD DUP1 SWAP2 PUSH1 0x20 DUP3 MSTORE DUP1 MLOAD PUSH1 0x20 DUP4 ADD MSTORE PUSH1 0x1 DUP1 PUSH1 0xA0 SHL SUB PUSH1 0x20 DUP3 ADD MLOAD AND PUSH1 0x40 DUP4 ADD MSTORE PUSH1 0x1 DUP1 PUSH1 0xA0 SHL SUB PUSH1 0x40 DUP3 ADD MLOAD AND PUSH1 0x60 DUP4 ADD MSTORE PUSH1 0x60 DUP2 ADD MLOAD PUSH1 0x80 DUP4 ADD MSTORE PUSH1 0x80 DUP2 ADD MLOAD PUSH1 0xA0 DUP4 ADD MSTORE PUSH2 0x1E0 PUSH2 0x1780 PUSH2 0x1724 PUSH2 0x1701 PUSH2 0x16EB PUSH1 0xA0 DUP7 ADD MLOAD PUSH2 0x200 PUSH1 0xC0 DUP10 ADD MSTORE PUSH2 0x220 DUP9 ADD SWAP1 PUSH2 0x2774 JUMP JUMPDEST PUSH1 0xC0 DUP7 ADD MLOAD DUP8 DUP3 SUB PUSH1 0x1F NOT ADD PUSH1 0xE0 DUP10 ADD MSTORE PUSH2 0x2774 JUMP JUMPDEST PUSH1 0xE0 DUP6 ADD MLOAD PUSH2 0x100 DUP8 ADD MSTORE PUSH2 0x100 DUP6 ADD MLOAD PUSH1 0x1F NOT DUP8 DUP4 SUB ADD PUSH2 0x120 DUP9 ADD MSTORE PUSH2 0x2774 JUMP JUMPDEST PUSH2 0x1738 PUSH2 0x120 DUP6 ADD MLOAD PUSH2 0x140 DUP8 ADD SWAP1 PUSH2 0x27B4 JUMP JUMPDEST PUSH2 0x140 DUP5 ADD MLOAD PUSH2 0x160 DUP7 ADD MSTORE PUSH2 0x160 DUP5 ADD MLOAD PUSH2 0x180 DUP7 ADD MSTORE PUSH2 0x180 DUP5 ADD MLOAD PUSH2 0x1A0 DUP7 ADD MSTORE PUSH2 0x1A0 DUP5 ADD MLOAD ISZERO ISZERO PUSH2 0x1C0 DUP7 ADD MSTORE PUSH2 0x1C0 DUP5 ADD MLOAD PUSH1 0x1F NOT DUP7 DUP4 SUB ADD DUP5 DUP8 ADD MSTORE PUSH2 0x2774 JUMP JUMPDEST SWAP2 ADD MLOAD PUSH2 0x200 DUP4 ADD MSTORE SUB SWAP1 RETURN JUMPDEST CALLVALUE PUSH2 0x1EA JUMPI PUSH1 0x0 CALLDATASIZE PUSH1 0x3 NOT ADD SLT PUSH2 0x1EA JUMPI PUSH2 0x17A6 PUSH2 0x28E3 JUMP JUMPDEST PUSH1 0x1 DUP1 SLOAD PUSH1 0x1 PUSH1 0x1 PUSH1 0xA0 SHL SUB NOT DUP2 AND SWAP1 SWAP2 SSTORE PUSH1 0x0 SWAP1 PUSH1 0x1 PUSH1 0x1 PUSH1 0xA0 SHL SUB AND PUSH32 0x8BE0079C531659141344CD1FD0A4F28419497F9722A3DAAFE3B4186F6B6457E0 DUP3 DUP1 LOG3 STOP JUMPDEST CALLVALUE PUSH2 0x1EA JUMPI PUSH1 0x0 CALLDATASIZE PUSH1 0x3 NOT ADD SLT PUSH2 0x1EA JUMPI PUSH1 0x20 PUSH1 0x40 MLOAD PUSH3 0x76A700 DUP2 MSTORE RETURN JUMPDEST CALLVALUE PUSH2 0x1EA JUMPI PUSH1 0x0 CALLDATASIZE PUSH1 0x3 NOT ADD SLT PUSH2 0x1EA JUMPI PUSH1 0x2 SLOAD PUSH1 0x40 MLOAD PUSH1 0x1 PUSH1 0x1 PUSH1 0xA0 SHL SUB SWAP1 SWAP2 AND DUP2 MSTORE PUSH1 0x20 SWAP1 RETURN JUMPDEST CALLVALUE PUSH2 0x1EA JUMPI PUSH1 0x60 CALLDATASIZE PUSH1 0x3 NOT ADD SLT PUSH2 0x1EA JUMPI PUSH8 0xFFFFFFFFFFFFFFFF PUSH1 0x4 CALLDATALOAD PUSH1 0x24 DUP1 CALLDATALOAD SWAP1 PUSH1 0x44 CALLDATALOAD DUP5 DUP2 GT PUSH2 0x1EA JUMPI PUSH2 0x186B SWAP1 CALLDATASIZE SWAP1 PUSH1 0x4 ADD PUSH2 0x27D0 JUMP JUMPDEST SWAP4 PUSH2 0x1879 PUSH1 0x4 SLOAD DUP6 LT PUSH2 0x29A0 JUMP JUMPDEST DUP4 PUSH1 0x0 MSTORE PUSH1 0x20 SWAP2 PUSH1 0x5 DUP4 MSTORE PUSH1 0x1 DUP1 PUSH1 0xA0 SHL SUB PUSH1 0x2 PUSH1 0x40 PUSH1 0x0 KECCAK256 ADD SLOAD AND CALLER SUB PUSH2 0x1B4C JUMPI DUP5 PUSH1 0x0 MSTORE PUSH1 0x5 DUP4 MSTORE PUSH1 0xFF PUSH1 0x9 PUSH1 0x40 PUSH1 0x0 KECCAK256 ADD SLOAD AND PUSH1 0x7 DUP2 LT ISZERO PUSH2 0x1B37 JUMPI PUSH2 0x18C2 SWAP1 ISZERO PUSH2 0x29E4 JUMP JUMPDEST PUSH2 0x18CA PUSH2 0x297D JUMP JUMPDEST DUP5 PUSH1 0x0 MSTORE PUSH1 0x5 DUP4 MSTORE PUSH1 0x40 PUSH1 0x0 KECCAK256 SWAP2 PUSH1 0xB DUP4 ADD SLOAD TIMESTAMP GT PUSH2 0x1B01 JUMPI DUP5 ISZERO PUSH2 0x1AC9 JUMPI DUP7 MLOAD ISZERO PUSH2 0x1A94 JUMPI DUP5 PUSH1 0x7 DUP5 ADD SSTORE PUSH1 0x8 DUP4 ADD SWAP2 DUP8 MLOAD SWAP2 DUP3 GT PUSH2 0x1A80 JUMPI POP PUSH2 0x190F DUP3 SLOAD PUSH2 0x2655 JUMP JUMPDEST PUSH1 0x1F DUP2 GT PUSH2 0x1A3A JUMPI JUMPDEST POP DUP4 PUSH1 0x1F DUP3 GT PUSH1 0x1 EQ PUSH2 0x19AC JUMPI SWAP3 PUSH32 0x4EDDD05DECDC6D6AAB51B897AB47AC4C0A8FDD8D59C39DC16A487B40ADF4E1D2 SWAP6 SWAP5 SWAP3 DUP3 PUSH1 0x9 SWAP4 PUSH1 0x40 SWAP7 PUSH1 0x0 SWAP2 PUSH2 0x19A1 JUMPI JUMPDEST POP DUP2 PUSH1 0x1 SHL SWAP2 PUSH1 0x0 NOT SWAP1 PUSH1 0x3 SHL SHR NOT AND OR SWAP1 SSTORE JUMPDEST TIMESTAMP PUSH1 0xC DUP3 ADD SSTORE ADD PUSH1 0x1 PUSH1 0xFF NOT DUP3 SLOAD AND OR SWAP1 SSTORE DUP2 MLOAD SWAP3 DUP4 MSTORE DUP3 ADD MSTORE DUP1 PUSH2 0x1997 CALLER SWAP6 PUSH1 0x40 DUP4 ADD SWAP1 PUSH2 0x2774 JUMP JUMPDEST SUB SWAP1 LOG3 PUSH1 0x1 PUSH1 0x0 SSTORE STOP JUMPDEST SWAP1 POP DUP11 ADD MLOAD DUP12 PUSH2 0x1959 JUMP JUMPDEST PUSH1 0x1F NOT DUP3 AND SWAP1 DUP4 PUSH1 0x0 MSTORE DUP6 PUSH1 0x0 KECCAK256 SWAP2 PUSH1 0x0 JUMPDEST DUP11 DUP3 DUP3 LT PUSH2 0x1A23 JUMPI POP POP DUP4 PUSH1 0x40 SWAP7 SWAP4 PUSH32 0x4EDDD05DECDC6D6AAB51B897AB47AC4C0A8FDD8D59C39DC16A487B40ADF4E1D2 SWAP10 SWAP9 SWAP7 SWAP4 PUSH1 0x9 SWAP7 PUSH1 0x1 SWAP5 LT PUSH2 0x1A0A JUMPI JUMPDEST POP POP DUP2 SHL ADD SWAP1 SSTORE PUSH2 0x196D JUMP JUMPDEST DUP13 ADD MLOAD PUSH1 0x0 NOT PUSH1 0xF8 DUP5 PUSH1 0x3 SHL AND SHR NOT AND SWAP1 SSTORE DUP12 DUP1 PUSH2 0x19FE JUMP JUMPDEST PUSH1 0x1 DUP5 SWAP6 DUP11 SWAP4 SWAP6 DUP5 SWAP4 ADD MLOAD DUP2 SSTORE ADD SWAP5 ADD SWAP3 ADD PUSH2 0x19BE JUMP JUMPDEST DUP3 PUSH1 0x0 MSTORE DUP5 PUSH1 0x0 KECCAK256 PUSH1 0x1F DUP4 ADD PUSH1 0x5 SHR DUP2 ADD SWAP2 DUP7 DUP5 LT PUSH2 0x1A76 JUMPI JUMPDEST PUSH1 0x1F ADD PUSH1 0x5 SHR ADD SWAP1 JUMPDEST DUP2 DUP2 LT PUSH2 0x1A6A JUMPI POP PUSH2 0x1918 JUMP JUMPDEST PUSH1 0x0 DUP2 SSTORE PUSH1 0x1 ADD PUSH2 0x1A5D JUMP JUMPDEST SWAP1 SWAP2 POP DUP2 SWAP1 PUSH2 0x1A54 JUMP JUMPDEST PUSH4 0x4E487B71 PUSH1 0xE0 SHL PUSH1 0x0 SWAP1 DUP2 MSTORE PUSH1 0x41 PUSH1 0x4 MSTORE REVERT JUMPDEST PUSH1 0x40 MLOAD PUSH3 0x461BCD PUSH1 0xE5 SHL DUP2 MSTORE PUSH1 0x4 DUP2 ADD DUP6 SWAP1 MSTORE PUSH1 0xE DUP2 DUP5 ADD MSTORE PUSH14 0x115B5C1D1E481DDBDC9AC8155493 PUSH1 0x92 SHL PUSH1 0x44 DUP3 ADD MSTORE PUSH1 0x64 SWAP1 REVERT JUMPDEST PUSH1 0x40 MLOAD PUSH3 0x461BCD PUSH1 0xE5 SHL DUP2 MSTORE PUSH1 0x4 DUP2 ADD DUP6 SWAP1 MSTORE PUSH1 0x11 DUP2 DUP5 ADD MSTORE PUSH17 0x92DCECC2D8D2C840EEDEE4D640D0C2E6D PUSH1 0x7B SHL PUSH1 0x44 DUP3 ADD MSTORE PUSH1 0x64 SWAP1 REVERT JUMPDEST PUSH1 0x40 MLOAD PUSH3 0x461BCD PUSH1 0xE5 SHL DUP2 MSTORE PUSH1 0x4 DUP2 ADD DUP6 SWAP1 MSTORE PUSH1 0xF DUP2 DUP5 ADD MSTORE PUSH15 0x111958591B1A5B99481C185CDCD959 PUSH1 0x8A SHL PUSH1 0x44 DUP3 ADD MSTORE PUSH1 0x64 SWAP1 REVERT JUMPDEST POP PUSH4 0x4E487B71 PUSH1 0xE0 SHL PUSH1 0x0 SWAP1 DUP2 MSTORE PUSH1 0x21 PUSH1 0x4 MSTORE REVERT JUMPDEST DUP3 PUSH1 0xA PUSH1 0x64 SWAP3 PUSH1 0x40 MLOAD SWAP3 PUSH3 0x461BCD PUSH1 0xE5 SHL DUP5 MSTORE PUSH1 0x4 DUP5 ADD MSTORE DUP3 ADD MSTORE PUSH10 0x2737BA103BB7B935B2B9 PUSH1 0xB1 SHL PUSH1 0x44 DUP3 ADD MSTORE REVERT JUMPDEST CALLVALUE PUSH2 0x1EA JUMPI PUSH1 0x20 CALLDATASIZE PUSH1 0x3 NOT ADD SLT PUSH2 0x1EA JUMPI PUSH1 0x4 CALLDATALOAD PUSH1 0x0 MSTORE PUSH1 0x6 PUSH1 0x20 MSTORE PUSH1 0x40 PUSH1 0x0 KECCAK256 PUSH1 0xFF DUP2 SLOAD AND PUSH2 0xD56 PUSH1 0x1 DUP4 ADD SLOAD SWAP3 PUSH1 0x1 DUP1 PUSH1 0xA0 SHL SUB PUSH1 0x2 DUP3 ADD SLOAD AND PUSH1 0x4 DUP3 ADD SLOAD SWAP1 PUSH2 0x1BCF PUSH1 0x3 PUSH1 0x5 DUP6 ADD SLOAD SWAP5 ADD PUSH2 0x26CE JUMP JUMPDEST SWAP1 PUSH1 0x40 MLOAD SWAP7 DUP8 SWAP7 DUP8 PUSH2 0x2878 JUMP JUMPDEST CALLVALUE PUSH2 0x1EA JUMPI PUSH1 0x40 CALLDATASIZE PUSH1 0x3 NOT ADD SLT PUSH2 0x1EA JUMPI PUSH8 0xFFFFFFFFFFFFFFFF PUSH1 0x4 CALLDATALOAD PUSH1 0x24 CALLDATALOAD DUP3 DUP2 GT PUSH2 0x1EA JUMPI PUSH2 0x1C11 SWAP1 CALLDATASIZE SWAP1 PUSH1 0x4 ADD PUSH2 0x27D0 JUMP JUMPDEST SWAP1 PUSH2 0x1C1F PUSH1 0x4 SLOAD DUP3 LT PUSH2 0x29A0 JUMP JUMPDEST PUSH2 0x1C27 PUSH2 0x297D JUMP JUMPDEST DUP1 PUSH1 0x0 MSTORE PUSH1 0x20 SWAP2 PUSH1 0x5 DUP4 MSTORE PUSH1 0x40 PUSH1 0x0 KECCAK256 SWAP4 PUSH1 0x9 PUSH1 0x1 DUP1 PUSH1 0xA0 SHL SUB SWAP6 PUSH2 0x1C5E PUSH1 0x1 SWAP8 DUP1 DUP10 DUP5 ADD SLOAD AND CALLER EQ SWAP1 DUP2 ISZERO PUSH2 0x1E86 JUMPI JUMPDEST POP PUSH2 0x2CF8 JUMP JUMPDEST ADD DUP1 SLOAD SWAP1 PUSH1 0xFF DUP3 AND PUSH1 0x7 DUP2 LT ISZERO PUSH2 0xB88 JUMPI DUP1 DUP9 PUSH2 0x1C83 SWAP3 EQ SWAP1 DUP2 ISZERO PUSH2 0x1E7D JUMPI POP PUSH2 0x29E4 JUMP JUMPDEST DUP5 PUSH1 0x0 MSTORE PUSH1 0x6 DUP7 MSTORE PUSH1 0xFF PUSH1 0x40 PUSH1 0x0 KECCAK256 SLOAD AND PUSH2 0x1E3F JUMPI PUSH1 0xFF NOT SWAP2 DUP3 AND PUSH1 0x3 SWAP1 DUP2 OR SWAP1 SWAP2 SSTORE PUSH1 0x0 DUP6 DUP2 MSTORE PUSH1 0x6 DUP8 MSTORE PUSH1 0x40 SWAP1 KECCAK256 DUP1 SLOAD SWAP1 SWAP3 AND DUP8 OR DUP3 SSTORE TIMESTAMP DUP3 DUP9 ADD SSTORE PUSH1 0x2 DUP3 ADD DUP1 SLOAD PUSH1 0x1 PUSH1 0x1 PUSH1 0xA0 SHL SUB NOT AND CALLER OR SWAP1 SSTORE DUP4 MLOAD SWAP2 ADD SWAP2 DUP2 GT PUSH2 0x5B0 JUMPI PUSH2 0x1CEA DUP3 SLOAD PUSH2 0x2655 JUMP JUMPDEST PUSH1 0x1F DUP2 GT PUSH2 0x1DF6 JUMPI JUMPDEST POP DUP5 PUSH1 0x1F DUP3 GT PUSH1 0x1 EQ PUSH2 0x1D6A JUMPI SWAP2 DUP2 PUSH32 0x1B84372106D77C6DAEA0DDA35BBC0229D10A83F58EC899092884925193682341 SWAP5 SWAP3 PUSH2 0x1D57 SWAP5 PUSH1 0x0 SWAP2 PUSH2 0x1D5F JUMPI JUMPDEST POP PUSH1 0x0 NOT PUSH1 0x3 DUP4 SWAP1 SHL SHR NOT AND SWAP1 DUP9 SHL OR SWAP1 SSTORE JUMPDEST PUSH1 0x40 MLOAD SWAP2 DUP3 SWAP2 DUP7 DUP4 MSTORE CALLER SWAP7 DUP4 ADD SWAP1 PUSH2 0x2774 JUMP JUMPDEST SUB SWAP1 LOG3 PUSH1 0x0 SSTORE STOP JUMPDEST SWAP1 POP DUP4 ADD MLOAD DUP10 PUSH2 0x1D31 JUMP JUMPDEST SWAP1 DUP7 SWAP2 PUSH1 0x1F NOT DUP3 AND SWAP1 DUP5 PUSH1 0x0 MSTORE DUP8 PUSH1 0x0 KECCAK256 SWAP2 PUSH1 0x0 JUMPDEST DUP10 DUP3 DUP3 LT PUSH2 0x1DE0 JUMPI POP POP SWAP2 DUP4 SWAP2 PUSH2 0x1D57 SWAP7 SWAP5 PUSH32 0x1B84372106D77C6DAEA0DDA35BBC0229D10A83F58EC899092884925193682341 SWAP9 SWAP7 SWAP5 LT PUSH2 0x1DC7 JUMPI JUMPDEST POP POP DUP2 SHL ADD SWAP1 SSTORE PUSH2 0x1D44 JUMP JUMPDEST DUP6 ADD MLOAD PUSH1 0x0 NOT PUSH1 0xF8 DUP5 PUSH1 0x3 SHL AND SHR NOT AND SWAP1 SSTORE DUP10 DUP1 PUSH2 0x1DBB JUMP JUMPDEST DUP4 DUP10 ADD MLOAD DUP6 SSTORE DUP12 SWAP7 SWAP1 SWAP5 ADD SWAP4 SWAP3 DUP4 ADD SWAP3 ADD PUSH2 0x1D7F JUMP JUMPDEST DUP3 PUSH1 0x0 MSTORE DUP6 PUSH1 0x0 KECCAK256 PUSH1 0x1F DUP4 ADD PUSH1 0x5 SHR DUP2 ADD SWAP2 DUP8 DUP5 LT PUSH2 0x1E35 JUMPI JUMPDEST PUSH1 0x1F ADD PUSH1 0x5 SHR ADD SWAP1 DUP8 SWAP1 JUMPDEST DUP3 DUP2 LT PUSH2 0x1E29 JUMPI POP POP PUSH2 0x1CF3 JUMP JUMPDEST PUSH1 0x0 DUP2 SSTORE ADD DUP8 SWAP1 PUSH2 0x1E1B JUMP JUMPDEST SWAP1 SWAP2 POP DUP2 SWAP1 PUSH2 0x1E10 JUMP JUMPDEST PUSH1 0x40 MLOAD PUSH3 0x461BCD PUSH1 0xE5 SHL DUP2 MSTORE PUSH1 0x4 DUP2 ADD DUP8 SWAP1 MSTORE PUSH1 0x16 PUSH1 0x24 DUP3 ADD MSTORE PUSH22 0x4469737075746520616C726561647920616374697665 PUSH1 0x50 SHL PUSH1 0x44 DUP3 ADD MSTORE PUSH1 0x64 SWAP1 REVERT JUMPDEST SWAP1 POP ISZERO DUP10 PUSH2 0x14D9 JUMP JUMPDEST SWAP1 POP PUSH1 0x2 DUP4 ADD SLOAD AND CALLER EQ DUP10 PUSH2 0x1C58 JUMP JUMPDEST CALLVALUE PUSH2 0x1EA JUMPI PUSH1 0x0 CALLDATASIZE PUSH1 0x3 NOT ADD SLT PUSH2 0x1EA JUMPI PUSH1 0x20 PUSH1 0x40 MLOAD PUSH5 0xE8D4A51000 DUP2 MSTORE RETURN JUMPDEST CALLVALUE PUSH2 0x1EA JUMPI PUSH1 0x20 CALLDATASIZE PUSH1 0x3 NOT ADD SLT PUSH2 0x1EA JUMPI PUSH1 0x4 CALLDATALOAD PUSH1 0x0 MSTORE PUSH1 0x6 PUSH1 0x20 MSTORE PUSH1 0x40 PUSH1 0x0 KECCAK256 PUSH1 0xFF DUP2 SLOAD AND PUSH2 0xD56 PUSH1 0x1 DUP4 ADD SLOAD SWAP3 PUSH1 0x1 DUP1 PUSH1 0xA0 SHL SUB PUSH1 0x2 DUP3 ADD SLOAD AND SWAP1 PUSH2 0x1EFF PUSH1 0x3 DUP3 ADD PUSH2 0x26CE JUMP JUMPDEST PUSH1 0x5 PUSH1 0x4 DUP4 ADD SLOAD SWAP3 ADD SLOAD SWAP3 PUSH1 0x40 MLOAD SWAP7 DUP8 SWAP7 DUP8 PUSH2 0x2878 JUMP JUMPDEST CALLVALUE PUSH2 0x1EA JUMPI PUSH1 0x20 DUP1 PUSH1 0x3 NOT CALLDATASIZE ADD SLT PUSH2 0x1EA JUMPI PUSH1 0x1 PUSH1 0x1 PUSH1 0xA0 SHL SUB PUSH2 0x1F38 PUSH2 0x2827 JUMP JUMPDEST AND PUSH1 0x0 MSTORE PUSH1 0x7 DUP2 MSTORE PUSH1 0x40 PUSH1 0x0 KECCAK256 SWAP1 PUSH1 0x40 MLOAD SWAP1 DUP2 DUP2 DUP5 SLOAD SWAP2 DUP3 DUP2 MSTORE ADD SWAP4 PUSH1 0x0 MSTORE DUP2 PUSH1 0x0 KECCAK256 SWAP2 PUSH1 0x0 SWAP1 JUMPDEST DUP3 DUP3 LT PUSH2 0x1F77 JUMPI PUSH2 0xD56 DUP6 PUSH2 0xD4A DUP2 DUP10 SUB DUP3 PUSH2 0x26AC JUMP JUMPDEST DUP4 SLOAD DUP7 MSTORE SWAP5 DUP6 ADD SWAP5 PUSH1 0x1 SWAP4 DUP5 ADD SWAP4 SWAP1 SWAP2 ADD SWAP1 PUSH2 0x1F60 JUMP JUMPDEST CALLVALUE PUSH2 0x1EA JUMPI PUSH1 0x20 DUP1 PUSH1 0x3 NOT CALLDATASIZE ADD SLT PUSH2 0x1EA JUMPI PUSH1 0x4 CALLDATALOAD PUSH2 0x1FB0 PUSH1 0x4 SLOAD DUP3 LT PUSH2 0x29A0 JUMP JUMPDEST PUSH2 0x1FB8 PUSH2 0x297D JUMP JUMPDEST DUP1 PUSH1 0x0 MSTORE PUSH1 0x5 DUP3 MSTORE PUSH1 0x40 PUSH1 0x0 KECCAK256 PUSH1 0x9 DUP2 ADD SWAP3 DUP4 SLOAD SWAP4 PUSH1 0xFF DUP6 AND PUSH1 0x7 DUP2 LT ISZERO PUSH2 0xB88 JUMPI PUSH2 0x1FE4 SWAP1 ISZERO PUSH2 0x29E4 JUMP JUMPDEST PUSH1 0xB DUP4 ADD SLOAD TIMESTAMP GT ISZERO PUSH2 0x21B7 JUMPI PUSH2 0x2066 PUSH1 0x1 DUP5 ADD SWAP4 PUSH1 0x1 DUP1 PUSH1 0xA0 SHL SUB SWAP3 PUSH1 0x5 DUP5 DUP8 SLOAD AND SWAP9 DUP10 CALLER EQ DUP1 ISZERO PUSH2 0x21AA JUMPI JUMPDEST PUSH2 0x201A SWAP1 PUSH2 0x2CF8 JUMP JUMPDEST PUSH1 0xFF NOT AND OR SWAP1 SSTORE DUP4 PUSH2 0x2035 PUSH1 0x3 DUP4 ADD SLOAD PUSH1 0x4 DUP5 ADD SLOAD SWAP1 PUSH2 0x290F JUMP JUMPDEST PUSH1 0x40 MLOAD PUSH4 0xA9059CBB PUSH1 0xE0 SHL DUP2 MSTORE PUSH1 0x1 PUSH1 0x1 PUSH1 0xA0 SHL SUB SWAP1 SWAP10 AND PUSH1 0x4 DUP11 ADD MSTORE PUSH1 0x24 DUP10 ADD DUP2 SWAP1 MSTORE SWAP8 SWAP3 DUP4 SWAP1 DUP2 SWAP1 PUSH1 0x44 DUP3 ADD SWAP1 JUMP JUMPDEST SUB DUP2 PUSH1 0x0 DUP8 PUSH32 0x0 AND GAS CALL SWAP1 DUP2 ISZERO PUSH2 0x6FC JUMPI PUSH2 0x20AB PUSH1 0x2 SWAP3 DUP6 SWAP5 PUSH1 0x0 SWAP2 PUSH2 0x218D JUMPI POP PUSH2 0x2D35 JUMP JUMPDEST ADD SLOAD AND SWAP3 DUP4 PUSH1 0x0 MSTORE PUSH1 0x9 DUP4 MSTORE PUSH1 0x40 PUSH1 0x0 KECCAK256 SLOAD SWAP4 PUSH1 0x14 DUP6 GT PUSH1 0x0 EQ PUSH2 0x2141 JUMPI PUSH1 0x13 NOT DUP6 ADD SWAP5 DUP6 GT PUSH2 0x7B4 JUMPI PUSH32 0xFC577563F1B9A0461E24ABEF1E1FCC0D33D3D881F20B5DF6DDA59DE4AAE2C821 DUP5 PUSH32 0xEAC97BC1917FCEDC984E3D0671D4E83B359890323D5D1C2DE32B28D17C356CED SWAP7 JUMPDEST DUP4 PUSH1 0x0 MSTORE PUSH1 0x9 DUP3 MSTORE DUP1 PUSH1 0x40 PUSH1 0x0 KECCAK256 SSTORE PUSH1 0x40 MLOAD SWAP1 DUP2 MSTORE LOG2 SLOAD AND SWAP4 PUSH1 0x40 MLOAD SWAP1 DUP2 MSTORE LOG3 PUSH1 0x1 PUSH1 0x0 SSTORE STOP JUMPDEST PUSH32 0xEAC97BC1917FCEDC984E3D0671D4E83B359890323D5D1C2DE32B28D17C356CED SWAP5 POP PUSH32 0xFC577563F1B9A0461E24ABEF1E1FCC0D33D3D881F20B5DF6DDA59DE4AAE2C821 DUP5 PUSH1 0x0 PUSH2 0x211A JUMP JUMPDEST PUSH2 0x21A4 SWAP2 POP DUP8 RETURNDATASIZE DUP10 GT PUSH2 0x6F5 JUMPI PUSH2 0x6E7 DUP2 DUP4 PUSH2 0x26AC JUMP JUMPDEST DUP11 PUSH2 0xB16 JUMP JUMPDEST POP PUSH1 0x1 SLOAD DUP7 AND CALLER EQ PUSH2 0x2011 JUMP JUMPDEST PUSH1 0x40 MLOAD PUSH3 0x461BCD PUSH1 0xE5 SHL DUP2 MSTORE PUSH1 0x4 DUP2 ADD DUP4 SWAP1 MSTORE PUSH1 0x13 PUSH1 0x24 DUP3 ADD MSTORE PUSH19 0x111958591B1A5B99481B9BDD081C185CDCD959 PUSH1 0x6A SHL PUSH1 0x44 DUP3 ADD MSTORE PUSH1 0x64 SWAP1 REVERT JUMPDEST CALLVALUE PUSH2 0x1EA JUMPI PUSH1 0x80 CALLDATASIZE PUSH1 0x3 NOT ADD SLT PUSH2 0x1EA JUMPI PUSH1 0x4 CALLDATALOAD PUSH2 0x220E PUSH2 0x27C1 JUMP JUMPDEST SWAP1 PUSH8 0xFFFFFFFFFFFFFFFF SWAP1 PUSH1 0x44 CALLDATALOAD PUSH1 0x64 CALLDATALOAD DUP4 DUP2 GT PUSH2 0x1EA JUMPI PUSH2 0x2234 SWAP1 CALLDATASIZE SWAP1 PUSH1 0x4 ADD PUSH2 0x27D0 JUMP JUMPDEST SWAP3 PUSH2 0x2242 PUSH1 0x4 SLOAD DUP5 LT PUSH2 0x29A0 JUMP JUMPDEST PUSH1 0x2 SLOAD PUSH1 0x1 PUSH1 0x1 PUSH1 0xA0 SHL SUB AND CALLER SUB PUSH2 0x24AC JUMPI DUP3 PUSH1 0x0 MSTORE PUSH1 0x20 SWAP1 PUSH1 0x5 DUP3 MSTORE PUSH1 0xFF PUSH1 0x9 PUSH1 0x40 PUSH1 0x0 KECCAK256 ADD SLOAD AND SWAP6 PUSH1 0x7 DUP8 LT ISZERO PUSH2 0xB88 JUMPI PUSH2 0x2282 PUSH1 0x1 DUP1 SWAP9 EQ PUSH2 0x29E4 JUMP JUMPDEST PUSH2 0x228A PUSH2 0x297D JUMP JUMPDEST PUSH1 0x64 DUP5 GT PUSH2 0x2477 JUMPI DUP5 PUSH1 0x0 MSTORE PUSH1 0x5 DUP4 MSTORE PUSH1 0x40 PUSH1 0x0 KECCAK256 SWAP1 PUSH1 0xD DUP3 ADD SWAP3 PUSH1 0xFF NOT SWAP4 DUP10 DUP6 DUP3 SLOAD AND OR SWAP1 SSTORE DUP6 PUSH1 0xF DUP5 ADD SSTORE PUSH1 0xE DUP4 ADD SWAP1 DUP9 MLOAD SWAP1 DUP2 GT PUSH2 0x5B0 JUMPI PUSH2 0x22CF DUP3 SLOAD PUSH2 0x2655 JUMP JUMPDEST PUSH1 0x1F DUP2 GT PUSH2 0x242E JUMPI JUMPDEST POP DUP1 DUP7 PUSH1 0x1F DUP3 GT PUSH1 0x1 EQ PUSH2 0x23CB JUMPI PUSH1 0x0 SWAP2 PUSH2 0x23C0 JUMPI JUMPDEST POP PUSH1 0x0 NOT PUSH1 0x3 DUP4 SWAP1 SHL SHR NOT AND SWAP1 DUP11 SHL OR SWAP1 SSTORE JUMPDEST ISZERO PUSH2 0x2369 JUMPI SWAP2 PUSH2 0x235C PUSH2 0x2364 SWAP7 DUP7 SWAP6 SWAP4 PUSH1 0x2 PUSH1 0x9 PUSH32 0xA5781189E7BE31F3ECF3F373A66169166E47CD27528E3852227561DE624FAEC SWAP8 ADD SWAP2 DUP3 SLOAD AND OR SWAP1 SSTORE PUSH1 0x40 MLOAD SWAP4 DUP5 SWAP4 DUP11 DUP6 MSTORE DUP5 ADD MSTORE PUSH1 0x60 PUSH1 0x40 DUP5 ADD MSTORE PUSH1 0x60 DUP4 ADD SWAP1 PUSH2 0x2774 JUMP JUMPDEST SUB SWAP1 LOG2 PUSH2 0x2A20 JUMP JUMPDEST PUSH1 0x0 SSTORE STOP JUMPDEST SWAP5 PUSH2 0x23B8 SWAP2 PUSH1 0x9 PUSH32 0xA5781189E7BE31F3ECF3F373A66169166E47CD27528E3852227561DE624FAEC SWAP7 SWAP8 ADD SWAP1 DUP2 SLOAD AND SWAP1 SSTORE PUSH1 0x40 MLOAD SWAP4 DUP5 SWAP4 PUSH1 0x0 DUP6 MSTORE DUP5 ADD MSTORE PUSH1 0x60 PUSH1 0x40 DUP5 ADD MSTORE PUSH1 0x60 DUP4 ADD SWAP1 PUSH2 0x2774 JUMP JUMPDEST SUB SWAP1 LOG2 PUSH1 0x0 SSTORE STOP JUMPDEST SWAP1 POP DUP10 ADD MLOAD DUP12 PUSH2 0x22EE JUMP JUMPDEST PUSH1 0x0 DUP5 DUP2 MSTORE DUP9 DUP2 KECCAK256 DUP14 SWAP5 POP SWAP2 SWAP1 PUSH1 0x1F NOT DUP5 AND SWAP1 DUP11 DUP15 JUMPDEST DUP4 DUP4 LT PUSH2 0x2417 JUMPI POP POP POP DUP4 GT PUSH2 0x23FE JUMPI JUMPDEST POP POP DUP2 SHL ADD SWAP1 SSTORE PUSH2 0x2301 JUMP JUMPDEST DUP12 ADD MLOAD PUSH1 0x0 NOT PUSH1 0xF8 DUP5 PUSH1 0x3 SHL AND SHR NOT AND SWAP1 SSTORE DUP12 DUP1 PUSH2 0x23F2 JUMP JUMPDEST DUP5 ADD MLOAD DUP6 SSTORE DUP16 SWAP7 SWAP1 SWAP5 ADD SWAP4 SWAP3 DUP4 ADD SWAP3 ADD DUP11 DUP15 PUSH2 0x23E1 JUMP JUMPDEST DUP3 PUSH1 0x0 MSTORE DUP7 PUSH1 0x0 KECCAK256 PUSH1 0x1F DUP4 ADD PUSH1 0x5 SHR DUP2 ADD SWAP2 DUP9 DUP5 LT PUSH2 0x246D JUMPI JUMPDEST PUSH1 0x1F ADD PUSH1 0x5 SHR ADD SWAP1 DUP12 SWAP1 JUMPDEST DUP3 DUP2 LT PUSH2 0x2461 JUMPI POP POP PUSH2 0x22D8 JUMP JUMPDEST PUSH1 0x0 DUP2 SSTORE ADD DUP12 SWAP1 PUSH2 0x2453 JUMP JUMPDEST SWAP1 SWAP2 POP DUP2 SWAP1 PUSH2 0x2448 JUMP JUMPDEST PUSH1 0x40 MLOAD PUSH3 0x461BCD PUSH1 0xE5 SHL DUP2 MSTORE PUSH1 0x4 DUP2 ADD DUP5 SWAP1 MSTORE PUSH1 0xD PUSH1 0x24 DUP3 ADD MSTORE PUSH13 0x496E76616C69642073636F7265 PUSH1 0x98 SHL PUSH1 0x44 DUP3 ADD MSTORE PUSH1 0x64 SWAP1 REVERT JUMPDEST PUSH1 0x40 MLOAD PUSH3 0x461BCD PUSH1 0xE5 SHL DUP2 MSTORE PUSH1 0x20 PUSH1 0x4 DUP3 ADD MSTORE PUSH1 0xF PUSH1 0x24 DUP3 ADD MSTORE PUSH15 0x2737BA1020A4903B32B934B334B2B9 PUSH1 0x89 SHL PUSH1 0x44 DUP3 ADD MSTORE PUSH1 0x64 SWAP1 REVERT JUMPDEST CALLVALUE PUSH2 0x1EA JUMPI PUSH1 0x20 CALLDATASIZE PUSH1 0x3 NOT ADD SLT PUSH2 0x1EA JUMPI PUSH1 0x4 CALLDATALOAD PUSH1 0x0 MSTORE PUSH1 0x5 PUSH1 0x20 MSTORE PUSH1 0x40 PUSH1 0x0 KECCAK256 DUP1 SLOAD SWAP1 PUSH1 0x1 PUSH1 0xA0 SHL PUSH1 0x1 SWAP1 SUB DUP2 DUP2 PUSH1 0x1 DUP3 ADD SLOAD AND SWAP2 PUSH1 0x2 DUP3 ADD SLOAD AND SWAP2 PUSH1 0x3 DUP3 ADD SLOAD SWAP3 PUSH1 0x4 DUP4 ADD SLOAD SWAP4 PUSH1 0x5 DUP5 ADD PUSH2 0x2539 SWAP1 PUSH2 0x26CE JUMP JUMPDEST PUSH2 0x2545 PUSH1 0x6 DUP7 ADD PUSH2 0x26CE JUMP JUMPDEST PUSH1 0x7 DUP7 ADD SLOAD SWAP1 PUSH2 0x2557 PUSH1 0x8 DUP9 ADD PUSH2 0x26CE JUMP JUMPDEST SWAP3 PUSH1 0x9 DUP9 ADD SLOAD PUSH1 0xFF AND SWAP9 PUSH1 0xA DUP10 ADD SLOAD SWAP6 PUSH1 0xB DUP11 ADD SLOAD SWAP8 PUSH1 0xC DUP12 ADD SLOAD SWAP10 PUSH1 0xD DUP13 ADD SLOAD PUSH1 0xFF AND SWAP12 PUSH1 0xE ADD PUSH2 0x2588 SWAP1 PUSH2 0x26CE JUMP JUMPDEST SWAP14 PUSH1 0xF ADD SLOAD SWAP15 PUSH1 0x40 MLOAD DUP1 PUSH1 0x80 MSTORE MSTORE PUSH1 0x80 MLOAD PUSH1 0x20 ADD MSTORE PUSH1 0x80 MLOAD PUSH1 0x40 ADD MSTORE PUSH1 0x80 MLOAD PUSH1 0x60 ADD MSTORE PUSH1 0x80 MLOAD PUSH1 0x80 ADD MSTORE PUSH2 0x200 DUP1 PUSH1 0x80 MLOAD PUSH1 0xA0 ADD MSTORE PUSH1 0x80 MLOAD ADD PUSH2 0x25CA SWAP2 PUSH2 0x2774 JUMP JUMPDEST PUSH1 0x80 MLOAD DUP1 DUP3 SUB SWAP1 PUSH1 0xC0 ADD MSTORE PUSH2 0x25DE SWAP2 PUSH2 0x2774 JUMP JUMPDEST SWAP1 PUSH1 0x80 MLOAD PUSH1 0xE0 ADD MSTORE PUSH1 0x80 MLOAD DUP1 DUP3 SUB SWAP1 PUSH2 0x100 ADD MSTORE PUSH2 0x25FB SWAP2 PUSH2 0x2774 JUMP JUMPDEST SWAP5 PUSH1 0x80 MLOAD PUSH2 0x120 ADD PUSH2 0x260C SWAP2 PUSH2 0x27B4 JUMP JUMPDEST PUSH1 0x80 MLOAD PUSH2 0x140 ADD MSTORE PUSH1 0x80 MLOAD PUSH2 0x160 ADD MSTORE PUSH1 0x80 MLOAD PUSH2 0x180 ADD MSTORE ISZERO ISZERO PUSH1 0x80 MLOAD PUSH2 0x1A0 ADD MSTORE PUSH1 0x80 MLOAD DUP1 DUP3 SUB SWAP1 PUSH2 0x1C0 ADD MSTORE PUSH2 0x2643 SWAP2 PUSH2 0x2774 JUMP JUMPDEST SWAP1 PUSH1 0x80 MLOAD PUSH2 0x1E0 ADD MSTORE PUSH1 0x80 MLOAD DUP1 SWAP2 SUB SWAP1 RETURN JUMPDEST SWAP1 PUSH1 0x1 DUP3 DUP2 SHR SWAP3 AND DUP1 ISZERO PUSH2 0x2685 JUMPI JUMPDEST PUSH1 0x20 DUP4 LT EQ PUSH2 0x266F JUMPI JUMP JUMPDEST PUSH4 0x4E487B71 PUSH1 0xE0 SHL PUSH1 0x0 MSTORE PUSH1 0x22 PUSH1 0x4 MSTORE PUSH1 0x24 PUSH1 0x0 REVERT JUMPDEST SWAP2 PUSH1 0x7F AND SWAP2 PUSH2 0x2664 JUMP JUMPDEST PUSH2 0x200 DUP2 ADD SWAP1 DUP2 LT PUSH8 0xFFFFFFFFFFFFFFFF DUP3 GT OR PUSH2 0x5B0 JUMPI PUSH1 0x40 MSTORE JUMP JUMPDEST SWAP1 PUSH1 0x1F DUP1 NOT SWAP2 ADD AND DUP2 ADD SWAP1 DUP2 LT PUSH8 0xFFFFFFFFFFFFFFFF DUP3 GT OR PUSH2 0x5B0 JUMPI PUSH1 0x40 MSTORE JUMP JUMPDEST SWAP1 PUSH1 0x40 MLOAD SWAP2 DUP3 PUSH1 0x0 DUP3 SLOAD SWAP3 PUSH2 0x26E2 DUP5 PUSH2 0x2655 JUMP JUMPDEST SWAP1 DUP2 DUP5 MSTORE PUSH1 0x1 SWAP5 DUP6 DUP2 AND SWAP1 DUP2 PUSH1 0x0 EQ PUSH2 0x2751 JUMPI POP PUSH1 0x1 EQ PUSH2 0x270E JUMPI JUMPDEST POP POP PUSH2 0x270C SWAP3 POP SUB DUP4 PUSH2 0x26AC JUMP JUMPDEST JUMP JUMPDEST SWAP1 SWAP4 SWAP2 POP PUSH1 0x0 MSTORE PUSH1 0x20 SWAP1 DUP2 PUSH1 0x0 KECCAK256 SWAP4 PUSH1 0x0 SWAP2 JUMPDEST DUP2 DUP4 LT PUSH2 0x2739 JUMPI POP POP PUSH2 0x270C SWAP4 POP DUP3 ADD ADD CODESIZE DUP1 PUSH2 0x26FE JUMP JUMPDEST DUP6 SLOAD DUP9 DUP5 ADD DUP6 ADD MSTORE SWAP5 DUP6 ADD SWAP5 DUP8 SWAP5 POP SWAP2 DUP4 ADD SWAP2 PUSH2 0x2721 JUMP JUMPDEST SWAP2 POP POP PUSH2 0x270C SWAP5 POP PUSH1 0x20 SWAP3 POP PUSH1 0xFF NOT AND DUP3 DUP5 ADD MSTORE ISZERO ISZERO PUSH1 0x5 SHL DUP3 ADD ADD CODESIZE DUP1 PUSH2 0x26FE JUMP JUMPDEST SWAP2 SWAP1 DUP3 MLOAD SWAP3 DUP4 DUP3 MSTORE PUSH1 0x0 JUMPDEST DUP5 DUP2 LT PUSH2 0x27A0 JUMPI POP POP DUP3 PUSH1 0x0 PUSH1 0x20 DUP1 SWAP5 SWAP6 DUP5 ADD ADD MSTORE PUSH1 0x1F DUP1 NOT SWAP2 ADD AND ADD ADD SWAP1 JUMP JUMPDEST PUSH1 0x20 DUP2 DUP4 ADD DUP2 ADD MLOAD DUP5 DUP4 ADD DUP3 ADD MSTORE ADD PUSH2 0x277F JUMP JUMPDEST SWAP1 PUSH1 0x7 DUP3 LT ISZERO PUSH2 0xB88 JUMPI MSTORE JUMP JUMPDEST PUSH1 0x24 CALLDATALOAD SWAP1 DUP2 ISZERO ISZERO DUP3 SUB PUSH2 0x1EA JUMPI JUMP JUMPDEST DUP2 PUSH1 0x1F DUP3 ADD SLT ISZERO PUSH2 0x1EA JUMPI DUP1 CALLDATALOAD SWAP1 PUSH8 0xFFFFFFFFFFFFFFFF DUP3 GT PUSH2 0x5B0 JUMPI PUSH1 0x40 MLOAD SWAP3 PUSH2 0x2805 PUSH1 0x1F DUP5 ADD PUSH1 0x1F NOT AND PUSH1 0x20 ADD DUP6 PUSH2 0x26AC JUMP JUMPDEST DUP3 DUP5 MSTORE PUSH1 0x20 DUP4 DUP4 ADD ADD GT PUSH2 0x1EA JUMPI DUP2 PUSH1 0x0 SWAP3 PUSH1 0x20 DUP1 SWAP4 ADD DUP4 DUP7 ADD CALLDATACOPY DUP4 ADD ADD MSTORE SWAP1 JUMP JUMPDEST PUSH1 0x4 CALLDATALOAD SWAP1 PUSH1 0x1 PUSH1 0x1 PUSH1 0xA0 SHL SUB DUP3 AND DUP3 SUB PUSH2 0x1EA JUMPI JUMP JUMPDEST PUSH1 0x20 SWAP1 DUP2 PUSH1 0x40 DUP2 DUP4 ADD SWAP3 DUP3 DUP2 MSTORE DUP6 MLOAD DUP1 SWAP5 MSTORE ADD SWAP4 ADD SWAP2 PUSH1 0x0 JUMPDEST DUP3 DUP2 LT PUSH2 0x2864 JUMPI POP POP POP POP SWAP1 JUMP JUMPDEST DUP4 MLOAD DUP6 MSTORE SWAP4 DUP2 ADD SWAP4 SWAP3 DUP2 ADD SWAP3 PUSH1 0x1 ADD PUSH2 0x2856 JUMP JUMPDEST SWAP3 PUSH2 0x28AB SWAP3 PUSH1 0xA0 SWAP6 SWAP3 SWAP9 SWAP8 SWAP7 SWAP9 ISZERO ISZERO DUP6 MSTORE PUSH1 0x20 DUP6 ADD MSTORE PUSH1 0x1 DUP1 DUP7 SHL SUB AND PUSH1 0x40 DUP5 ADD MSTORE PUSH1 0xC0 PUSH1 0x60 DUP5 ADD MSTORE PUSH1 0xC0 DUP4 ADD SWAP1 PUSH2 0x2774 JUMP JUMPDEST SWAP5 PUSH1 0x80 DUP3 ADD MSTORE ADD MSTORE JUMP JUMPDEST DUP1 SLOAD DUP3 LT ISZERO PUSH2 0x28CD JUMPI PUSH1 0x0 MSTORE PUSH1 0x20 PUSH1 0x0 KECCAK256 ADD SWAP1 PUSH1 0x0 SWAP1 JUMP JUMPDEST PUSH4 0x4E487B71 PUSH1 0xE0 SHL PUSH1 0x0 MSTORE PUSH1 0x32 PUSH1 0x4 MSTORE PUSH1 0x24 PUSH1 0x0 REVERT JUMPDEST PUSH1 0x1 SLOAD PUSH1 0x1 PUSH1 0x1 PUSH1 0xA0 SHL SUB AND CALLER SUB PUSH2 0x28F7 JUMPI JUMP JUMPDEST PUSH1 0x40 MLOAD PUSH4 0x118CDAA7 PUSH1 0xE0 SHL DUP2 MSTORE CALLER PUSH1 0x4 DUP3 ADD MSTORE PUSH1 0x24 SWAP1 REVERT JUMPDEST SWAP2 SWAP1 DUP3 ADD DUP1 SWAP3 GT PUSH2 0x7B4 JUMPI JUMP JUMPDEST SWAP1 DUP2 PUSH1 0x20 SWAP2 SUB SLT PUSH2 0x1EA JUMPI MLOAD DUP1 ISZERO ISZERO DUP2 SUB PUSH2 0x1EA JUMPI SWAP1 JUMP JUMPDEST PUSH1 0x0 NOT DUP2 EQ PUSH2 0x7B4 JUMPI PUSH1 0x1 ADD SWAP1 JUMP JUMPDEST DUP1 SLOAD PUSH9 0x10000000000000000 DUP2 LT ISZERO PUSH2 0x5B0 JUMPI PUSH2 0x2965 SWAP2 PUSH1 0x1 DUP3 ADD DUP2 SSTORE PUSH2 0x28B5 JUMP JUMPDEST DUP2 SWAP3 SWAP2 SLOAD SWAP1 PUSH1 0x3 SHL SWAP2 DUP3 SHL SWAP2 PUSH1 0x0 NOT SWAP1 SHL NOT AND OR SWAP1 SSTORE JUMP JUMPDEST PUSH1 0x2 PUSH1 0x0 SLOAD EQ PUSH2 0x298E JUMPI PUSH1 0x2 PUSH1 0x0 SSTORE JUMP JUMPDEST PUSH1 0x40 MLOAD PUSH4 0x3EE5AEB5 PUSH1 0xE0 SHL DUP2 MSTORE PUSH1 0x4 SWAP1 REVERT JUMPDEST ISZERO PUSH2 0x29A7 JUMPI JUMP JUMPDEST PUSH1 0x40 MLOAD PUSH3 0x461BCD PUSH1 0xE5 SHL DUP2 MSTORE PUSH1 0x20 PUSH1 0x4 DUP3 ADD MSTORE PUSH1 0x15 PUSH1 0x24 DUP3 ADD MSTORE PUSH21 0x115CD8DC9BDDC8191BD95CC81B9BDD08195E1A5CDD PUSH1 0x5A SHL PUSH1 0x44 DUP3 ADD MSTORE PUSH1 0x64 SWAP1 REVERT JUMPDEST ISZERO PUSH2 0x29EB JUMPI JUMP JUMPDEST PUSH1 0x40 MLOAD PUSH3 0x461BCD PUSH1 0xE5 SHL DUP2 MSTORE PUSH1 0x20 PUSH1 0x4 DUP3 ADD MSTORE PUSH1 0xD PUSH1 0x24 DUP3 ADD MSTORE PUSH13 0x496E76616C6964207374617465 PUSH1 0x98 SHL PUSH1 0x44 DUP3 ADD MSTORE PUSH1 0x64 SWAP1 REVERT JUMPDEST SWAP1 PUSH1 0x0 SWAP2 DUP1 DUP4 MSTORE PUSH1 0x20 SWAP1 PUSH1 0x5 DUP3 MSTORE PUSH1 0x40 DUP1 DUP6 KECCAK256 PUSH1 0x9 DUP2 ADD SWAP4 DUP5 SLOAD SWAP5 PUSH1 0xFF DUP7 AND PUSH1 0x7 DUP2 LT ISZERO PUSH2 0x2CA9 JUMPI PUSH1 0x2 SUB PUSH2 0x2C76 JUMPI PUSH1 0x4 PUSH1 0xFF NOT SWAP7 SWAP1 SWAP7 AND DUP7 OR SWAP1 SSTORE PUSH1 0x2 DUP3 ADD DUP1 SLOAD PUSH1 0x3 DUP5 ADD DUP1 SLOAD DUP7 MLOAD PUSH4 0xA9059CBB PUSH1 0xE0 SHL DUP1 DUP3 MSTORE PUSH1 0x1 PUSH1 0x1 PUSH1 0xA0 SHL SUB SWAP5 DUP6 AND DUP3 DUP13 ADD MSTORE PUSH1 0x24 DUP3 ADD SWAP3 SWAP1 SWAP3 MSTORE SWAP2 SWAP9 PUSH32 0x0 DUP5 AND SWAP7 SWAP4 SWAP5 SWAP4 SWAP3 SWAP1 SWAP2 SWAP1 DUP7 DUP2 DUP15 DUP2 DUP1 PUSH1 0x44 DUP2 ADD SUB SWAP2 DUP13 GAS CALL SWAP1 DUP2 ISZERO PUSH2 0x2C6C JUMPI DUP14 SWAP2 PUSH2 0x2C4F JUMPI JUMPDEST POP ISZERO PUSH2 0x2C0C JUMPI DUP2 DUP4 ADD SWAP7 DUP8 SLOAD SWAP2 DUP3 PUSH2 0x2B56 JUMPI JUMPDEST POP POP POP POP PUSH32 0x8CDC8DC08E54A4E57F52077ECF1B4C508758513439CAE2AA325DCC85B922FCA8 SWAP7 SWAP8 SWAP9 SWAP10 PUSH2 0x2B2D DUP5 PUSH1 0x1 DUP10 SWAP5 PUSH2 0x2B25 DUP4 DUP9 SLOAD AND PUSH2 0x2DB1 JUMP JUMPDEST ADD SLOAD AND PUSH2 0x2DB1 JUMP JUMPDEST DUP4 DUP4 SLOAD AND DUP2 MSTORE PUSH1 0xA DUP6 MSTORE KECCAK256 PUSH2 0x2B42 DUP2 SLOAD PUSH2 0x2934 JUMP JUMPDEST SWAP1 SSTORE SLOAD AND SWAP6 SLOAD SWAP2 SLOAD SWAP1 DUP4 MLOAD SWAP3 DUP4 MSTORE DUP3 ADD MSTORE LOG3 JUMP JUMPDEST SWAP2 DUP8 SWAP2 PUSH2 0x2B8C SWAP4 DUP16 DUP10 PUSH1 0x3 SLOAD AND SWAP2 DUP14 MLOAD SWAP7 DUP8 SWAP6 DUP7 SWAP5 DUP6 SWAP4 DUP5 MSTORE DUP11 DUP5 ADD PUSH1 0x20 SWAP1 SWAP4 SWAP3 SWAP2 SWAP4 PUSH1 0x40 DUP2 ADD SWAP5 PUSH1 0x1 DUP1 PUSH1 0xA0 SHL SUB AND DUP2 MSTORE ADD MSTORE JUMP JUMPDEST SUB SWAP3 GAS CALL SWAP1 DUP2 ISZERO PUSH2 0x2C02 JUMPI DUP13 SWAP2 PUSH2 0x2BE5 JUMPI JUMPDEST POP ISZERO PUSH2 0x2BAC JUMPI DUP1 DUP1 DUP1 PUSH2 0x2AE8 JUMP JUMPDEST DUP7 MLOAD PUSH3 0x461BCD PUSH1 0xE5 SHL DUP2 MSTORE SWAP1 DUP2 ADD DUP6 SWAP1 MSTORE PUSH1 0x13 PUSH1 0x24 DUP3 ADD MSTORE PUSH19 0x119959481D1C985B9CD9995C8819985A5B1959 PUSH1 0x6A SHL PUSH1 0x44 DUP3 ADD MSTORE PUSH1 0x64 SWAP1 REVERT JUMPDEST PUSH2 0x2BFC SWAP2 POP DUP7 RETURNDATASIZE DUP9 GT PUSH2 0x6F5 JUMPI PUSH2 0x6E7 DUP2 DUP4 PUSH2 0x26AC JUMP JUMPDEST CODESIZE PUSH2 0x2B9E JUMP JUMPDEST DUP9 MLOAD RETURNDATASIZE DUP15 DUP3 RETURNDATACOPY RETURNDATASIZE SWAP1 REVERT JUMPDEST DUP8 MLOAD PUSH3 0x461BCD PUSH1 0xE5 SHL DUP2 MSTORE DUP1 DUP4 ADD DUP8 SWAP1 MSTORE PUSH1 0x17 PUSH1 0x24 DUP3 ADD MSTORE PUSH32 0x5061796D656E74207472616E73666572206661696C6564000000000000000000 PUSH1 0x44 DUP3 ADD MSTORE PUSH1 0x64 SWAP1 REVERT JUMPDEST PUSH2 0x2C66 SWAP2 POP DUP8 RETURNDATASIZE DUP10 GT PUSH2 0x6F5 JUMPI PUSH2 0x6E7 DUP2 DUP4 PUSH2 0x26AC JUMP JUMPDEST CODESIZE PUSH2 0x2AD5 JUMP JUMPDEST DUP10 MLOAD RETURNDATASIZE DUP16 DUP3 RETURNDATACOPY RETURNDATASIZE SWAP1 REVERT JUMPDEST DUP4 MLOAD PUSH3 0x461BCD PUSH1 0xE5 SHL DUP2 MSTORE PUSH1 0x4 DUP2 ADD DUP4 SWAP1 MSTORE PUSH1 0xC PUSH1 0x24 DUP3 ADD MSTORE PUSH12 0x139BDD081D995C9A599A5959 PUSH1 0xA2 SHL PUSH1 0x44 DUP3 ADD MSTORE PUSH1 0x64 SWAP1 REVERT JUMPDEST PUSH4 0x4E487B71 PUSH1 0xE0 SHL DUP10 MSTORE PUSH1 0x21 PUSH1 0x4 MSTORE PUSH1 0x24 DUP10 REVERT JUMPDEST ISZERO PUSH2 0x2CC4 JUMPI JUMP JUMPDEST PUSH1 0x40 MLOAD PUSH3 0x461BCD PUSH1 0xE5 SHL DUP2 MSTORE PUSH1 0x20 PUSH1 0x4 DUP3 ADD MSTORE PUSH1 0xC PUSH1 0x24 DUP3 ADD MSTORE PUSH12 0x2737BA1032B6B83637BCB2B9 PUSH1 0xA1 SHL PUSH1 0x44 DUP3 ADD MSTORE PUSH1 0x64 SWAP1 REVERT JUMPDEST ISZERO PUSH2 0x2CFF JUMPI JUMP JUMPDEST PUSH1 0x40 MLOAD PUSH3 0x461BCD PUSH1 0xE5 SHL DUP2 MSTORE PUSH1 0x20 PUSH1 0x4 DUP3 ADD MSTORE PUSH1 0xE PUSH1 0x24 DUP3 ADD MSTORE PUSH14 0x139BDD08185D5D1A1BDC9A5E9959 PUSH1 0x92 SHL PUSH1 0x44 DUP3 ADD MSTORE PUSH1 0x64 SWAP1 REVERT JUMPDEST ISZERO PUSH2 0x2D3C JUMPI JUMP JUMPDEST PUSH1 0x40 MLOAD PUSH3 0x461BCD PUSH1 0xE5 SHL DUP2 MSTORE PUSH1 0x20 PUSH1 0x4 DUP3 ADD MSTORE PUSH1 0xD PUSH1 0x24 DUP3 ADD MSTORE PUSH13 0x1499599D5B990819985A5B1959 PUSH1 0x9A SHL PUSH1 0x44 DUP3 ADD MSTORE PUSH1 0x64 SWAP1 REVERT JUMPDEST ISZERO PUSH2 0x2D78 JUMPI JUMP JUMPDEST PUSH1 0x40 MLOAD PUSH3 0x461BCD PUSH1 0xE5 SHL DUP2 MSTORE PUSH1 0x20 PUSH1 0x4 DUP3 ADD MSTORE PUSH1 0x11 PUSH1 0x24 DUP3 ADD MSTORE PUSH17 0x4E6F206163746976652064697370757465 PUSH1 0x78 SHL PUSH1 0x44 DUP3 ADD MSTORE PUSH1 0x64 SWAP1 REVERT JUMPDEST PUSH1 0x1 PUSH1 0x1 PUSH1 0xA0 SHL SUB AND PUSH1 0x0 DUP2 DUP2 MSTORE PUSH1 0x9 PUSH1 0x20 MSTORE PUSH1 0x40 DUP2 KECCAK256 SLOAD PUSH1 0xA DUP2 ADD SWAP1 DUP2 LT PUSH2 0x2E2A JUMPI PUSH32 0xFC577563F1B9A0461E24ABEF1E1FCC0D33D3D881F20B5DF6DDA59DE4AAE2C821 SWAP2 PUSH1 0x20 SWAP2 PUSH1 0x40 SWAP2 SWAP1 PUSH2 0x3E8 SWAP1 DUP2 DUP2 GT ISZERO PUSH2 0x2E20 JUMPI POP SWAP2 DUP3 SWAP2 JUMPDEST DUP7 DUP2 MSTORE PUSH1 0x9 DUP6 MSTORE KECCAK256 SSTORE PUSH1 0x40 MLOAD SWAP1 DUP2 MSTORE LOG2 JUMP JUMPDEST SWAP1 POP SWAP2 DUP3 SWAP2 PUSH2 0x2E0E JUMP JUMPDEST PUSH4 0x4E487B71 PUSH1 0xE0 SHL DUP3 MSTORE PUSH1 0x11 PUSH1 0x4 MSTORE PUSH1 0x24 DUP3 REVERT JUMPDEST ISZERO PUSH2 0x2E45 JUMPI JUMP JUMPDEST PUSH1 0x40 MLOAD PUSH3 0x461BCD PUSH1 0xE5 SHL DUP2 MSTORE PUSH1 0x20 PUSH1 0x4 DUP3 ADD MSTORE PUSH1 0xF PUSH1 0x24 DUP3 ADD MSTORE PUSH15 0x496E76616C69642061646472657373 PUSH1 0x88 SHL PUSH1 0x44 DUP3 ADD MSTORE PUSH1 0x64 SWAP1 REVERT INVALID LOG2 PUSH5 0x6970667358 0x22 SLT KECCAK256 MLOAD 0xAE EXP LT EXTCODESIZE PUSH20 0x3A433BD30A4BD420C3E0EDAA8F00059B5AF0E9F6 SSTORE POP 0x2B 0xE2 0xC1 0x2E PUSH5 0x736F6C6343 STOP ADDMOD EQ STOP CALLER "},"methodIdentifiers":{"DISPUTE_WINDOW()":"f585dc57","MAX_DEADLINE()":"6f0e530f","MAX_ESCROW_AMOUNT()":"5652ba2d","MIN_DEADLINE()":"85ae341d","MIN_ESCROW_AMOUNT()":"8e9856f9","USDC()":"89a30271","aiVerifier()":"6e4e15b9","cancelEscrow(uint256)":"e0182436","createEscrow(address,uint256,uint256,string,string,uint256)":"f7190358","disputes(uint256)":"564a565d","emergencyWithdraw()":"db2e21bc","employerEscrows(address,uint256)":"919b4478","escrowCounter()":"c7ceafea","escrows(uint256)":"012f52ee","feeCollector()":"c415b95c","getDisputeInfo(uint256)":"6169c308","getEmployerEscrows(address)":"4110501e","getEscrow(uint256)":"7d19e596","getReputation(address)":"9c89a0e2","getWorkerEscrows(address)":"d19c0340","manualRelease(uint256)":"8070c401","owner()":"8da5cb5b","raiseDispute(uint256,string)":"5aef573c","refund(uint256)":"278ecde1","renounceOwnership()":"715018a6","reputationScore(address)":"50d061cb","resolveDispute(uint256)":"c2b7b868","setAIVerifier(address)":"f8bf9589","setFeeCollector(address)":"a42dce80","submitWork(uint256,bytes32,string)":"620fae50","totalEscrowsCompleted(address)":"f204a852","transferOwnership(address)":"f2fde38b","verifyWork(uint256,bool,uint256,string)":"23ecb306","voteOnDispute(uint256,bool)":"a4f5df12","workerEscrows(address,uint256)":"c8092955"}}}}}