{"contracts/FeeManager.sol":{"FeeManager":{"abi":[{"inputs":[],"stateMutability":"nonpayable","type":"constructor"},{"inputs":[{"internalType":"address","name":"owner","type":"address"}],"name":"OwnableInvalidOwner","type":"error"},{"inputs":[{"internalType":"address","name":"account","type":"address"}],"name":"OwnableUnauthorizedAccount","type":"error"},{"anonymous":false,"inputs":[{"indexed":true,"internalType":"address","name":"previousOwner","type":"address"},{"indexed":true,"internalType":"address","name":"newOwner","type":"address"}],"name":"OwnershipTransferred","type":"event"},{"inputs":[],"name":"baseFee","outputs":[{"internalType":"uint256","name":"","type":"uint256"}],"stateMutability":"view","type":"function"},{"inputs":[{"internalType":"uint256","name":"amount","type":"uint256"},{"internalType":"uint256","name":"complexity","type":"uint256"},{"internalType":"uint256","name":"workerReputation","type":"uint256"},{"internalType":"bool","name":"isCrossChain","type":"bool"}],"name":"calculateFee","outputs":[{"internalType":"uint256","name":"","type":"uint256"}],"stateMutability":"view","type":"function"},{"inputs":[],"name":"crossChainFee","outputs":[{"internalType":"uint256","name":"","type":"uint256"}],"stateMutability":"view","type":"function"},{"inputs":[{"internalType":"uint256","name":"amount","type":"uint256"},{"internalType":"uint256","name":"complexity","type":"uint256"},{"internalType":"uint256","name":"workerReputation","type":"uint256"},{"internalType":"bool","name":"isCrossChain","type":"bool"}],"name":"getFeePercentage","outputs":[{"internalType":"uint256","name":"","type":"uint256"}],"stateMutability":"view","type":"function"},{"inputs":[],"name":"highComplexityMultiplier","outputs":[{"internalType":"uint256","name":"","type":"uint256"}],"stateMutability":"view","type":"function"},{"inputs":[],"name":"highReputationDiscount","outputs":[{"internalType":"uint256","name":"","type":"uint256"}],"stateMutability":"view","type":"function"},{"inputs":[],"name":"lowComplexityMultiplier","outputs":[{"internalType":"uint256","name":"","type":"uint256"}],"stateMutability":"view","type":"function"},{"inputs":[],"name":"maxFee","outputs":[{"internalType":"uint256","name":"","type":"uint256"}],"stateMutability":"view","type":"function"},{"inputs":[],"name":"mediumComplexityMultiplier","outputs":[{"internalType":"uint256","name":"","type":"uint256"}],"stateMutability":"view","type":"function"},{"inputs":[],"name":"mediumReputationDiscount","outputs":[{"internalType":"uint256","name":"","type":"uint256"}],"stateMutability":"view","type":"function"},{"inputs":[],"name":"minFee","outputs":[{"internalType":"uint256","name":"","type":"uint256"}],"stateMutability":"view","type":"function"},{"inputs":[],"name":"owner","outputs":[{"internalType":"address","name":"","type":"address"}],"stateMutability":"view","type":"function"},{"inputs":[],"name":"renounceOwnership","outputs":[],"stateMutability":"nonpayable","type":"function"},{"inputs":[{"internalType":"uint256","name":"_baseFee","type":"uint256"}],"name":"setBaseFee","outputs":[],"stateMutability":"nonpayable","type":"function"},{"inputs":[{"internalType":"uint256","name":"_fee","type":"uint256"}],"name":"setCrossChainFee","outputs":[],"stateMutability":"nonpayable","type":"function"},{"inputs":[{"internalType":"uint256","name":"_minFee","type":"uint256"},{"internalType":"uint256","name":"_maxFee","type":"uint256"}],"name":"setFeeRange","outputs":[],"stateMutability":"nonpayable","type":"function"},{"inputs":[{"internalType":"uint256","name":"_tier1","type":"uint256"},{"internalType":"uint256","name":"_tier2","type":"uint256"},{"internalType":"uint256","name":"_tier3","type":"uint256"}],"name":"setTierThresholds","outputs":[],"stateMutability":"nonpayable","type":"function"},{"inputs":[],"name":"tier1Threshold","outputs":[{"internalType":"uint256","name":"","type":"uint256"}],"stateMutability":"view","type":"function"},{"inputs":[],"name":"tier2Threshold","outputs":[{"internalType":"uint256","name":"","type":"uint256"}],"stateMutability":"view","type":"function"},{"inputs":[],"name":"tier3Threshold","outputs":[{"internalType":"uint256","name":"","type":"uint256"}],"stateMutability":"view","type":"function"},{"inputs":[{"internalType":"address","name":"newOwner","type":"address"}],"name":"transferOwnership","outputs":[],"stateMutability":"nonpayable","type":"function"}],"evm":{"bytecode":{"linkReferences":{},"object":"608080604052346100c25733156100ac5760008054336001600160a01b03198216811783556040519290916001600160a01b0316907f8be0079c531659141344cd1fd0a4f28419497f9722a3daafe3b4186f6b6457e09080a36064600155603260025561012c600355633b9aca006004556402540be400600555640ba43b740060065560966007556064600855604b600955605a600a55605f600b556032600c5561096f90816100c88239f35b631e4fbdf760e01b815260006004820152602490fd5b600080fdfe608060408181526004918236101561001657600080fd5b600090813560e01c90816301f59d161461089c575080631039298f1461087d578063164d29f61461085e57806324ec75901461083f57806327f8456b1461082057806346860698146107a757806354350ab1146105895780636ef25c3a1461056a578063702c5a4d1461054c578063715018a6146104f2578063836dd14f146104925780638da5cb5b1461046a578063b6254a9f1461044b578063c7d0b0cf1461042c578063c7f2ee581461040d578063ca5c1b98146103ee578063cb3d5b2a1461036f578063ccb4cd1b1461034c578063d0fb2483146102a6578063f2fde38b146102135763f63d20711461010b57600080fd5b3461021057610119366108b8565b90859394929551956354350ab160e01b875285888801526024870152604486015215156064850152602084608481305afa9384156102045781946101a5575b506127109384810294818604149015171561019257821561017f5750602093505191048152f35b634e487b7160e01b815260128552602490fd5b634e487b7160e01b815260118552602490fd5b90935060203d81116101fd575b601f8101601f1916820167ffffffffffffffff8111838210176101ea5760209183918552810103126101e657519238610158565b8380fd5b634e487b7160e01b865260418752602486fd5b503d6101b2565b509051903d90823e3d90fd5b80fd5b509190346102a25760203660031901126102a2576001600160a01b0382358181169391929084900361029e576102476108e4565b831561028857505082546001600160a01b0319811683178455167f8be0079c531659141344cd1fd0a4f28419497f9722a3daafe3b4186f6b6457e08380a380f35b51631e4fbdf760e01b8152908101849052602490fd5b8480fd5b8280fd5b5091346102a257816003193601126102a257803590602435926102c76108e4565b83831015610319576101f484116102e357505060025560035580f35b906020606492519162461bcd60e51b8352820152601060248201526f09ac2f040cccaca40e8dede40d0d2ced60831b6044820152fd5b906020606492519162461bcd60e51b8352820152600d60248201526c496e76616c69642072616e676560981b6044820152fd5b50903461036b578160031936011261036b576020906007549051908152f35b5080fd5b5091346102a25760603660031901126102a257803560243591604435936103946108e4565b838310806103e5575b156103ad57505560055560065580f35b906020606492519162461bcd60e51b83528201526012602482015271496e76616c6964207468726573686f6c647360701b6044820152fd5b5084841061039d565b50903461036b578160031936011261036b57602090600b549051908152f35b50903461036b578160031936011261036b576020906009549051908152f35b50903461036b578160031936011261036b576020906006549051908152f35b50903461036b578160031936011261036b57602090600a549051908152f35b50903461036b578160031936011261036b57905490516001600160a01b039091168152602090f35b5091346102a25760203660031901126102a2578035916104b06108e4565b606483116104c0575050600c5580f35b906020606492519162461bcd60e51b8352820152600c60248201526b08ccaca40e8dede40d0d2ced60a31b6044820152fd5b503461021057806003193601126102105761050b6108e4565b80546001600160a01b03198116825581906001600160a01b03167f8be0079c531659141344cd1fd0a4f28419497f9722a3daafe3b4186f6b6457e08280a380f35b5091346102a257826003193601126102a25760209250549051908152f35b50903461036b578160031936011261036b576020906001549051908152f35b503461021057610598366108b8565b9293908415610773576002831161073b5761271092836105ba60015488610910565b04906002810361072257506105d460649160075490610910565b045b60065486106106d5576046810290808204604614901517156106c25760649004905b610320811061069f5750610611606491600a5490610910565b04925b610666575b50602094506106398161062e60025486610910565b049360035490610910565b048282101561064c575050905b51908152f35b8181929493501161065e575b50610646565b915038610658565b81610676600c9493945486610910565b04820180921161068c5750602094509038610619565b634e487b7160e01b815260118652602490fd5b6101f4909491941061061457926106bb606491600b5490610910565b0492610614565b634e487b7160e01b835260118852602483fd5b60055486106106fb576050810290808204605014901517156106c25760649004906105f8565b90875486106105f85790605a810290808204605a14901517156106c25760649004906105f8565b6105d65761073560649160095490610910565b046105d6565b855162461bcd60e51b81526020818901526012602482015271496e76616c696420636f6d706c657869747960701b6044820152606490fd5b855162461bcd60e51b8152602081890152600e60248201526d125b9d985b1a5908185b5bdd5b9d60921b6044820152606490fd5b5091346102a25760203660031901126102a2578035916107c56108e4565b60025483101580610814575b156107de57505060015580f35b906020606492519162461bcd60e51b8352820152601060248201526f496e76616c696420626173652066656560801b6044820152fd5b506003548311156107d1565b50903461036b578160031936011261036b576020906008549051908152f35b50903461036b578160031936011261036b576020906002549051908152f35b50903461036b578160031936011261036b57602090600c549051908152f35b50903461036b578160031936011261036b576020906005549051908152f35b90503461036b578160031936011261036b576020906003548152f35b60809060031901126108df5760043590602435906044359060643580151581036108df5790565b600080fd5b6000546001600160a01b031633036108f857565b60405163118cdaa760e01b8152336004820152602490fd5b8181029291811591840414171561092357565b634e487b7160e01b600052601160045260246000fdfea2646970667358221220485c5d8aa56e2398600540edcaf5e0dc1d63287dbac570078eb7a16d833a9ae864736f6c63430008140033","opcodes":"PUSH1 0x80 DUP1 PUSH1 0x40 MSTORE CALLVALUE PUSH2 0xC2 JUMPI CALLER ISZERO PUSH2 0xAC JUMPI PUSH1 0x0 DUP1 SLOAD CALLER PUSH1 0x1 PUSH1 0x1 PUSH1 0xA0 SHL SUB NOT DUP3 AND DUP2 OR DUP4 SSTORE PUSH1 0x40 MLOAD SWAP3 SWAP1 SWAP2 PUSH1 0x1 PUSH1 0x1 PUSH1 0xA0 SHL SUB AND SWAP1 PUSH32 0x8BE0079C531659141344CD1FD0A4F28419497F9722A3DAAFE3B4186F6B6457E0 SWAP1 DUP1 LOG3 PUSH1 0x64 PUSH1 0x1 SSTORE PUSH1 0x32 PUSH1 0x2 SSTORE PUSH2 0x12C PUSH1 0x3 SSTORE PUSH4 0x3B9ACA00 PUSH1 0x4 SSTORE PUSH5 0x2540BE400 PUSH1 0x5 SSTORE PUSH5 0xBA43B7400 PUSH1 0x6 SSTORE PUSH1 0x96 PUSH1 0x7 SSTORE PUSH1 0x64 PUSH1 0x8 SSTORE PUSH1 0x4B PUSH1 0x9 SSTORE PUSH1 0x5A PUSH1 0xA SSTORE PUSH1 0x5F PUSH1 0xB SSTORE PUSH1 0x32 PUSH1 0xC SSTORE PUSH2 0x96F SWAP1 DUP2 PUSH2 0xC8 DUP3 CODECOPY RETURN JUMPDEST PUSH4 0x1E4FBDF7 PUSH1 0xE0 SHL DUP2 MSTORE PUSH1 0x0 PUSH1 0x4 DUP3 ADD MSTORE PUSH1 0x24 SWAP1 REVERT JUMPDEST PUSH1 0x0 DUP1 REVERT INVALID PUSH1 0x80 PUSH1 0x40 DUP2 DUP2 MSTORE PUSH1 0x4 SWAP2 DUP3 CALLDATASIZE LT ISZERO PUSH2 0x16 JUMPI PUSH1 0x0 DUP1 REVERT JUMPDEST PUSH1 0x0 SWAP1 DUP2 CALLDATALOAD PUSH1 0xE0 SHR SWAP1 DUP2 PUSH4 0x1F59D16 EQ PUSH2 0x89C JUMPI POP DUP1 PUSH4 0x1039298F EQ PUSH2 0x87D JUMPI DUP1 PUSH4 0x164D29F6 EQ PUSH2 0x85E JUMPI DUP1 PUSH4 0x24EC7590 EQ PUSH2 0x83F JUMPI DUP1 PUSH4 0x27F8456B EQ PUSH2 0x820 JUMPI DUP1 PUSH4 0x46860698 EQ PUSH2 0x7A7 JUMPI DUP1 PUSH4 0x54350AB1 EQ PUSH2 0x589 JUMPI DUP1 PUSH4 0x6EF25C3A EQ PUSH2 0x56A JUMPI DUP1 PUSH4 0x702C5A4D EQ PUSH2 0x54C JUMPI DUP1 PUSH4 0x715018A6 EQ PUSH2 0x4F2 JUMPI DUP1 PUSH4 0x836DD14F EQ PUSH2 0x492 JUMPI DUP1 PUSH4 0x8DA5CB5B EQ PUSH2 0x46A JUMPI DUP1 PUSH4 0xB6254A9F EQ PUSH2 0x44B JUMPI DUP1 PUSH4 0xC7D0B0CF EQ PUSH2 0x42C JUMPI DUP1 PUSH4 0xC7F2EE58 EQ PUSH2 0x40D JUMPI DUP1 PUSH4 0xCA5C1B98 EQ PUSH2 0x3EE JUMPI DUP1 PUSH4 0xCB3D5B2A EQ PUSH2 0x36F JUMPI DUP1 PUSH4 0xCCB4CD1B EQ PUSH2 0x34C JUMPI DUP1 PUSH4 0xD0FB2483 EQ PUSH2 0x2A6 JUMPI DUP1 PUSH4 0xF2FDE38B EQ PUSH2 0x213 JUMPI PUSH4 0xF63D2071 EQ PUSH2 0x10B JUMPI PUSH1 0x0 DUP1 REVERT JUMPDEST CALLVALUE PUSH2 0x210 JUMPI PUSH2 0x119 CALLDATASIZE PUSH2 0x8B8 JUMP JUMPDEST SWAP1 DUP6 SWAP4 SWAP5 SWAP3 SWAP6 MLOAD SWAP6 PUSH4 0x54350AB1 PUSH1 0xE0 SHL DUP8 MSTORE DUP6 DUP9 DUP9 ADD MSTORE PUSH1 0x24 DUP8 ADD MSTORE PUSH1 0x44 DUP7 ADD MSTORE ISZERO ISZERO PUSH1 0x64 DUP6 ADD MSTORE PUSH1 0x20 DUP5 PUSH1 0x84 DUP2 ADDRESS GAS STATICCALL SWAP4 DUP5 ISZERO PUSH2 0x204 JUMPI DUP2 SWAP5 PUSH2 0x1A5 JUMPI JUMPDEST POP PUSH2 0x2710 SWAP4 DUP5 DUP2 MUL SWAP5 DUP2 DUP7 DIV EQ SWAP1 ISZERO OR ISZERO PUSH2 0x192 JUMPI DUP3 ISZERO PUSH2 0x17F JUMPI POP PUSH1 0x20 SWAP4 POP MLOAD SWAP2 DIV DUP2 MSTORE RETURN JUMPDEST PUSH4 0x4E487B71 PUSH1 0xE0 SHL DUP2 MSTORE PUSH1 0x12 DUP6 MSTORE PUSH1 0x24 SWAP1 REVERT JUMPDEST PUSH4 0x4E487B71 PUSH1 0xE0 SHL DUP2 MSTORE PUSH1 0x11 DUP6 MSTORE PUSH1 0x24 SWAP1 REVERT JUMPDEST SWAP1 SWAP4 POP PUSH1 0x20 RETURNDATASIZE DUP2 GT PUSH2 0x1FD JUMPI JUMPDEST PUSH1 0x1F DUP2 ADD PUSH1 0x1F NOT AND DUP3 ADD PUSH8 0xFFFFFFFFFFFFFFFF DUP2 GT DUP4 DUP3 LT OR PUSH2 0x1EA JUMPI PUSH1 0x20 SWAP2 DUP4 SWAP2 DUP6 MSTORE DUP2 ADD SUB SLT PUSH2 0x1E6 JUMPI MLOAD SWAP3 CODESIZE PUSH2 0x158 JUMP JUMPDEST DUP4 DUP1 REVERT JUMPDEST PUSH4 0x4E487B71 PUSH1 0xE0 SHL DUP7 MSTORE PUSH1 0x41 DUP8 MSTORE PUSH1 0x24 DUP7 REVERT JUMPDEST POP RETURNDATASIZE PUSH2 0x1B2 JUMP JUMPDEST POP SWAP1 MLOAD SWAP1 RETURNDATASIZE SWAP1 DUP3 RETURNDATACOPY RETURNDATASIZE SWAP1 REVERT JUMPDEST DUP1 REVERT JUMPDEST POP SWAP2 SWAP1 CALLVALUE PUSH2 0x2A2 JUMPI PUSH1 0x20 CALLDATASIZE PUSH1 0x3 NOT ADD SLT PUSH2 0x2A2 JUMPI PUSH1 0x1 PUSH1 0x1 PUSH1 0xA0 SHL SUB DUP3 CALLDATALOAD DUP2 DUP2 AND SWAP4 SWAP2 SWAP3 SWAP1 DUP5 SWAP1 SUB PUSH2 0x29E JUMPI PUSH2 0x247 PUSH2 0x8E4 JUMP JUMPDEST DUP4 ISZERO PUSH2 0x288 JUMPI POP POP DUP3 SLOAD PUSH1 0x1 PUSH1 0x1 PUSH1 0xA0 SHL SUB NOT DUP2 AND DUP4 OR DUP5 SSTORE AND PUSH32 0x8BE0079C531659141344CD1FD0A4F28419497F9722A3DAAFE3B4186F6B6457E0 DUP4 DUP1 LOG3 DUP1 RETURN JUMPDEST MLOAD PUSH4 0x1E4FBDF7 PUSH1 0xE0 SHL DUP2 MSTORE SWAP1 DUP2 ADD DUP5 SWAP1 MSTORE PUSH1 0x24 SWAP1 REVERT JUMPDEST DUP5 DUP1 REVERT JUMPDEST DUP3 DUP1 REVERT JUMPDEST POP SWAP2 CALLVALUE PUSH2 0x2A2 JUMPI DUP2 PUSH1 0x3 NOT CALLDATASIZE ADD SLT PUSH2 0x2A2 JUMPI DUP1 CALLDATALOAD SWAP1 PUSH1 0x24 CALLDATALOAD SWAP3 PUSH2 0x2C7 PUSH2 0x8E4 JUMP JUMPDEST DUP4 DUP4 LT ISZERO PUSH2 0x319 JUMPI PUSH2 0x1F4 DUP5 GT PUSH2 0x2E3 JUMPI POP POP PUSH1 0x2 SSTORE PUSH1 0x3 SSTORE DUP1 RETURN JUMPDEST SWAP1 PUSH1 0x20 PUSH1 0x64 SWAP3 MLOAD SWAP2 PUSH3 0x461BCD PUSH1 0xE5 SHL DUP4 MSTORE DUP3 ADD MSTORE PUSH1 0x10 PUSH1 0x24 DUP3 ADD MSTORE PUSH16 0x9AC2F040CCCACA40E8DEDE40D0D2CED PUSH1 0x83 SHL PUSH1 0x44 DUP3 ADD MSTORE REVERT JUMPDEST SWAP1 PUSH1 0x20 PUSH1 0x64 SWAP3 MLOAD SWAP2 PUSH3 0x461BCD PUSH1 0xE5 SHL DUP4 MSTORE DUP3 ADD MSTORE PUSH1 0xD PUSH1 0x24 DUP3 ADD MSTORE PUSH13 0x496E76616C69642072616E6765 PUSH1 0x98 SHL PUSH1 0x44 DUP3 ADD MSTORE REVERT JUMPDEST POP SWAP1 CALLVALUE PUSH2 0x36B JUMPI DUP2 PUSH1 0x3 NOT CALLDATASIZE ADD SLT PUSH2 0x36B JUMPI PUSH1 0x20 SWAP1 PUSH1 0x7 SLOAD SWAP1 MLOAD SWAP1 DUP2 MSTORE RETURN JUMPDEST POP DUP1 REVERT JUMPDEST POP SWAP2 CALLVALUE PUSH2 0x2A2 JUMPI PUSH1 0x60 CALLDATASIZE PUSH1 0x3 NOT ADD SLT PUSH2 0x2A2 JUMPI DUP1 CALLDATALOAD PUSH1 0x24 CALLDATALOAD SWAP2 PUSH1 0x44 CALLDATALOAD SWAP4 PUSH2 0x394 PUSH2 0x8E4 JUMP JUMPDEST DUP4 DUP4 LT DUP1 PUSH2 0x3E5 JUMPI JUMPDEST ISZERO PUSH2 0x3AD JUMPI POP SSTORE PUSH1 0x5 SSTORE PUSH1 0x6 SSTORE DUP1 RETURN JUMPDEST SWAP1 PUSH1 0x20 PUSH1 0x64 SWAP3 MLOAD SWAP2 PUSH3 0x461BCD PUSH1 0xE5 SHL DUP4 MSTORE DUP3 ADD MSTORE PUSH1 0x12 PUSH1 0x24 DUP3 ADD MSTORE PUSH18 0x496E76616C6964207468726573686F6C6473 PUSH1 0x70 SHL PUSH1 0x44 DUP3 ADD MSTORE REVERT JUMPDEST POP DUP5 DUP5 LT PUSH2 0x39D JUMP JUMPDEST POP SWAP1 CALLVALUE PUSH2 0x36B JUMPI DUP2 PUSH1 0x3 NOT CALLDATASIZE ADD SLT PUSH2 0x36B JUMPI PUSH1 0x20 SWAP1 PUSH1 0xB SLOAD SWAP1 MLOAD SWAP1 DUP2 MSTORE RETURN JUMPDEST POP SWAP1 CALLVALUE PUSH2 0x36B JUMPI DUP2 PUSH1 0x3 NOT CALLDATASIZE ADD SLT PUSH2 0x36B JUMPI PUSH1 0x20 SWAP1 PUSH1 0x9 SLOAD SWAP1 MLOAD SWAP1 DUP2 MSTORE RETURN JUMPDEST POP SWAP1 CALLVALUE PUSH2 0x36B JUMPI DUP2 PUSH1 0x3 NOT CALLDATASIZE ADD SLT PUSH2 0x36B JUMPI PUSH1 0x20 SWAP1 PUSH1 0x6 SLOAD SWAP1 MLOAD SWAP1 DUP2 MSTORE RETURN JUMPDEST POP SWAP1 CALLVALUE PUSH2 0x36B JUMPI DUP2 PUSH1 0x3 NOT CALLDATASIZE ADD SLT PUSH2 0x36B JUMPI PUSH1 0x20 SWAP1 PUSH1 0xA SLOAD SWAP1 MLOAD SWAP1 DUP2 MSTORE RETURN JUMPDEST POP SWAP1 CALLVALUE PUSH2 0x36B JUMPI DUP2 PUSH1 0x3 NOT CALLDATASIZE ADD SLT PUSH2 0x36B JUMPI SWAP1 SLOAD SWAP1 MLOAD PUSH1 0x1 PUSH1 0x1 PUSH1 0xA0 SHL SUB SWAP1 SWAP2 AND DUP2 MSTORE PUSH1 0x20 SWAP1 RETURN JUMPDEST POP SWAP2 CALLVALUE PUSH2 0x2A2 JUMPI PUSH1 0x20 CALLDATASIZE PUSH1 0x3 NOT ADD SLT PUSH2 0x2A2 JUMPI DUP1 CALLDATALOAD SWAP2 PUSH2 0x4B0 PUSH2 0x8E4 JUMP JUMPDEST PUSH1 0x64 DUP4 GT PUSH2 0x4C0 JUMPI POP POP PUSH1 0xC SSTORE DUP1 RETURN JUMPDEST SWAP1 PUSH1 0x20 PUSH1 0x64 SWAP3 MLOAD SWAP2 PUSH3 0x461BCD PUSH1 0xE5 SHL DUP4 MSTORE DUP3 ADD MSTORE PUSH1 0xC PUSH1 0x24 DUP3 ADD MSTORE PUSH12 0x8CCACA40E8DEDE40D0D2CED PUSH1 0xA3 SHL PUSH1 0x44 DUP3 ADD MSTORE REVERT JUMPDEST POP CALLVALUE PUSH2 0x210 JUMPI DUP1 PUSH1 0x3 NOT CALLDATASIZE ADD SLT PUSH2 0x210 JUMPI PUSH2 0x50B PUSH2 0x8E4 JUMP JUMPDEST DUP1 SLOAD PUSH1 0x1 PUSH1 0x1 PUSH1 0xA0 SHL SUB NOT DUP2 AND DUP3 SSTORE DUP2 SWAP1 PUSH1 0x1 PUSH1 0x1 PUSH1 0xA0 SHL SUB AND PUSH32 0x8BE0079C531659141344CD1FD0A4F28419497F9722A3DAAFE3B4186F6B6457E0 DUP3 DUP1 LOG3 DUP1 RETURN JUMPDEST POP SWAP2 CALLVALUE PUSH2 0x2A2 JUMPI DUP3 PUSH1 0x3 NOT CALLDATASIZE ADD SLT PUSH2 0x2A2 JUMPI PUSH1 0x20 SWAP3 POP SLOAD SWAP1 MLOAD SWAP1 DUP2 MSTORE RETURN JUMPDEST POP SWAP1 CALLVALUE PUSH2 0x36B JUMPI DUP2 PUSH1 0x3 NOT CALLDATASIZE ADD SLT PUSH2 0x36B JUMPI PUSH1 0x20 SWAP1 PUSH1 0x1 SLOAD SWAP1 MLOAD SWAP1 DUP2 MSTORE RETURN JUMPDEST POP CALLVALUE PUSH2 0x210 JUMPI PUSH2 0x598 CALLDATASIZE PUSH2 0x8B8 JUMP JUMPDEST SWAP3 SWAP4 SWAP1 DUP5 ISZERO PUSH2 0x773 JUMPI PUSH1 0x2 DUP4 GT PUSH2 0x73B JUMPI PUSH2 0x2710 SWAP3 DUP4 PUSH2 0x5BA PUSH1 0x1 SLOAD DUP9 PUSH2 0x910 JUMP JUMPDEST DIV SWAP1 PUSH1 0x2 DUP2 SUB PUSH2 0x722 JUMPI POP PUSH2 0x5D4 PUSH1 0x64 SWAP2 PUSH1 0x7 SLOAD SWAP1 PUSH2 0x910 JUMP JUMPDEST DIV JUMPDEST PUSH1 0x6 SLOAD DUP7 LT PUSH2 0x6D5 JUMPI PUSH1 0x46 DUP2 MUL SWAP1 DUP1 DUP3 DIV PUSH1 0x46 EQ SWAP1 ISZERO OR ISZERO PUSH2 0x6C2 JUMPI PUSH1 0x64 SWAP1 DIV SWAP1 JUMPDEST PUSH2 0x320 DUP2 LT PUSH2 0x69F JUMPI POP PUSH2 0x611 PUSH1 0x64 SWAP2 PUSH1 0xA SLOAD SWAP1 PUSH2 0x910 JUMP JUMPDEST DIV SWAP3 JUMPDEST PUSH2 0x666 JUMPI JUMPDEST POP PUSH1 0x20 SWAP5 POP PUSH2 0x639 DUP2 PUSH2 0x62E PUSH1 0x2 SLOAD DUP7 PUSH2 0x910 JUMP JUMPDEST DIV SWAP4 PUSH1 0x3 SLOAD SWAP1 PUSH2 0x910 JUMP JUMPDEST DIV DUP3 DUP3 LT ISZERO PUSH2 0x64C JUMPI POP POP SWAP1 JUMPDEST MLOAD SWAP1 DUP2 MSTORE RETURN JUMPDEST DUP2 DUP2 SWAP3 SWAP5 SWAP4 POP GT PUSH2 0x65E JUMPI JUMPDEST POP PUSH2 0x646 JUMP JUMPDEST SWAP2 POP CODESIZE PUSH2 0x658 JUMP JUMPDEST DUP2 PUSH2 0x676 PUSH1 0xC SWAP5 SWAP4 SWAP5 SLOAD DUP7 PUSH2 0x910 JUMP JUMPDEST DIV DUP3 ADD DUP1 SWAP3 GT PUSH2 0x68C JUMPI POP PUSH1 0x20 SWAP5 POP SWAP1 CODESIZE PUSH2 0x619 JUMP JUMPDEST PUSH4 0x4E487B71 PUSH1 0xE0 SHL DUP2 MSTORE PUSH1 0x11 DUP7 MSTORE PUSH1 0x24 SWAP1 REVERT JUMPDEST PUSH2 0x1F4 SWAP1 SWAP5 SWAP2 SWAP5 LT PUSH2 0x614 JUMPI SWAP3 PUSH2 0x6BB PUSH1 0x64 SWAP2 PUSH1 0xB SLOAD SWAP1 PUSH2 0x910 JUMP JUMPDEST DIV SWAP3 PUSH2 0x614 JUMP JUMPDEST PUSH4 0x4E487B71 PUSH1 0xE0 SHL DUP4 MSTORE PUSH1 0x11 DUP9 MSTORE PUSH1 0x24 DUP4 REVERT JUMPDEST PUSH1 0x5 SLOAD DUP7 LT PUSH2 0x6FB JUMPI PUSH1 0x50 DUP2 MUL SWAP1 DUP1 DUP3 DIV PUSH1 0x50 EQ SWAP1 ISZERO OR ISZERO PUSH2 0x6C2 JUMPI PUSH1 0x64 SWAP1 DIV SWAP1 PUSH2 0x5F8 JUMP JUMPDEST SWAP1 DUP8 SLOAD DUP7 LT PUSH2 0x5F8 JUMPI SWAP1 PUSH1 0x5A DUP2 MUL SWAP1 DUP1 DUP3 DIV PUSH1 0x5A EQ SWAP1 ISZERO OR ISZERO PUSH2 0x6C2 JUMPI PUSH1 0x64 SWAP1 DIV SWAP1 PUSH2 0x5F8 JUMP JUMPDEST PUSH2 0x5D6 JUMPI PUSH2 0x735 PUSH1 0x64 SWAP2 PUSH1 0x9 SLOAD SWAP1 PUSH2 0x910 JUMP JUMPDEST DIV PUSH2 0x5D6 JUMP JUMPDEST DUP6 MLOAD PUSH3 0x461BCD PUSH1 0xE5 SHL DUP2 MSTORE PUSH1 0x20 DUP2 DUP10 ADD MSTORE PUSH1 0x12 PUSH1 0x24 DUP3 ADD MSTORE PUSH18 0x496E76616C696420636F6D706C6578697479 PUSH1 0x70 SHL PUSH1 0x44 DUP3 ADD MSTORE PUSH1 0x64 SWAP1 REVERT JUMPDEST DUP6 MLOAD PUSH3 0x461BCD PUSH1 0xE5 SHL DUP2 MSTORE PUSH1 0x20 DUP2 DUP10 ADD MSTORE PUSH1 0xE PUSH1 0x24 DUP3 ADD MSTORE PUSH14 0x125B9D985B1A5908185B5BDD5B9D PUSH1 0x92 SHL PUSH1 0x44 DUP3 ADD MSTORE PUSH1 0x64 SWAP1 REVERT JUMPDEST POP SWAP2 CALLVALUE PUSH2 0x2A2 JUMPI PUSH1 0x20 CALLDATASIZE PUSH1 0x3 NOT ADD SLT PUSH2 0x2A2 JUMPI DUP1 CALLDATALOAD SWAP2 PUSH2 0x7C5 PUSH2 0x8E4 JUMP JUMPDEST PUSH1 0x2 SLOAD DUP4 LT ISZERO DUP1 PUSH2 0x814 JUMPI JUMPDEST ISZERO PUSH2 0x7DE JUMPI POP POP PUSH1 0x1 SSTORE DUP1 RETURN JUMPDEST SWAP1 PUSH1 0x20 PUSH1 0x64 SWAP3 MLOAD SWAP2 PUSH3 0x461BCD PUSH1 0xE5 SHL DUP4 MSTORE DUP3 ADD MSTORE PUSH1 0x10 PUSH1 0x24 DUP3 ADD MSTORE PUSH16 0x496E76616C6964206261736520666565 PUSH1 0x80 SHL PUSH1 0x44 DUP3 ADD MSTORE REVERT JUMPDEST POP PUSH1 0x3 SLOAD DUP4 GT ISZERO PUSH2 0x7D1 JUMP JUMPDEST POP SWAP1 CALLVALUE PUSH2 0x36B JUMPI DUP2 PUSH1 0x3 NOT CALLDATASIZE ADD SLT PUSH2 0x36B JUMPI PUSH1 0x20 SWAP1 PUSH1 0x8 SLOAD SWAP1 MLOAD SWAP1 DUP2 MSTORE RETURN JUMPDEST POP SWAP1 CALLVALUE PUSH2 0x36B JUMPI DUP2 PUSH1 0x3 NOT CALLDATASIZE ADD SLT PUSH2 0x36B JUMPI PUSH1 0x20 SWAP1 PUSH1 0x2 SLOAD SWAP1 MLOAD SWAP1 DUP2 MSTORE RETURN JUMPDEST POP SWAP1 CALLVALUE PUSH2 0x36B JUMPI DUP2 PUSH1 0x3 NOT CALLDATASIZE ADD SLT PUSH2 0x36B JUMPI PUSH1 0x20 SWAP1 PUSH1 0xC SLOAD SWAP1 MLOAD SWAP1 DUP2 MSTORE RETURN JUMPDEST POP SWAP1 CALLVALUE PUSH2 0x36B JUMPI DUP2 PUSH1 0x3 NOT CALLDATASIZE ADD SLT PUSH2 0x36B JUMPI PUSH1 0x20 SWAP1 PUSH1 0x5 SLOAD SWAP1 MLOAD SWAP1 DUP2 MSTORE RETURN JUMPDEST SWAP1 POP CALLVALUE PUSH2 0x36B JUMPI DUP2 PUSH1 0x3 NOT CALLDATASIZE ADD SLT PUSH2 0x36B JUMPI PUSH1 0x20 SWAP1 PUSH1 0x3 SLOAD DUP2 MSTORE RETURN JUMPDEST PUSH1 0x80 SWAP1 PUSH1 0x3 NOT ADD SLT PUSH2 0x8DF JUMPI PUSH1 0x4 CALLDATALOAD SWAP1 PUSH1 0x24 CALLDATALOAD SWAP1 PUSH1 0x44 CALLDATALOAD SWAP1 PUSH1 0x64 CALLDATALOAD DUP1 ISZERO ISZERO DUP2 SUB PUSH2 0x8DF JUMPI SWAP1 JUMP JUMPDEST PUSH1 0x0 DUP1 REVERT JUMPDEST PUSH1 0x0 SLOAD PUSH1 0x1 PUSH1 0x1 PUSH1 0xA0 SHL SUB AND CALLER SUB PUSH2 0x8F8 JUMPI JUMP JUMPDEST PUSH1 0x40 MLOAD PUSH4 0x118CDAA7 PUSH1 0xE0 SHL DUP2 MSTORE CALLER PUSH1 0x4 DUP3 ADD MSTORE PUSH1 0x24 SWAP1 REVERT JUMPDEST DUP2 DUP2 MUL SWAP3 SWAP2 DUP2 ISZERO SWAP2 DUP5 DIV EQ OR ISZERO PUSH2 0x923 JUMPI JUMP JUMPDEST PUSH4 0x4E487B71 PUSH1 0xE0 SHL PUSH1 0x0 MSTORE PUSH1 0x11 PUSH1 0x4 MSTORE PUSH1 0x24 PUSH1 0x0 REVERT INVALID LOG2 PUSH5 0x6970667358 0x22 SLT KECCAK256 BASEFEE 0x5C 0x5D DUP11 0xA5 PUSH15 0x2398600540EDCAF5E0DC1D63287DBA 0xC5 PUSH17 0x78EB7A16D833A9AE864736F6C63430008 EQ STOP CALLER "},"methodIdentifiers":{"baseFee()":"6ef25c3a","calculateFee(uint256,uint256,uint256,bool)":"54350ab1","crossChainFee()":"164d29f6","getFeePercentage(uint256,uint256,uint256,bool)":"f63d2071","highComplexityMultiplier()":"ccb4cd1b","highReputationDiscount()":"b6254a9f","lowComplexityMultiplier()":"c7f2ee58","maxFee()":"01f59d16","mediumComplexityMultiplier()":"27f8456b","mediumReputationDiscount()":"ca5c1b98","minFee()":"24ec7590","owner()":"8da5cb5b","renounceOwnership()":"715018a6","setBaseFee(uint256)":"46860698","setCrossChainFee(uint256)":"836dd14f","setFeeRange(uint256,uint256)":"d0fb2483","setTierThresholds(uint256,uint256,uint256)":"cb3d5b2a","tier1Threshold()":"702c5a4d","tier2Threshold()":"1039298f","tier3Threshold()":"c7d0b0cf","transferOwnership(address)":"f2fde38b"}}}}}