{
  "_format": "hh-sol-artifact-1",
  "contractName": "FeeManager",
  "sourceName": "contracts/FeeManager.sol",
  "abi": [
    {
      "inputs": [],
      "stateMutability": "nonpayable",
      "type": "constructor"
    },
    {
      "inputs": [
        {
          "internalType": "address",
          "name": "owner",
          "type": "address"
        }
      ],
      "name": "OwnableInvalidOwner",
      "type": "error"
    },
    {
      "inputs": [
        {
          "internalType": "address",
          "name": "account",
          "type": "address"
        }
      ],
      "name": "OwnableUnauthorizedAccount",
      "type": "error"
    },
    {
      "anonymous": false,
      "inputs": [
        {
          "indexed": true,
          "internalType": "address",
          "name": "previousOwner",
          "type": "address"
        },
        {
          "indexed": true,
          "internalType": "address",
          "name": "newOwner",
          "type": "address"
        }
      ],
      "name": "OwnershipTransferred",
      "type": "event"
    },
    {
      "inputs": [],
      "name": "baseFee",
      "outputs": [
        {
          "internalType": "uint256",
          "name": "",
          "type": "uint256"
        }
      ],
      "stateMutability": "view",
      "type": "function"
    },
    {
      "inputs": [
        {
          "internalType": "uint256",
          "name": "amount",
          "type": "uint256"
        },
        {
          "internalType": "uint256",
          "name": "complexity",
          "type": "uint256"
        },
        {
          "internalType": "uint256",
          "name": "workerReputation",
          "type": "uint256"
        },
        {
          "internalType": "bool",
          "name": "isCrossChain",
          "type": "bool"
        }
      ],
      "name": "calculateFee",
      "outputs": [
        {
          "internalType": "uint256",
          "name": "",
          "type": "uint256"
        }
      ],
      "stateMutability": "view",
      "type": "function"
    },
    {
      "inputs": [],
      "name": "crossChainFee",
      "outputs": [
        {
          "internalType": "uint256",
          "name": "",
          "type": "uint256"
        }
      ],
      "stateMutability": "view",
      "type": "function"
    },
    {
      "inputs": [
        {
          "internalType": "uint256",
          "name": "amount",
          "type": "uint256"
        },
        {
          "internalType": "uint256",
          "name": "complexity",
          "type": "uint256"
        },
        {
          "internalType": "uint256",
          "name": "workerReputation",
          "type": "uint256"
        },
        {
          "internalType": "bool",
          "name": "isCrossChain",
          "type": "bool"
        }
      ],
      "name": "getFeePercentage",
      "outputs": [
        {
          "internalType": "uint256",
          "name": "",
          "type": "uint256"
        }
      ],
      "stateMutability": "view",
      "type": "function"
    },
    {
      "inputs": [],
      "name": "highComplexityMultiplier",
      "outputs": [
        {
          "internalType": "uint256",
          "name": "",
          "type": "uint256"
        }
      ],
      "stateMutability": "view",
      "type": "function"
    },
    {
      "inputs": [],
      "name": "highReputationDiscount",
      "outputs": [
        {
          "internalType": "uint256",
          "name": "",
          "type": "uint256"
        }
      ],
      "stateMutability": "view",
      "type": "function"
    },
    {
      "inputs": [],
      "name": "lowComplexityMultiplier",
      "outputs": [
        {
          "internalType": "uint256",
          "name": "",
          "type": "uint256"
        }
      ],
      "stateMutability": "view",
      "type": "function"
    },
    {
      "inputs": [],
      "name": "maxFee",
      "outputs": [
        {
          "internalType": "uint256",
          "name": "",
          "type": "uint256"
        }
      ],
      "stateMutability": "view",
      "type": "function"
    },
    {
      "inputs": [],
      "name": "mediumComplexityMultiplier",
      "outputs": [
        {
          "internalType": "uint256",
          "name": "",
          "type": "uint256"
        }
      ],
      "stateMutability": "view",
      "type": "function"
    },
    {
      "inputs": [],
      "name": "mediumReputationDiscount",
      "outputs": [
        {
          "internalType": "uint256",
          "name": "",
          "type": "uint256"
        }
      ],
      "stateMutability": "view",
      "type": "function"
    },
    {
      "inputs": [],
      "name": "minFee",
      "outputs": [
        {
          "internalType": "uint256",
          "name": "",
          "type": "uint256"
        }
      ],
      "stateMutability": "view",
      "type": "function"
    },
    {
      "inputs": [],
      "name": "owner",
      "outputs": [
        {
          "internalType": "address",
          "name": "",
          "type": "address"
        }
      ],
      "stateMutability": "view",
      "type": "function"
    },
    {
      "inputs": [],
      "name": "renounceOwnership",
      "outputs": [],
      "stateMutability": "nonpayable",
      "type": "function"
    },
    {
      "inputs": [
        {
          "internalType": "uint256",
          "name": "_baseFee",
          "type": "uint256"
        }
      ],
      "name": "setBaseFee",
      "outputs": [],
      "stateMutability": "nonpayable",
      "type": "function"
    },
    {
      "inputs": [
        {
          "internalType": "uint256",
          "name": "_fee",
          "type": "uint256"
        }
      ],
      "name": "setCrossChainFee",
      "outputs": [],
      "stateMutability": "nonpayable",
      "type": "function"
    },
    {
      "inputs": [
        {
          "internalType": "uint256",
          "name": "_minFee",
          "type": "uint256"
        },
        {
          "internalType": "uint256",
          "name": "_maxFee",
          "type": "uint256"
        }
      ],
      "name": "setFeeRange",
      "outputs": [],
      "stateMutability": "nonpayable",
      "type": "function"
    },
    {
      "inputs": [
        {
          "internalType": "uint256",
          "name": "_tier1",
          "type": "uint256"
        },
        {
          "internalType": "uint256",
          "name": "_tier2",
          "type": "uint256"
        },
        {
          "internalType": "uint256",
          "name": "_tier3",
          "type": "uint256"
        }
      ],
      "name": "setTierThresholds",
      "outputs": [],
      "stateMutability": "nonpayable",
      "type": "function"
    },
    {
      "inputs": [],
      "name": "tier1Threshold",
      "outputs": [
        {
          "internalType": "uint256",
          "name": "",
          "type": "uint256"
        }
      ],
      "stateMutability": "view",
      "type": "function"
    },
    {
      "inputs": [],
      "name": "tier2Threshold",
      "outputs": [
        {
          "internalType": "uint256",
          "name": "",
          "type": "uint256"
        }
      ],
      "stateMutability": "view",
      "type": "function"
    },
    {
      "inputs": [],
      "name": "tier3Threshold",
      "outputs": [
        {
          "internalType": "uint256",
          "name": "",
          "type": "uint256"
        }
      ],
      "stateMutability": "view",
      "type": "function"
    },
    {
      "inputs": [
        {
          "internalType": "address",
          "name": "newOwner",
          "type": "address"
        }
      ],
      "name": "transferOwnership",
      "outputs": [],
      "stateMutability": "nonpayable",
      "type": "function"
    }
  ],
  "bytecode": "0x608080604052346100c25733156100ac5760008054336001600160a01b03198216811783556040519290916001600160a01b0316907f8be0079c531659141344cd1fd0a4f28419497f9722a3daafe3b4186f6b6457e09080a36064600155603260025561012c600355633b9aca006004556402540be400600555640ba43b740060065560966007556064600855604b600955605a600a55605f600b556032600c5561096f90816100c88239f35b631e4fbdf760e01b815260006004820152602490fd5b600080fdfe608060408181526004918236101561001657600080fd5b600090813560e01c90816301f59d161461089c575080631039298f1461087d578063164d29f61461085e57806324ec75901461083f57806327f8456b1461082057806346860698146107a757806354350ab1146105895780636ef25c3a1461056a578063702c5a4d1461054c578063715018a6146104f2578063836dd14f146104925780638da5cb5b1461046a578063b6254a9f1461044b578063c7d0b0cf1461042c578063c7f2ee581461040d578063ca5c1b98146103ee578063cb3d5b2a1461036f578063ccb4cd1b1461034c578063d0fb2483146102a6578063f2fde38b146102135763f63d20711461010b57600080fd5b3461021057610119366108b8565b90859394929551956354350ab160e01b875285888801526024870152604486015215156064850152602084608481305afa9384156102045781946101a5575b506127109384810294818604149015171561019257821561017f5750602093505191048152f35b634e487b7160e01b815260128552602490fd5b634e487b7160e01b815260118552602490fd5b90935060203d81116101fd575b601f8101601f1916820167ffffffffffffffff8111838210176101ea5760209183918552810103126101e657519238610158565b8380fd5b634e487b7160e01b865260418752602486fd5b503d6101b2565b509051903d90823e3d90fd5b80fd5b509190346102a25760203660031901126102a2576001600160a01b0382358181169391929084900361029e576102476108e4565b831561028857505082546001600160a01b0319811683178455167f8be0079c531659141344cd1fd0a4f28419497f9722a3daafe3b4186f6b6457e08380a380f35b51631e4fbdf760e01b8152908101849052602490fd5b8480fd5b8280fd5b5091346102a257816003193601126102a257803590602435926102c76108e4565b83831015610319576101f484116102e357505060025560035580f35b906020606492519162461bcd60e51b8352820152601060248201526f09ac2f040cccaca40e8dede40d0d2ced60831b6044820152fd5b906020606492519162461bcd60e51b8352820152600d60248201526c496e76616c69642072616e676560981b6044820152fd5b50903461036b578160031936011261036b576020906007549051908152f35b5080fd5b5091346102a25760603660031901126102a257803560243591604435936103946108e4565b838310806103e5575b156103ad57505560055560065580f35b906020606492519162461bcd60e51b83528201526012602482015271496e76616c6964207468726573686f6c647360701b6044820152fd5b5084841061039d565b50903461036b578160031936011261036b57602090600b549051908152f35b50903461036b578160031936011261036b576020906009549051908152f35b50903461036b578160031936011261036b576020906006549051908152f35b50903461036b578160031936011261036b57602090600a549051908152f35b50903461036b578160031936011261036b57905490516001600160a01b039091168152602090f35b5091346102a25760203660031901126102a2578035916104b06108e4565b606483116104c0575050600c5580f35b906020606492519162461bcd60e51b8352820152600c60248201526b08ccaca40e8dede40d0d2ced60a31b6044820152fd5b503461021057806003193601126102105761050b6108e4565b80546001600160a01b03198116825581906001600160a01b03167f8be0079c531659141344cd1fd0a4f28419497f9722a3daafe3b4186f6b6457e08280a380f35b5091346102a257826003193601126102a25760209250549051908152f35b50903461036b578160031936011261036b576020906001549051908152f35b503461021057610598366108b8565b9293908415610773576002831161073b5761271092836105ba60015488610910565b04906002810361072257506105d460649160075490610910565b045b60065486106106d5576046810290808204604614901517156106c25760649004905b610320811061069f5750610611606491600a5490610910565b04925b610666575b50602094506106398161062e60025486610910565b049360035490610910565b048282101561064c575050905b51908152f35b8181929493501161065e575b50610646565b915038610658565b81610676600c9493945486610910565b04820180921161068c5750602094509038610619565b634e487b7160e01b815260118652602490fd5b6101f4909491941061061457926106bb606491600b5490610910565b0492610614565b634e487b7160e01b835260118852602483fd5b60055486106106fb576050810290808204605014901517156106c25760649004906105f8565b90875486106105f85790605a810290808204605a14901517156106c25760649004906105f8565b6105d65761073560649160095490610910565b046105d6565b855162461bcd60e51b81526020818901526012602482015271496e76616c696420636f6d706c657869747960701b6044820152606490fd5b855162461bcd60e51b8152602081890152600e60248201526d125b9d985b1a5908185b5bdd5b9d60921b6044820152606490fd5b5091346102a25760203660031901126102a2578035916107c56108e4565b60025483101580610814575b156107de57505060015580f35b906020606492519162461bcd60e51b8352820152601060248201526f496e76616c696420626173652066656560801b6044820152fd5b506003548311156107d1565b50903461036b578160031936011261036b576020906008549051908152f35b50903461036b578160031936011261036b576020906002549051908152f35b50903461036b578160031936011261036b57602090600c549051908152f35b50903461036b578160031936011261036b576020906005549051908152f35b90503461036b578160031936011261036b576020906003548152f35b60809060031901126108df5760043590602435906044359060643580151581036108df5790565b600080fd5b6000546001600160a01b031633036108f857565b60405163118cdaa760e01b8152336004820152602490fd5b8181029291811591840414171561092357565b634e487b7160e01b600052601160045260246000fdfea2646970667358221220485c5d8aa56e2398600540edcaf5e0dc1d63287dbac570078eb7a16d833a9ae864736f6c63430008140033",
  "linkReferences": {},
  "deployedLinkReferences": {}
}